{
  "contractName": "AccessControl",
  "abi": [
    {
      "constant": true,
      "inputs": [],
      "name": "owner",
      "outputs": [
        {
          "name": "",
          "type": "address"
        }
      ],
      "payable": false,
      "stateMutability": "view",
      "type": "function"
    },
    {
      "constant": true,
      "inputs": [
        {
          "name": "a",
          "type": "uint256"
        },
        {
          "name": "b",
          "type": "uint256"
        }
      ],
      "name": "safeSub",
      "outputs": [
        {
          "name": "c",
          "type": "uint256"
        }
      ],
      "payable": false,
      "stateMutability": "pure",
      "type": "function"
    },
    {
      "constant": true,
      "inputs": [
        {
          "name": "a",
          "type": "uint256"
        },
        {
          "name": "b",
          "type": "uint256"
        }
      ],
      "name": "safeDiv",
      "outputs": [
        {
          "name": "c",
          "type": "uint256"
        }
      ],
      "payable": false,
      "stateMutability": "pure",
      "type": "function"
    },
    {
      "constant": true,
      "inputs": [
        {
          "name": "a",
          "type": "uint256"
        },
        {
          "name": "b",
          "type": "uint256"
        }
      ],
      "name": "safeMul",
      "outputs": [
        {
          "name": "c",
          "type": "uint256"
        }
      ],
      "payable": false,
      "stateMutability": "pure",
      "type": "function"
    },
    {
      "constant": true,
      "inputs": [
        {
          "name": "a",
          "type": "uint256"
        },
        {
          "name": "b",
          "type": "uint256"
        }
      ],
      "name": "safeAdd",
      "outputs": [
        {
          "name": "c",
          "type": "uint256"
        }
      ],
      "payable": false,
      "stateMutability": "pure",
      "type": "function"
    },
    {
      "inputs": [],
      "payable": false,
      "stateMutability": "nonpayable",
      "type": "constructor"
    }
  ],
  "bytecode": "0x6060604052341561000f57600080fd5b336000806101000a81548173ffffffffffffffffffffffffffffffffffffffff021916908373ffffffffffffffffffffffffffffffffffffffff1602179055506102a58061005e6000396000f30060606040526004361061006d576000357c0100000000000000000000000000000000000000000000000000000000900463ffffffff1680638da5cb5b14610072578063a293d1e8146100c7578063b5931f7c14610107578063d05c78da14610147578063e6cb901314610187575b600080fd5b341561007d57600080fd5b6100856101c7565b604051808273ffffffffffffffffffffffffffffffffffffffff1673ffffffffffffffffffffffffffffffffffffffff16815260200191505060405180910390f35b34156100d257600080fd5b6100f160048080359060200190919080359060200190919050506101ec565b6040518082815260200191505060405180910390f35b341561011257600080fd5b6101316004808035906020019091908035906020019091905050610208565b6040518082815260200191505060405180910390f35b341561015257600080fd5b610171600480803590602001909190803590602001909190505061022c565b6040518082815260200191505060405180910390f35b341561019257600080fd5b6101b1600480803590602001909190803590602001909190505061025d565b6040518082815260200191505060405180910390f35b6000809054906101000a900473ffffffffffffffffffffffffffffffffffffffff1681565b60008282111515156101fd57600080fd5b818303905092915050565b6000808211151561021857600080fd5b818381151561022357fe5b04905092915050565b60008183029050600083148061024c575081838281151561024957fe5b04145b151561025757600080fd5b92915050565b6000818301905082811015151561027357600080fd5b929150505600a165627a7a723058208ab8554440c8719dcec1525505711a3292abfc7eb7875e6634ed56e54c7493070029",
  "source": "pragma solidity ^0.4.18;\n\n\nimport \"./Helpers.sol\";\n\n\ncontract AccessControl is Helpers {\n\n\n    address public owner;\n\n    function AccessControl() public {\n        owner = msg.sender;\n    }\n\n    modifier onlyOwner() {\n        require(msg.sender == owner);\n        _;\n    }\n}",
  "sourcePath": "/Users/aditya/Documents/indifi/blockchain/escrow-ethereum/contracts/AccessControl.sol",
  "compiler": {
    "name": "solc",
    "version": "0.4.18+commit.9cf6e910.Emscripten.clang"
  },
  "schemaVersion": "1.0.1",
  "updatedAt": "2018-03-12T06:51:11.747Z"
}