{
  "contractName": "EscrowTransactions",
  "abi": [
    {
      "constant": true,
      "inputs": [
        {
          "name": "",
          "type": "uint256"
        }
      ],
      "name": "transactionIdToStatus",
      "outputs": [
        {
          "name": "",
          "type": "uint8"
        }
      ],
      "payable": false,
      "stateMutability": "view",
      "type": "function"
    },
    {
      "constant": true,
      "inputs": [],
      "name": "indifiCoin",
      "outputs": [
        {
          "name": "",
          "type": "address"
        }
      ],
      "payable": false,
      "stateMutability": "view",
      "type": "function"
    },
    {
      "constant": true,
      "inputs": [
        {
          "name": "id",
          "type": "uint256"
        }
      ],
      "name": "getTransaction",
      "outputs": [
        {
          "name": "transactionHash",
          "type": "string"
        },
        {
          "name": "amount",
          "type": "uint256"
        },
        {
          "name": "virtualAccountNumber",
          "type": "string"
        }
      ],
      "payable": false,
      "stateMutability": "view",
      "type": "function"
    },
    {
      "constant": true,
      "inputs": [
        {
          "name": "",
          "type": "bytes32"
        }
      ],
      "name": "transactionHashToIndex",
      "outputs": [
        {
          "name": "",
          "type": "uint256"
        }
      ],
      "payable": false,
      "stateMutability": "view",
      "type": "function"
    },
    {
      "constant": false,
      "inputs": [
        {
          "name": "_indifiCoinAddress",
          "type": "address"
        }
      ],
      "name": "updateIndifiCoinAddress",
      "outputs": [
        {
          "name": "",
          "type": "bool"
        }
      ],
      "payable": false,
      "stateMutability": "nonpayable",
      "type": "function"
    },
    {
      "constant": true,
      "inputs": [],
      "name": "owner",
      "outputs": [
        {
          "name": "",
          "type": "address"
        }
      ],
      "payable": false,
      "stateMutability": "view",
      "type": "function"
    },
    {
      "constant": false,
      "inputs": [
        {
          "name": "_virtualAccountNumber",
          "type": "string"
        },
        {
          "name": "_policyDetails",
          "type": "uint256[]"
        },
        {
          "name": "_borrower",
          "type": "address"
        },
        {
          "name": "_lender",
          "type": "address"
        },
        {
          "name": "_bankAccountNumber",
          "type": "string"
        },
        {
          "name": "_ifscCode",
          "type": "string"
        }
      ],
      "name": "updateVirtualAccountConfiguration",
      "outputs": [
        {
          "name": "",
          "type": "bool"
        }
      ],
      "payable": false,
      "stateMutability": "nonpayable",
      "type": "function"
    },
    {
      "constant": true,
      "inputs": [
        {
          "name": "",
          "type": "uint256"
        }
      ],
      "name": "transactions",
      "outputs": [
        {
          "name": "transactionHash",
          "type": "bytes32"
        },
        {
          "name": "amount",
          "type": "uint256"
        },
        {
          "name": "virtualAccountNumber",
          "type": "bytes32"
        },
        {
          "name": "timestamp",
          "type": "uint256"
        }
      ],
      "payable": false,
      "stateMutability": "view",
      "type": "function"
    },
    {
      "constant": true,
      "inputs": [],
      "name": "splitContract",
      "outputs": [
        {
          "name": "",
          "type": "address"
        }
      ],
      "payable": false,
      "stateMutability": "view",
      "type": "function"
    },
    {
      "constant": true,
      "inputs": [
        {
          "name": "x",
          "type": "bytes32"
        }
      ],
      "name": "_bytes32ToString",
      "outputs": [
        {
          "name": "",
          "type": "string"
        }
      ],
      "payable": false,
      "stateMutability": "pure",
      "type": "function"
    },
    {
      "constant": true,
      "inputs": [],
      "name": "getTotalTransactions",
      "outputs": [
        {
          "name": "",
          "type": "uint256"
        }
      ],
      "payable": false,
      "stateMutability": "view",
      "type": "function"
    },
    {
      "constant": true,
      "inputs": [
        {
          "name": "s",
          "type": "string"
        }
      ],
      "name": "_stringToBytes32",
      "outputs": [
        {
          "name": "result",
          "type": "bytes32"
        }
      ],
      "payable": false,
      "stateMutability": "pure",
      "type": "function"
    },
    {
      "constant": false,
      "inputs": [
        {
          "name": "_hash",
          "type": "string"
        },
        {
          "name": "amount",
          "type": "uint256"
        },
        {
          "name": "_vAccNo",
          "type": "string"
        }
      ],
      "name": "newEscrowTransaction",
      "outputs": [
        {
          "name": "",
          "type": "bool"
        }
      ],
      "payable": false,
      "stateMutability": "nonpayable",
      "type": "function"
    },
    {
      "constant": true,
      "inputs": [
        {
          "name": "",
          "type": "bytes32"
        }
      ],
      "name": "VirtualAccounts",
      "outputs": [
        {
          "name": "virtualAccountNumber",
          "type": "bytes32"
        },
        {
          "name": "borrowerAddress",
          "type": "address"
        },
        {
          "name": "lenderAddress",
          "type": "address"
        },
        {
          "name": "bankAccountNumber",
          "type": "string"
        },
        {
          "name": "ifscCode",
          "type": "string"
        }
      ],
      "payable": false,
      "stateMutability": "view",
      "type": "function"
    },
    {
      "constant": false,
      "inputs": [
        {
          "name": "_splitContractAddress",
          "type": "address"
        }
      ],
      "name": "updateSplitContractAddress",
      "outputs": [
        {
          "name": "",
          "type": "bool"
        }
      ],
      "payable": false,
      "stateMutability": "nonpayable",
      "type": "function"
    },
    {
      "constant": false,
      "inputs": [
        {
          "name": "_newOwner",
          "type": "address"
        }
      ],
      "name": "transferOwnership",
      "outputs": [],
      "payable": false,
      "stateMutability": "nonpayable",
      "type": "function"
    },
    {
      "inputs": [],
      "payable": false,
      "stateMutability": "nonpayable",
      "type": "constructor"
    },
    {
      "anonymous": false,
      "inputs": [
        {
          "indexed": true,
          "name": "transactionId",
          "type": "uint256"
        },
        {
          "indexed": true,
          "name": "amount",
          "type": "uint256"
        }
      ],
      "name": "NewTransaction",
      "type": "event"
    },
    {
      "anonymous": false,
      "inputs": [
        {
          "indexed": true,
          "name": "_from",
          "type": "address"
        },
        {
          "indexed": true,
          "name": "_to",
          "type": "address"
        }
      ],
      "name": "OwnershipTransferred",
      "type": "event"
    }
  ],
  "bytecode": "0x606060405234156200001057600080fd5b336000806101000a81548173ffffffffffffffffffffffffffffffffffffffff021916908373ffffffffffffffffffffffffffffffffffffffff160217905550620000796000600102600080600102620000806401000000000262001982176401000000009004565b50620001f2565b60006200008c6200014c565b600060806040519081016040528087600019168152602001868152602001856000191681526020014281525091506001808054806001018281620000d191906200017b565b91600052602060002090600402016000859091909150600082015181600001906000191690556020820151816001015560408201518160020190600019169055606082015181600301555050039050806004600088600019166000191681526020019081526020016000208190555080925050509392505050565b608060405190810160405280600080191681526020016000815260200160008019168152602001600081525090565b815481835581811511620001ab57600402816004028360005260206000209182019101620001aa9190620001b0565b5b505050565b620001ef91905b80821115620001eb5760008082016000905560018201600090556002820160009055600382016000905550600401620001b7565b5090565b90565b611cec80620002026000396000f3006060604052600436106100e6576000357c0100000000000000000000000000000000000000000000000000000000900463ffffffff168063072e9cb1146100eb5780632686ce591461012857806333ea3dc81461017d5780637bb963e11461028c5780637cd20b2c146102c75780638da5cb5b14610318578063948165111461036d5780639ace38c2146104e6578063a1ab609b14610542578063ad966a0314610597578063b5c604ff14610637578063bf6a8f9c14610660578063bffee9b6146106d9578063e8c8259b1461079a578063e9daef6614610955578063f2fde38b146109a6575b600080fd5b34156100f657600080fd5b61010c60048080359060200190919050506109df565b604051808260ff1660ff16815260200191505060405180910390f35b341561013357600080fd5b61013b6109ff565b604051808273ffffffffffffffffffffffffffffffffffffffff1673ffffffffffffffffffffffffffffffffffffffff16815260200191505060405180910390f35b341561018857600080fd5b61019e6004808035906020019091905050610a25565b604051808060200184815260200180602001838103835286818151815260200191508051906020019080838360005b838110156101e85780820151818401526020810190506101cd565b50505050905090810190601f1680156102155780820380516001836020036101000a031916815260200191505b50838103825284818151815260200191508051906020019080838360005b8381101561024e578082015181840152602081019050610233565b50505050905090810190601f16801561027b5780820380516001836020036101000a031916815260200191505b509550505050505060405180910390f35b341561029757600080fd5b6102b1600480803560001916906020019091905050610acf565b6040518082815260200191505060405180910390f35b34156102d257600080fd5b6102fe600480803573ffffffffffffffffffffffffffffffffffffffff16906020019091905050610ae7565b604051808215151515815260200191505060405180910390f35b341561032357600080fd5b61032b610b8a565b604051808273ffffffffffffffffffffffffffffffffffffffff1673ffffffffffffffffffffffffffffffffffffffff16815260200191505060405180910390f35b341561037857600080fd5b6104cc600480803590602001908201803590602001908080601f016020809104026020016040519081016040528093929190818152602001838380828437820191505050505050919080359060200190820180359060200190808060200260200160405190810160405280939291908181526020018383602002808284378201915050505050509190803573ffffffffffffffffffffffffffffffffffffffff1690602001909190803573ffffffffffffffffffffffffffffffffffffffff1690602001909190803590602001908201803590602001908080601f0160208091040260200160405190810160405280939291908181526020018383808284378201915050505050509190803590602001908201803590602001908080601f01602080910402602001604051908101604052809392919081815260200183838082843782019150505050505091905050610baf565b604051808215151515815260200191505060405180910390f35b34156104f157600080fd5b6105076004808035906020019091905050610da0565b604051808560001916600019168152602001848152602001836000191660001916815260200182815260200194505050505060405180910390f35b341561054d57600080fd5b610555610ddf565b604051808273ffffffffffffffffffffffffffffffffffffffff1673ffffffffffffffffffffffffffffffffffffffff16815260200191505060405180910390f35b34156105a257600080fd5b6105bc600480803560001916906020019091905050610e05565b6040518080602001828103825283818151815260200191508051906020019080838360005b838110156105fc5780820151818401526020810190506105e1565b50505050905090810190601f1680156106295780820380516001836020036101000a031916815260200191505b509250505060405180910390f35b341561064257600080fd5b61064a610ff2565b6040518082815260200191505060405180910390f35b341561066b57600080fd5b6106bb600480803590602001908201803590602001908080601f01602080910402602001604051908101604052809392919081815260200183838082843782019150505050505091905050611001565b60405180826000191660001916815260200191505060405180910390f35b34156106e457600080fd5b610780600480803590602001908201803590602001908080601f0160208091040260200160405190810160405280939291908181526020018383808284378201915050505050509190803590602001909190803590602001908201803590602001908080601f01602080910402602001604051908101604052809392919081815260200183838082843782019150505050505091905050611025565b604051808215151515815260200191505060405180910390f35b34156107a557600080fd5b6107bf600480803560001916906020019091905050611791565b6040518086600019166000191681526020018573ffffffffffffffffffffffffffffffffffffffff1673ffffffffffffffffffffffffffffffffffffffff1681526020018473ffffffffffffffffffffffffffffffffffffffff1673ffffffffffffffffffffffffffffffffffffffff16815260200180602001806020018381038352858181546001816001161561010002031660029004815260200191508054600181600116156101000203166002900480156108be5780601f10610893576101008083540402835291602001916108be565b820191906000526020600020905b8154815290600101906020018083116108a157829003601f168201915b50508381038252848181546001816001161561010002031660029004815260200191508054600181600116156101000203166002900480156109415780601f1061091657610100808354040283529160200191610941565b820191906000526020600020905b81548152906001019060200180831161092457829003601f168201915b505097505050505050505060405180910390f35b341561096057600080fd5b61098c600480803573ffffffffffffffffffffffffffffffffffffffff16906020019091905050611805565b604051808215151515815260200191505060405180910390f35b34156109b157600080fd5b6109dd600480803573ffffffffffffffffffffffffffffffffffffffff169060200190919050506118a8565b005b60056020528060005260406000206000915054906101000a900460ff1681565b600260009054906101000a900473ffffffffffffffffffffffffffffffffffffffff1681565b610a2d611a66565b6000610a37611a66565b610a3f611a7a565b600185815481101515610a4e57fe5b906000526020600020906004020160806040519081016040529081600082015460001916600019168152602001600182015481526020016002820154600019166000191681526020016003820154815250509050610aaf8160000151610e05565b935080602001519250610ac58160400151610e05565b9150509193909250565b60046020528060005260406000206000915090505481565b60008060009054906101000a900473ffffffffffffffffffffffffffffffffffffffff1673ffffffffffffffffffffffffffffffffffffffff163373ffffffffffffffffffffffffffffffffffffffff16141515610b4457600080fd5b81600260006101000a81548173ffffffffffffffffffffffffffffffffffffffff021916908373ffffffffffffffffffffffffffffffffffffffff160217905550919050565b6000809054906101000a900473ffffffffffffffffffffffffffffffffffffffff1681565b600080610bba611aa9565b6000809054906101000a900473ffffffffffffffffffffffffffffffffffffffff1673ffffffffffffffffffffffffffffffffffffffff163373ffffffffffffffffffffffffffffffffffffffff16141515610c1557600080fd5b610c1e89611001565b915060c060405190810160405280836000191681526020018873ffffffffffffffffffffffffffffffffffffffff1681526020018773ffffffffffffffffffffffffffffffffffffffff168152602001898152602001868152602001858152509050806006600084600019166000191681526020019081526020016000206000820151816000019060001916905560208201518160010160006101000a81548173ffffffffffffffffffffffffffffffffffffffff021916908373ffffffffffffffffffffffffffffffffffffffff16021790555060408201518160020160006101000a81548173ffffffffffffffffffffffffffffffffffffffff021916908373ffffffffffffffffffffffffffffffffffffffff1602179055506060820151816003019080519060200190610d56929190611b21565b506080820151816004019080519060200190610d73929190611b6e565b5060a0820151816005019080519060200190610d90929190611b6e565b5090505050509695505050505050565b600181815481101515610daf57fe5b90600052602060002090600402016000915090508060000154908060010154908060020154908060030154905084565b600360009054906101000a900473ffffffffffffffffffffffffffffffffffffffff1681565b610e0d611a66565b610e15611bee565b6000806000610e22611bee565b6020604051805910610e315750595b9080825280601f01601f1916602001820160405250945060009350600092505b6020831015610f0f578260080260020a876001900402600102915060007f010000000000000000000000000000000000000000000000000000000000000002827effffffffffffffffffffffffffffffffffffffffffffffffffffffffffffff1916141515610f0257818585815181101515610ec957fe5b9060200101907effffffffffffffffffffffffffffffffffffffffffffffffffffffffffffff1916908160001a90535083806001019450505b8280600101935050610e51565b83604051805910610f1d5750595b9080825280601f01601f19166020018201604052509050600092505b83831015610fe5578483815181101515610f4f57fe5b9060200101517f010000000000000000000000000000000000000000000000000000000000000090047f0100000000000000000000000000000000000000000000000000000000000000028184815181101515610fa857fe5b9060200101907effffffffffffffffffffffffffffffffffffffffffffffffffffffffffffff1916908160001a9053508280600101935050610f39565b8095505050505050919050565b60006001808054905003905090565b600080825114156110185760006001029050611020565b602082015190505b919050565b600080600080611033611aa9565b60008060009054906101000a900473ffffffffffffffffffffffffffffffffffffffff1673ffffffffffffffffffffffffffffffffffffffff163373ffffffffffffffffffffffffffffffffffffffff1614151561109057600080fd5b61109989611001565b94506110a487611001565b9350600060046000876000191660001916815260200190815260200160002054111515156110d157600080fd5b6110dc858986611982565b925087837fff55ed3ce151358eca857f39a3a8e3c5178eaeed3a365eb97193576a83399cd460405160405180910390a3600260009054906101000a900473ffffffffffffffffffffffffffffffffffffffff1673ffffffffffffffffffffffffffffffffffffffff16637e1f2bb8896000604051602001526040518263ffffffff167c010000000000000000000000000000000000000000000000000000000002815260040180828152602001915050602060405180830381600087803b15156111a557600080fd5b6102c65a03f115156111b657600080fd5b505050604051805190505060066000856000191660001916815260200190815260200160002060c060405190810160405290816000820154600019166000191681526020016001820160009054906101000a900473ffffffffffffffffffffffffffffffffffffffff1673ffffffffffffffffffffffffffffffffffffffff1673ffffffffffffffffffffffffffffffffffffffff1681526020016002820160009054906101000a900473ffffffffffffffffffffffffffffffffffffffff1673ffffffffffffffffffffffffffffffffffffffff1673ffffffffffffffffffffffffffffffffffffffff168152602001600382018054806020026020016040519081016040528092919081815260200182805480156112f557602002820191906000526020600020905b8154815260200190600101908083116112e1575b50505050508152602001600482018054600181600116156101000203166002900480601f0160208091040260200160405190810160405280929190818152602001828054600181600116156101000203166002900480156113975780601f1061136c57610100808354040283529160200191611397565b820191906000526020600020905b81548152906001019060200180831161137a57829003601f168201915b50505050508152602001600582018054600181600116156101000203166002900480601f0160208091040260200160405190810160405280929190818152602001828054600181600116156101000203166002900480156114395780601f1061140e57610100808354040283529160200191611439565b820191906000526020600020905b81548152906001019060200180831161141c57829003601f168201915b5050505050815250509150600360009054906101000a900473ffffffffffffffffffffffffffffffffffffffff1673ffffffffffffffffffffffffffffffffffffffff166369c672478984606001516000604051602001526040518363ffffffff167c01000000000000000000000000000000000000000000000000000000000281526004018083815260200180602001828103825283818151815260200191508051906020019060200280838360005b838110156115055780820151818401526020810190506114ea565b505050509050019350505050602060405180830381600087803b151561152a57600080fd5b6102c65a03f1151561153b57600080fd5b5050506040518051905090507fffffffffffffffffffffffffffffffffffffffffffffffffffffffffffffffff8114151561178157600260009054906101000a900473ffffffffffffffffffffffffffffffffffffffff1673ffffffffffffffffffffffffffffffffffffffff1663bec3fa178360400151836000604051602001526040518363ffffffff167c0100000000000000000000000000000000000000000000000000000000028152600401808373ffffffffffffffffffffffffffffffffffffffff1673ffffffffffffffffffffffffffffffffffffffff16815260200182815260200192505050602060405180830381600087803b151561164157600080fd5b6102c65a03f1151561165257600080fd5b5050506040518051905050600260009054906101000a900473ffffffffffffffffffffffffffffffffffffffff1673ffffffffffffffffffffffffffffffffffffffff1663bec3fa1783602001516116aa8b85611a4a565b6000604051602001526040518363ffffffff167c0100000000000000000000000000000000000000000000000000000000028152600401808373ffffffffffffffffffffffffffffffffffffffff1673ffffffffffffffffffffffffffffffffffffffff16815260200182815260200192505050602060405180830381600087803b151561173757600080fd5b6102c65a03f1151561174857600080fd5b505050604051805190505060016005600085815260200190815260200160002060006101000a81548160ff021916908360ff1602179055505b6001955050505050509392505050565b60066020528060005260406000206000915090508060000154908060010160009054906101000a900473ffffffffffffffffffffffffffffffffffffffff16908060020160009054906101000a900473ffffffffffffffffffffffffffffffffffffffff1690806004019080600501905085565b60008060009054906101000a900473ffffffffffffffffffffffffffffffffffffffff1673ffffffffffffffffffffffffffffffffffffffff163373ffffffffffffffffffffffffffffffffffffffff1614151561186257600080fd5b81600360006101000a81548173ffffffffffffffffffffffffffffffffffffffff021916908373ffffffffffffffffffffffffffffffffffffffff160217905550919050565b6000809054906101000a900473ffffffffffffffffffffffffffffffffffffffff1673ffffffffffffffffffffffffffffffffffffffff163373ffffffffffffffffffffffffffffffffffffffff1614151561190357600080fd5b600073ffffffffffffffffffffffffffffffffffffffff168173ffffffffffffffffffffffffffffffffffffffff161415151561193f57600080fd5b806000806101000a81548173ffffffffffffffffffffffffffffffffffffffff021916908373ffffffffffffffffffffffffffffffffffffffff16021790555050565b600061198c611a7a565b6000608060405190810160405280876000191681526020018681526020018560001916815260200142815250915060018080548060010182816119cf9190611c02565b91600052602060002090600402016000859091909150600082015181600001906000191690556020820151816001015560408201518160020190600019169055606082015181600301555050039050806004600088600019166000191681526020019081526020016000208190555080925050509392505050565b6000828211151515611a5b57600080fd5b818303905092915050565b602060405190810160405280600081525090565b608060405190810160405280600080191681526020016000815260200160008019168152602001600081525090565b60c06040519081016040528060008019168152602001600073ffffffffffffffffffffffffffffffffffffffff168152602001600073ffffffffffffffffffffffffffffffffffffffff168152602001611b01611c34565b8152602001611b0e611c48565b8152602001611b1b611c48565b81525090565b828054828255906000526020600020908101928215611b5d579160200282015b82811115611b5c578251825591602001919060010190611b41565b5b509050611b6a9190611c5c565b5090565b828054600181600116156101000203166002900490600052602060002090601f016020900481019282601f10611baf57805160ff1916838001178555611bdd565b82800160010185558215611bdd579182015b82811115611bdc578251825591602001919060010190611bc1565b5b509050611bea9190611c5c565b5090565b602060405190810160405280600081525090565b815481835581811511611c2f57600402816004028360005260206000209182019101611c2e9190611c81565b5b505050565b602060405190810160405280600081525090565b602060405190810160405280600081525090565b611c7e91905b80821115611c7a576000816000905550600101611c62565b5090565b90565b611cbd91905b80821115611cb95760008082016000905560018201600090556002820160009055600382016000905550600401611c87565b5090565b905600a165627a7a7230582072e854fc8d0f04cee1c3c97491ef615b9d4ff68970fcf0aad2bba08bce3757ce0029",
  "source": "pragma solidity ^0.4.18;\n\n\nimport \"./AccessControl.sol\";\nimport \"./IndifiCoin.sol\";\nimport \"./SplitContract.sol\";\n\n\ncontract EscrowTransactions is AccessControl {\n    \n    event NewTransaction(uint256 indexed transactionId, uint256 indexed amount);\n    \n    struct Transaction {\n        bytes32 transactionHash;\n        uint256 amount;\n        bytes32 virtualAccountNumber;\n        uint timestamp;\n    }\n\n    struct VirtualAccount {\n        bytes32 virtualAccountNumber;\n        address borrowerAddress;\n        address lenderAddress;\n        uint[] policyDetails;\n        string bankAccountNumber;\n        string ifscCode;\n    }\n\n    Transaction[] public transactions;\n    \n    IndifiCoin public indifiCoin;\n    SplitContract public splitContract;\n    \n    // -------------------------------------------------------------------------\n    // To keep the position of any transaction in the transactions array\n    // key: bytes32 - bytes32 representation of the sha256 hash of the transaction\n    // value: uint256 - index of the Transaction struct in transactions array\n    // -------------------------------------------------------------------------\n    mapping(bytes32 => uint256) public transactionHashToIndex;\n    \n    // -------------------------------------------------------------------------\n    // To keep the status of the incoming transaction w.r.t settlement\n    // 0 - split not done or not such transaction\n    // 1 - split in coin contract done i.e. coins have been moved by indifi to lender and borrower respectively\n    // 2 - settlement request sent to bank\n    // 3 - settlement done\n    // -------------------------------------------------------------------------\n    mapping(uint256 => uint8) public transactionIdToStatus;\n\n\n    // -------------------------------------------------------------------------\n    // To keep virtual account details againt virtual account number during onboarding\n    // key: bytes32 - bytes32 representation of the virtual account number\n    // value: VirtualAccount - virtual account details\n    // -------------------------------------------------------------------------\n    mapping(bytes32 => VirtualAccount) public VirtualAccounts;\n    \n    function EscrowTransactions() public {\n        _createTransaction(0x0, 0, 0x0);\n    }\n    \n    function updateIndifiCoinAddress(address _indifiCoinAddress) public onlyOwner returns (bool) {\n        indifiCoin = IndifiCoin(_indifiCoinAddress);\n    }\n    \n    function updateSplitContractAddress(address _splitContractAddress) public onlyOwner returns (bool) {\n        splitContract = SplitContract(_splitContractAddress);\n    }\n    \n    function updateVirtualAccountConfiguration(\n        string _virtualAccountNumber, \n        uint256[] _policyDetails,\n        address _borrower,\n        address _lender,\n        string _bankAccountNumber,\n        string _ifscCode\n    ) public onlyOwner returns (bool) \n    {\n        bytes32 virtualAccountNumberBytes = _stringToBytes32(_virtualAccountNumber);\n        VirtualAccount memory va = VirtualAccount({\n            virtualAccountNumber: virtualAccountNumberBytes,\n            borrowerAddress: _borrower,\n            lenderAddress: _lender,\n            policyDetails: _policyDetails,\n            bankAccountNumber: _bankAccountNumber,\n            ifscCode: _ifscCode\n        });\n        VirtualAccounts[virtualAccountNumberBytes] = va;\n    }\n    \n    function newEscrowTransaction(string _hash, uint256 amount, string _vAccNo) public onlyOwner returns(bool) {\n        // check if this transaction is new by comparing hash\n        bytes32 hashBytes = _stringToBytes32(_hash);\n        bytes32 vAccNoBytes = _stringToBytes32(_vAccNo);\n        \n        require(transactionHashToIndex[hashBytes] <= 0);\n        \n        // create new Transaction object and save\n        uint256 id = _createTransaction(hashBytes, amount, vAccNoBytes);\n        \n        // emit new transaction created\n        NewTransaction(id, amount);\n\n        // allocate coins equal to the amount into owners account\n        indifiCoin.createTokens(amount);\n        VirtualAccount memory va = VirtualAccounts[vAccNoBytes];\n        \n        int256 lenderShare = splitContract.split(amount, va.policyDetails);\n        if (lenderShare != -1) {\n            indifiCoin.transferTokens(va.lenderAddress, uint256(lenderShare));\n            indifiCoin.transferTokens(va.borrowerAddress, safeSub(amount, uint256(lenderShare)));\n            transactionIdToStatus[id] = 1; // split done\n        }\n        \n        return true;\n    }\n    \n    function getTotalTransactions() public view returns (uint256) {\n        return transactions.length - 1;\n    }\n    \n    function _createTransaction(bytes32 _hashBytes, uint256 amount, bytes32 _vAccNoBytes) internal returns (uint256) {\n        Transaction memory t = Transaction({\n            transactionHash: _hashBytes,\n            amount: amount,\n            virtualAccountNumber: _vAccNoBytes,\n            timestamp: now\n        });\n        \n        uint256 id = transactions.push(t) - 1;\n        transactionHashToIndex[_hashBytes] = id;\n        \n        return id;\n    }\n\n    function getTransaction(uint256 id) public view returns(\n        string transactionHash,\n        uint256 amount,\n        string virtualAccountNumber\n    ) {\n        Transaction memory t = transactions[id];\n        transactionHash = _bytes32ToString(t.transactionHash);\n        amount = t.amount;\n        virtualAccountNumber = _bytes32ToString(t.virtualAccountNumber);\n    }\n}\n\n/*\n * TODO: add function to get currently set policy and make virtualAccountSplitPolicyMapping internal\n*/",
  "sourcePath": "/Users/aditya/Documents/indifi/blockchain/escrow-ethereum/contracts/EscrowTransactions.sol",
  "compiler": {
    "name": "solc",
    "version": "0.4.18+commit.9cf6e910.Emscripten.clang"
  },
  "schemaVersion": "1.0.1",
  "updatedAt": "2018-03-19T13:53:01.577Z"
}