{
  "contractName": "EscrowTransactions",
  "abi": [
    {
      "constant": true,
      "inputs": [
        {
          "name": "",
          "type": "uint256"
        }
      ],
      "name": "transactionIdToLenderSharesId",
      "outputs": [
        {
          "name": "",
          "type": "uint256"
        }
      ],
      "payable": false,
      "stateMutability": "view",
      "type": "function"
    },
    {
      "constant": true,
      "inputs": [
        {
          "name": "",
          "type": "uint256"
        }
      ],
      "name": "transactionIdToBorrowerSharesId",
      "outputs": [
        {
          "name": "",
          "type": "uint256"
        }
      ],
      "payable": false,
      "stateMutability": "view",
      "type": "function"
    },
    {
      "constant": true,
      "inputs": [],
      "name": "indifiCoin",
      "outputs": [
        {
          "name": "",
          "type": "address"
        }
      ],
      "payable": false,
      "stateMutability": "view",
      "type": "function"
    },
    {
      "constant": true,
      "inputs": [
        {
          "name": "id",
          "type": "uint256"
        }
      ],
      "name": "getTransaction",
      "outputs": [
        {
          "name": "transactionHash",
          "type": "string"
        },
        {
          "name": "amount",
          "type": "uint256"
        },
        {
          "name": "virtualAccountNumber",
          "type": "string"
        },
        {
          "name": "borrowerShareId",
          "type": "uint256"
        },
        {
          "name": "lenderShareId",
          "type": "uint256"
        },
        {
          "name": "timestamp",
          "type": "uint256"
        }
      ],
      "payable": false,
      "stateMutability": "view",
      "type": "function"
    },
    {
      "constant": true,
      "inputs": [
        {
          "name": "",
          "type": "uint256"
        }
      ],
      "name": "splitTransactions",
      "outputs": [
        {
          "name": "shareAmount",
          "type": "uint256"
        },
        {
          "name": "status",
          "type": "uint8"
        }
      ],
      "payable": false,
      "stateMutability": "view",
      "type": "function"
    },
    {
      "constant": true,
      "inputs": [
        {
          "name": "",
          "type": "uint256"
        }
      ],
      "name": "virtualAccounts",
      "outputs": [
        {
          "name": "virtualAccountNumber",
          "type": "bytes32"
        },
        {
          "name": "borrowerAddress",
          "type": "address"
        },
        {
          "name": "lenderAddress",
          "type": "address"
        },
        {
          "name": "bankAccountNumber",
          "type": "bytes32"
        },
        {
          "name": "ifscCode",
          "type": "bytes32"
        }
      ],
      "payable": false,
      "stateMutability": "view",
      "type": "function"
    },
    {
      "constant": true,
      "inputs": [
        {
          "name": "",
          "type": "bytes32"
        }
      ],
      "name": "virtualAccountsToIndex",
      "outputs": [
        {
          "name": "",
          "type": "uint32"
        }
      ],
      "payable": false,
      "stateMutability": "view",
      "type": "function"
    },
    {
      "constant": true,
      "inputs": [
        {
          "name": "",
          "type": "bytes32"
        }
      ],
      "name": "transactionHashToIndex",
      "outputs": [
        {
          "name": "",
          "type": "uint256"
        }
      ],
      "payable": false,
      "stateMutability": "view",
      "type": "function"
    },
    {
      "constant": false,
      "inputs": [
        {
          "name": "_indifiCoinAddress",
          "type": "address"
        }
      ],
      "name": "updateIndifiCoinAddress",
      "outputs": [
        {
          "name": "",
          "type": "bool"
        }
      ],
      "payable": false,
      "stateMutability": "nonpayable",
      "type": "function"
    },
    {
      "constant": true,
      "inputs": [],
      "name": "owner",
      "outputs": [
        {
          "name": "",
          "type": "address"
        }
      ],
      "payable": false,
      "stateMutability": "view",
      "type": "function"
    },
    {
      "constant": false,
      "inputs": [
        {
          "name": "ids",
          "type": "uint256[]"
        }
      ],
      "name": "updateSplitStatusToSentForSettlement",
      "outputs": [
        {
          "name": "",
          "type": "bool"
        }
      ],
      "payable": false,
      "stateMutability": "nonpayable",
      "type": "function"
    },
    {
      "constant": false,
      "inputs": [
        {
          "name": "_virtualAccountNumber",
          "type": "string"
        },
        {
          "name": "_policyDetails",
          "type": "uint256[]"
        },
        {
          "name": "_borrower",
          "type": "address"
        },
        {
          "name": "_lender",
          "type": "address"
        },
        {
          "name": "_bankAccountNumber",
          "type": "string"
        },
        {
          "name": "_ifscCode",
          "type": "string"
        }
      ],
      "name": "updateVirtualAccountConfiguration",
      "outputs": [
        {
          "name": "",
          "type": "uint32"
        }
      ],
      "payable": false,
      "stateMutability": "nonpayable",
      "type": "function"
    },
    {
      "constant": true,
      "inputs": [
        {
          "name": "",
          "type": "uint256"
        }
      ],
      "name": "transactions",
      "outputs": [
        {
          "name": "transactionHash",
          "type": "bytes32"
        },
        {
          "name": "amount",
          "type": "uint256"
        },
        {
          "name": "virtualAccountNumber",
          "type": "bytes32"
        },
        {
          "name": "timestamp",
          "type": "uint256"
        }
      ],
      "payable": false,
      "stateMutability": "view",
      "type": "function"
    },
    {
      "constant": true,
      "inputs": [],
      "name": "splitContract",
      "outputs": [
        {
          "name": "",
          "type": "address"
        }
      ],
      "payable": false,
      "stateMutability": "view",
      "type": "function"
    },
    {
      "constant": false,
      "inputs": [
        {
          "name": "id",
          "type": "uint256"
        }
      ],
      "name": "splitEscrowTransaction",
      "outputs": [
        {
          "name": "",
          "type": "bool"
        }
      ],
      "payable": false,
      "stateMutability": "nonpayable",
      "type": "function"
    },
    {
      "constant": true,
      "inputs": [
        {
          "name": "x",
          "type": "bytes32"
        }
      ],
      "name": "_bytes32ToString",
      "outputs": [
        {
          "name": "",
          "type": "string"
        }
      ],
      "payable": false,
      "stateMutability": "pure",
      "type": "function"
    },
    {
      "constant": true,
      "inputs": [],
      "name": "getTotalTransactions",
      "outputs": [
        {
          "name": "",
          "type": "uint256"
        }
      ],
      "payable": false,
      "stateMutability": "view",
      "type": "function"
    },
    {
      "constant": true,
      "inputs": [
        {
          "name": "s",
          "type": "string"
        }
      ],
      "name": "_stringToBytes32",
      "outputs": [
        {
          "name": "result",
          "type": "bytes32"
        }
      ],
      "payable": false,
      "stateMutability": "pure",
      "type": "function"
    },
    {
      "constant": false,
      "inputs": [
        {
          "name": "_hash",
          "type": "string"
        },
        {
          "name": "amount",
          "type": "uint256"
        },
        {
          "name": "_vAccNo",
          "type": "string"
        }
      ],
      "name": "newEscrowTransaction",
      "outputs": [
        {
          "name": "",
          "type": "bool"
        }
      ],
      "payable": false,
      "stateMutability": "nonpayable",
      "type": "function"
    },
    {
      "constant": false,
      "inputs": [
        {
          "name": "ids",
          "type": "uint256[]"
        }
      ],
      "name": "updateSplitStatusToSettled",
      "outputs": [
        {
          "name": "",
          "type": "bool"
        }
      ],
      "payable": false,
      "stateMutability": "nonpayable",
      "type": "function"
    },
    {
      "constant": true,
      "inputs": [],
      "name": "getTotalVirtualAccounts",
      "outputs": [
        {
          "name": "",
          "type": "uint256"
        }
      ],
      "payable": false,
      "stateMutability": "view",
      "type": "function"
    },
    {
      "constant": false,
      "inputs": [
        {
          "name": "_splitContractAddress",
          "type": "address"
        }
      ],
      "name": "updateSplitContractAddress",
      "outputs": [
        {
          "name": "",
          "type": "bool"
        }
      ],
      "payable": false,
      "stateMutability": "nonpayable",
      "type": "function"
    },
    {
      "constant": false,
      "inputs": [
        {
          "name": "_newOwner",
          "type": "address"
        }
      ],
      "name": "transferOwnership",
      "outputs": [],
      "payable": false,
      "stateMutability": "nonpayable",
      "type": "function"
    },
    {
      "constant": true,
      "inputs": [
        {
          "name": "id",
          "type": "uint32"
        }
      ],
      "name": "getVirtualAccount",
      "outputs": [
        {
          "name": "virtualAccountNumber",
          "type": "string"
        },
        {
          "name": "borrowerAddress",
          "type": "address"
        },
        {
          "name": "lenderAddress",
          "type": "address"
        },
        {
          "name": "policyDetails",
          "type": "uint256[]"
        },
        {
          "name": "bankAccountNumber",
          "type": "string"
        },
        {
          "name": "ifscCode",
          "type": "string"
        }
      ],
      "payable": false,
      "stateMutability": "view",
      "type": "function"
    },
    {
      "inputs": [],
      "payable": false,
      "stateMutability": "nonpayable",
      "type": "constructor"
    },
    {
      "anonymous": false,
      "inputs": [
        {
          "indexed": true,
          "name": "transactionId",
          "type": "uint256"
        },
        {
          "indexed": true,
          "name": "amount",
          "type": "uint256"
        }
      ],
      "name": "NewTransaction",
      "type": "event"
    },
    {
      "anonymous": false,
      "inputs": [
        {
          "indexed": true,
          "name": "_from",
          "type": "address"
        },
        {
          "indexed": true,
          "name": "_to",
          "type": "address"
        }
      ],
      "name": "OwnershipTransferred",
      "type": "event"
    }
  ],
  "bytecode": "0x606060405234156200001057600080fd5b336000806101000a81548173ffffffffffffffffffffffffffffffffffffffff021916908373ffffffffffffffffffffffffffffffffffffffff16021790555062000079600060010260008060010262000117640100000000026200231f176401000000009004565b50620000ef602060405190810160405280600081525060026040518059106200009f5750595b908082528060200260200182016040525060008060206040519081016040528060008152506020604051908101604052806000815250620001e464010000000002620011a6176401000000009004565b506200011060006200046d6401000000000262002292176401000000009004565b506200084e565b60006200012362000524565b6000608060405190810160405280876000191681526020018681526020018560001916815260200142815250915060016003805480600101828162000169919062000553565b91600052602060002090600402016000859091909150600082015181600001906000191690556020820151816001015560408201518160020190600019169055606082015181600301555050039050806007600088600019166000191681526020019081526020016000208190555080925050509392505050565b600080620001f162000588565b60008060009054906101000a900473ffffffffffffffffffffffffffffffffffffffff1673ffffffffffffffffffffffffffffffffffffffff163373ffffffffffffffffffffffffffffffffffffffff161415156200024f57600080fd5b6200026e8a620004fe6401000000000262001c28176401000000009004565b925060c060405190810160405280846000191681526020018973ffffffffffffffffffffffffffffffffffffffff1681526020018873ffffffffffffffffffffffffffffffffffffffff1681526020018a8152602001620002e388620004fe6401000000000262001c28176401000000009004565b6000191681526020016200030b87620004fe6401000000000262001c28176401000000009004565b60001916815250915060018080548060010182816200032b9190620005fc565b916000526020600020906006020160008590919091506000820151816000019060001916905560208201518160010160006101000a81548173ffffffffffffffffffffffffffffffffffffffff021916908373ffffffffffffffffffffffffffffffffffffffff16021790555060408201518160020160006101000a81548173ffffffffffffffffffffffffffffffffffffffff021916908373ffffffffffffffffffffffffffffffffffffffff1602179055506060820151816003019080519060200190620003fd92919062000631565b506080820151816004019060001916905560a0820151816005019060001916905550500390508060026000856000191660001916815260200190815260200160002060006101000a81548163ffffffff021916908363ffffffff1602179055508093505050509695505050505050565b60006200047962000683565b60006040805190810160405280858152602001600160ff168152509150600160048054806001018281620004ae9190620006a0565b916000526020600020906002020160008590919091506000820151816000015560208201518160010160006101000a81548160ff021916908360ff16021790555050500390508092505050919050565b600080825114156200051757600060010290506200051f565b602082015190505b919050565b608060405190810160405280600080191681526020016000815260200160008019168152602001600081525090565b8154818355818115116200058357600402816004028360005260206000209182019101620005829190620006d5565b5b505050565b60c06040519081016040528060008019168152602001600073ffffffffffffffffffffffffffffffffffffffff168152602001600073ffffffffffffffffffffffffffffffffffffffff168152602001620005e262000717565b815260200160008019168152602001600080191681525090565b8154818355818115116200062c576006028160060283600052602060002091820191016200062b91906200072b565b5b505050565b82805482825590600052602060002090810192821562000670579160200282015b828111156200066f57825182559160200191906001019062000652565b5b5090506200067f9190620007c5565b5090565b604080519081016040528060008152602001600060ff1681525090565b815481835581811511620006d057600202816002028360005260206000209182019101620006cf9190620007ed565b5b505050565b6200071491905b80821115620007105760008082016000905560018201600090556002820160009055600382016000905550600401620006dc565b5090565b90565b602060405190810160405280600081525090565b620007c291905b80821115620007be576000808201600090556001820160006101000a81549073ffffffffffffffffffffffffffffffffffffffff02191690556002820160006101000a81549073ffffffffffffffffffffffffffffffffffffffff0219169055600382016000620007a491906200082b565b600482016000905560058201600090555060060162000732565b5090565b90565b620007ea91905b80821115620007e6576000816000905550600101620007cc565b5090565b90565b6200082891905b8082111562000824576000808201600090556001820160006101000a81549060ff021916905550600201620007f4565b5090565b90565b50805460008255906000526020600020908101906200084b9190620007c5565b50565b61275a806200085e6000396000f30060606040526004361061013e576000357c0100000000000000000000000000000000000000000000000000000000900463ffffffff1680630b55098614610143578063249fa5ba1461017a5780632686ce59146101b157806333ea3dc8146102065780633ce72f151461032a5780635aa828641461036e57806377d60bcb146104315780637bb963e1146104785780637cd20b2c146104b35780638da5cb5b14610504578063929f6baf1461055957806394816511146105cb5780639ace38c21461074c578063a1ab609b146107a8578063a2ba513b146107fd578063ad966a0314610838578063b5c604ff146108d8578063bf6a8f9c14610901578063bffee9b61461097a578063c9de205214610a3b578063e7a30f9714610aad578063e9daef6614610ad6578063f2fde38b14610b27578063f422c1cd14610b60575b600080fd5b341561014e57600080fd5b6101646004808035906020019091905050610d88565b6040518082815260200191505060405180910390f35b341561018557600080fd5b61019b6004808035906020019091905050610da0565b6040518082815260200191505060405180910390f35b34156101bc57600080fd5b6101c4610db8565b604051808273ffffffffffffffffffffffffffffffffffffffff1673ffffffffffffffffffffffffffffffffffffffff16815260200191505060405180910390f35b341561021157600080fd5b6102276004808035906020019091905050610dde565b604051808060200187815260200180602001868152602001858152602001848152602001838103835289818151815260200191508051906020019080838360005b83811015610283578082015181840152602081019050610268565b50505050905090810190601f1680156102b05780820380516001836020036101000a031916815260200191505b50838103825287818151815260200191508051906020019080838360005b838110156102e95780820151818401526020810190506102ce565b50505050905090810190601f1680156103165780820380516001836020036101000a031916815260200191505b509850505050505050505060405180910390f35b341561033557600080fd5b61034b6004808035906020019091905050610ec2565b604051808381526020018260ff1660ff1681526020019250505060405180910390f35b341561037957600080fd5b61038f6004808035906020019091905050610f02565b6040518086600019166000191681526020018573ffffffffffffffffffffffffffffffffffffffff1673ffffffffffffffffffffffffffffffffffffffff1681526020018473ffffffffffffffffffffffffffffffffffffffff1673ffffffffffffffffffffffffffffffffffffffff168152602001836000191660001916815260200182600019166000191681526020019550505050505060405180910390f35b341561043c57600080fd5b610456600480803560001916906020019091905050610f87565b604051808263ffffffff1663ffffffff16815260200191505060405180910390f35b341561048357600080fd5b61049d600480803560001916906020019091905050610faa565b6040518082815260200191505060405180910390f35b34156104be57600080fd5b6104ea600480803573ffffffffffffffffffffffffffffffffffffffff16906020019091905050610fc2565b604051808215151515815260200191505060405180910390f35b341561050f57600080fd5b610517611065565b604051808273ffffffffffffffffffffffffffffffffffffffff1673ffffffffffffffffffffffffffffffffffffffff16815260200191505060405180910390f35b341561056457600080fd5b6105b160048080359060200190820180359060200190808060200260200160405190810160405280939291908181526020018383602002808284378201915050505050509190505061108a565b604051808215151515815260200191505060405180910390f35b34156105d657600080fd5b61072a600480803590602001908201803590602001908080601f016020809104026020016040519081016040528093929190818152602001838380828437820191505050505050919080359060200190820180359060200190808060200260200160405190810160405280939291908181526020018383602002808284378201915050505050509190803573ffffffffffffffffffffffffffffffffffffffff1690602001909190803573ffffffffffffffffffffffffffffffffffffffff1690602001909190803590602001908201803590602001908080601f0160208091040260200160405190810160405280939291908181526020018383808284378201915050505050509190803590602001908201803590602001908080601f016020809104026020016040519081016040528093929190818152602001838380828437820191505050505050919050506111a6565b604051808263ffffffff1663ffffffff16815260200191505060405180910390f35b341561075757600080fd5b61076d60048080359060200190919050506113e6565b604051808560001916600019168152602001848152602001836000191660001916815260200182815260200194505050505060405180910390f35b34156107b357600080fd5b6107bb611425565b604051808273ffffffffffffffffffffffffffffffffffffffff1673ffffffffffffffffffffffffffffffffffffffff16815260200191505060405180910390f35b341561080857600080fd5b61081e600480803590602001909190505061144b565b604051808215151515815260200191505060405180910390f35b341561084357600080fd5b61085d600480803560001916906020019091905050611a2b565b6040518080602001828103825283818151815260200191508051906020019080838360005b8381101561089d578082015181840152602081019050610882565b50505050905090810190601f1680156108ca5780820380516001836020036101000a031916815260200191505b509250505060405180910390f35b34156108e357600080fd5b6108eb611c18565b6040518082815260200191505060405180910390f35b341561090c57600080fd5b61095c600480803590602001908201803590602001908080601f01602080910402602001604051908101604052809392919081815260200183838082843782019150505050505091905050611c28565b60405180826000191660001916815260200191505060405180910390f35b341561098557600080fd5b610a21600480803590602001908201803590602001908080601f0160208091040260200160405190810160405280939291908181526020018383808284378201915050505050509190803590602001909190803590602001908201803590602001908080601f01602080910402602001604051908101604052809392919081815260200183838082843782019150505050505091905050611c4c565b604051808215151515815260200191505060405180910390f35b3415610a4657600080fd5b610a93600480803590602001908201803590602001908080602002602001604051908101604052809392919081815260200183836020028082843782019150505050505091905050611dec565b604051808215151515815260200191505060405180910390f35b3415610ab857600080fd5b610ac0611f08565b6040518082815260200191505060405180910390f35b3415610ae157600080fd5b610b0d600480803573ffffffffffffffffffffffffffffffffffffffff16906020019091905050611f17565b604051808215151515815260200191505060405180910390f35b3415610b3257600080fd5b610b5e600480803573ffffffffffffffffffffffffffffffffffffffff16906020019091905050611fba565b005b3415610b6b57600080fd5b610b87600480803563ffffffff16906020019091905050612094565b60405180806020018773ffffffffffffffffffffffffffffffffffffffff1673ffffffffffffffffffffffffffffffffffffffff1681526020018673ffffffffffffffffffffffffffffffffffffffff1673ffffffffffffffffffffffffffffffffffffffff16815260200180602001806020018060200185810385528b818151815260200191508051906020019080838360005b83811015610c37578082015181840152602081019050610c1c565b50505050905090810190601f168015610c645780820380516001836020036101000a031916815260200191505b50858103845288818151815260200191508051906020019060200280838360005b83811015610ca0578082015181840152602081019050610c85565b50505050905001858103835287818151815260200191508051906020019080838360005b83811015610cdf578082015181840152602081019050610cc4565b50505050905090810190601f168015610d0c5780820380516001836020036101000a031916815260200191505b50858103825286818151815260200191508051906020019080838360005b83811015610d45578082015181840152602081019050610d2a565b50505050905090810190601f168015610d725780820380516001836020036101000a031916815260200191505b509a505050505050505050505060405180910390f35b60096020528060005260406000206000915090505481565b60086020528060005260406000206000915090505481565b600560009054906101000a900473ffffffffffffffffffffffffffffffffffffffff1681565b610de66123e8565b6000610df06123e8565b6000806000610dfd6123fc565b600388815481101515610e0c57fe5b906000526020600020906004020160806040519081016040529081600082015460001916600019168152602001600182015481526020016002820154600019166000191681526020016003820154815250509050610e6d8160000151611a2b565b965080602001519550610e838160400151611a2b565b94506008600089815260200190815260200160002054935060096000898152602001908152602001600020549250806060015191505091939550919395565b600481815481101515610ed157fe5b90600052602060002090600202016000915090508060000154908060010160009054906101000a900460ff16905082565b600181815481101515610f1157fe5b90600052602060002090600602016000915090508060000154908060010160009054906101000a900473ffffffffffffffffffffffffffffffffffffffff16908060020160009054906101000a900473ffffffffffffffffffffffffffffffffffffffff16908060040154908060050154905085565b60026020528060005260406000206000915054906101000a900463ffffffff1681565b60076020528060005260406000206000915090505481565b60008060009054906101000a900473ffffffffffffffffffffffffffffffffffffffff1673ffffffffffffffffffffffffffffffffffffffff163373ffffffffffffffffffffffffffffffffffffffff1614151561101f57600080fd5b81600560006101000a81548173ffffffffffffffffffffffffffffffffffffffff021916908373ffffffffffffffffffffffffffffffffffffffff160217905550919050565b6000809054906101000a900473ffffffffffffffffffffffffffffffffffffffff1681565b60008061109561242b565b600091505b835182101561119f57600484838151811015156110b357fe5b906020019060200201518154811015156110c957fe5b9060005260206000209060020201604080519081016040529081600082015481526020016001820160009054906101000a900460ff1660ff1660ff168152505090506001816020015160ff161415611192576002816020019060ff16908160ff1681525050806004858481518110151561113f57fe5b9060200190602002015181548110151561115557fe5b90600052602060002090600202016000820151816000015560208201518160010160006101000a81548160ff021916908360ff1602179055509050505b818060010192505061109a565b5050919050565b6000806111b1612448565b60008060009054906101000a900473ffffffffffffffffffffffffffffffffffffffff1673ffffffffffffffffffffffffffffffffffffffff163373ffffffffffffffffffffffffffffffffffffffff1614151561120e57600080fd5b6112178a611c28565b925060c060405190810160405280846000191681526020018973ffffffffffffffffffffffffffffffffffffffff1681526020018873ffffffffffffffffffffffffffffffffffffffff1681526020018a815260200161127688611c28565b60001916815260200161128887611c28565b60001916815250915060018080548060010182816112a691906124ba565b916000526020600020906006020160008590919091506000820151816000019060001916905560208201518160010160006101000a81548173ffffffffffffffffffffffffffffffffffffffff021916908373ffffffffffffffffffffffffffffffffffffffff16021790555060408201518160020160006101000a81548173ffffffffffffffffffffffffffffffffffffffff021916908373ffffffffffffffffffffffffffffffffffffffff16021790555060608201518160030190805190602001906113769291906124ec565b506080820151816004019060001916905560a0820151816005019060001916905550500390508060026000856000191660001916815260200190815260200160002060006101000a81548163ffffffff021916908363ffffffff1602179055508093505050509695505050505050565b6003818154811015156113f557fe5b90600052602060002090600402016000915090508060000154908060010154908060020154908060030154905084565b600660009054906101000a900473ffffffffffffffffffffffffffffffffffffffff1681565b60006114556123fc565b61145d612448565b6000806000806000809054906101000a900473ffffffffffffffffffffffffffffffffffffffff1673ffffffffffffffffffffffffffffffffffffffff163373ffffffffffffffffffffffffffffffffffffffff161415156114be57600080fd5b6003888154811015156114cd57fe5b90600052602060002090600402016080604051908101604052908160008201546000191660001916815260200160018201548152602001600282015460001916600019168152602001600382015481525050955060016002600088604001516000191660001916815260200190815260200160002060009054906101000a900463ffffffff1663ffffffff1681548110151561156557fe5b906000526020600020906006020160c060405190810160405290816000820154600019166000191681526020016001820160009054906101000a900473ffffffffffffffffffffffffffffffffffffffff1673ffffffffffffffffffffffffffffffffffffffff1673ffffffffffffffffffffffffffffffffffffffff1681526020016002820160009054906101000a900473ffffffffffffffffffffffffffffffffffffffff1673ffffffffffffffffffffffffffffffffffffffff1673ffffffffffffffffffffffffffffffffffffffff1681526020016003820180548060200260200160405190810160405280929190818152602001828054801561168c57602002820191906000526020600020905b815481526020019060010190808311611678575b5050505050815260200160048201546000191660001916815260200160058201546000191660001916815250509450600660009054906101000a900473ffffffffffffffffffffffffffffffffffffffff1673ffffffffffffffffffffffffffffffffffffffff166369c67247876020015187606001516000604051602001526040518363ffffffff167c01000000000000000000000000000000000000000000000000000000000281526004018083815260200180602001828103825283818151815260200191508051906020019060200280838360005b83811015611780578082015181840152602081019050611765565b505050509050019350505050602060405180830381600087803b15156117a557600080fd5b6102c65a03f115156117b657600080fd5b5050506040518051905093507fffffffffffffffffffffffffffffffffffffffffffffffffffffffffffffffff84141515611a1c576117f9866020015185612276565b9250600560009054906101000a900473ffffffffffffffffffffffffffffffffffffffff1673ffffffffffffffffffffffffffffffffffffffff1663bec3fa178660400151866000604051602001526040518363ffffffff167c0100000000000000000000000000000000000000000000000000000000028152600401808373ffffffffffffffffffffffffffffffffffffffff1673ffffffffffffffffffffffffffffffffffffffff16815260200182815260200192505050602060405180830381600087803b15156118cc57600080fd5b6102c65a03f115156118dd57600080fd5b5050506040518051905050600560009054906101000a900473ffffffffffffffffffffffffffffffffffffffff1673ffffffffffffffffffffffffffffffffffffffff1663bec3fa178660200151856000604051602001526040518363ffffffff167c0100000000000000000000000000000000000000000000000000000000028152600401808373ffffffffffffffffffffffffffffffffffffffff1673ffffffffffffffffffffffffffffffffffffffff16815260200182815260200192505050602060405180830381600087803b15156119b957600080fd5b6102c65a03f115156119ca57600080fd5b50505060405180519050506119de83612292565b915081600860008a815260200190815260200160002081905550611a0184612292565b905080600960008a8152602001908152602001600020819055505b60019650505050505050919050565b611a336123e8565b611a3b612539565b6000806000611a48612539565b6020604051805910611a575750595b9080825280601f01601f1916602001820160405250945060009350600092505b6020831015611b35578260080260020a876001900402600102915060007f010000000000000000000000000000000000000000000000000000000000000002827effffffffffffffffffffffffffffffffffffffffffffffffffffffffffffff1916141515611b2857818585815181101515611aef57fe5b9060200101907effffffffffffffffffffffffffffffffffffffffffffffffffffffffffffff1916908160001a90535083806001019450505b8280600101935050611a77565b83604051805910611b435750595b9080825280601f01601f19166020018201604052509050600092505b83831015611c0b578483815181101515611b7557fe5b9060200101517f010000000000000000000000000000000000000000000000000000000000000090047f0100000000000000000000000000000000000000000000000000000000000000028184815181101515611bce57fe5b9060200101907effffffffffffffffffffffffffffffffffffffffffffffffffffffffffffff1916908160001a9053508280600101935050611b5f565b8095505050505050919050565b6000600160038054905003905090565b60008082511415611c3f5760006001029050611c47565b602082015190505b919050565b6000806000806000809054906101000a900473ffffffffffffffffffffffffffffffffffffffff1673ffffffffffffffffffffffffffffffffffffffff163373ffffffffffffffffffffffffffffffffffffffff16141515611cad57600080fd5b611cb687611c28565b9250611cc185611c28565b915060006007600085600019166000191681526020019081526020016000205411151515611cee57600080fd5b611cf983878461231f565b905085817fff55ed3ce151358eca857f39a3a8e3c5178eaeed3a365eb97193576a83399cd460405160405180910390a3600560009054906101000a900473ffffffffffffffffffffffffffffffffffffffff1673ffffffffffffffffffffffffffffffffffffffff16637e1f2bb8876000604051602001526040518263ffffffff167c010000000000000000000000000000000000000000000000000000000002815260040180828152602001915050602060405180830381600087803b1515611dc257600080fd5b6102c65a03f11515611dd357600080fd5b5050506040518051905050600193505050509392505050565b600080611df761242b565b600091505b8351821015611f015760048483815181101515611e1557fe5b90602001906020020151815481101515611e2b57fe5b9060005260206000209060020201604080519081016040529081600082015481526020016001820160009054906101000a900460ff1660ff1660ff168152505090506002816020015160ff161415611ef4576003816020019060ff16908160ff16815250508060048584815181101515611ea157fe5b90602001906020020151815481101515611eb757fe5b90600052602060002090600202016000820151816000015560208201518160010160006101000a81548160ff021916908360ff1602179055509050505b8180600101925050611dfc565b5050919050565b60006001808054905003905090565b60008060009054906101000a900473ffffffffffffffffffffffffffffffffffffffff1673ffffffffffffffffffffffffffffffffffffffff163373ffffffffffffffffffffffffffffffffffffffff16141515611f7457600080fd5b81600660006101000a81548173ffffffffffffffffffffffffffffffffffffffff021916908373ffffffffffffffffffffffffffffffffffffffff160217905550919050565b6000809054906101000a900473ffffffffffffffffffffffffffffffffffffffff1673ffffffffffffffffffffffffffffffffffffffff163373ffffffffffffffffffffffffffffffffffffffff1614151561201557600080fd5b600073ffffffffffffffffffffffffffffffffffffffff168173ffffffffffffffffffffffffffffffffffffffff161415151561205157600080fd5b806000806101000a81548173ffffffffffffffffffffffffffffffffffffffff021916908373ffffffffffffffffffffffffffffffffffffffff16021790555050565b61209c6123e8565b6000806120a761254d565b6120af6123e8565b6120b76123e8565b6120bf612448565b60018863ffffffff168154811015156120d457fe5b906000526020600020906006020160c060405190810160405290816000820154600019166000191681526020016001820160009054906101000a900473ffffffffffffffffffffffffffffffffffffffff1673ffffffffffffffffffffffffffffffffffffffff1673ffffffffffffffffffffffffffffffffffffffff1681526020016002820160009054906101000a900473ffffffffffffffffffffffffffffffffffffffff1673ffffffffffffffffffffffffffffffffffffffff1673ffffffffffffffffffffffffffffffffffffffff168152602001600382018054806020026020016040519081016040528092919081815260200182805480156121fb57602002820191906000526020600020905b8154815260200190600101908083116121e7575b50505050508152602001600482015460001916600019168152602001600582015460001916600019168152505090506122378160000151611a2b565b965080602001519550806040015194508060600151935061225b8160800151611a2b565b925061226a8160a00151611a2b565b91505091939550919395565b600082821115151561228757600080fd5b818303905092915050565b600061229c61242b565b60006040805190810160405280858152602001600160ff1681525091506001600480548060010182816122cf9190612561565b916000526020600020906002020160008590919091506000820151816000015560208201518160010160006101000a81548160ff021916908360ff16021790555050500390508092505050919050565b60006123296123fc565b6000608060405190810160405280876000191681526020018681526020018560001916815260200142815250915060016003805480600101828161236d9190612593565b91600052602060002090600402016000859091909150600082015181600001906000191690556020820151816001015560408201518160020190600019169055606082015181600301555050039050806007600088600019166000191681526020019081526020016000208190555080925050509392505050565b602060405190810160405280600081525090565b608060405190810160405280600080191681526020016000815260200160008019168152602001600081525090565b604080519081016040528060008152602001600060ff1681525090565b60c06040519081016040528060008019168152602001600073ffffffffffffffffffffffffffffffffffffffff168152602001600073ffffffffffffffffffffffffffffffffffffffff1681526020016124a06125c5565b815260200160008019168152602001600080191681525090565b8154818355818115116124e7576006028160060283600052602060002091820191016124e691906125d9565b5b505050565b828054828255906000526020600020908101928215612528579160200282015b8281111561252757825182559160200191906001019061250c565b5b509050612535919061266e565b5090565b602060405190810160405280600081525090565b602060405190810160405280600081525090565b81548183558181151161258e5760020281600202836000526020600020918201910161258d9190612693565b5b505050565b8154818355818115116125c0576004028160040283600052602060002091820191016125bf91906126ce565b5b505050565b602060405190810160405280600081525090565b61266b91905b80821115612667576000808201600090556001820160006101000a81549073ffffffffffffffffffffffffffffffffffffffff02191690556002820160006101000a81549073ffffffffffffffffffffffffffffffffffffffff021916905560038201600061264e919061270d565b60048201600090556005820160009055506006016125df565b5090565b90565b61269091905b8082111561268c576000816000905550600101612674565b5090565b90565b6126cb91905b808211156126c7576000808201600090556001820160006101000a81549060ff021916905550600201612699565b5090565b90565b61270a91905b8082111561270657600080820160009055600182016000905560028201600090556003820160009055506004016126d4565b5090565b90565b508054600082559060005260206000209081019061272b919061266e565b505600a165627a7a723058205455896006cb99bc39f0c36abbadab4750c16a613457491d607c2da61b1a85ee0029",
  "source": "pragma solidity ^0.4.18;\n\nimport \"./IndifiCoin.sol\";\nimport \"./SplitContract.sol\";\nimport \"./VirtualAccounts.sol\";\n\n\ncontract EscrowTransactions is VirtualAccounts {\n\n    event NewTransaction(uint256 indexed transactionId, uint256 indexed amount);\n\n    struct Transaction {\n        bytes32 transactionHash;\n        uint256 amount;\n        bytes32 virtualAccountNumber;\n        uint timestamp;\n    }\n\n    struct SplitTransaction {\n        uint256 shareAmount;\n        uint8 status;\n    }\n\n    Transaction[] public transactions;\n    SplitTransaction[] public splitTransactions;\n\n    IndifiCoin public indifiCoin;\n    SplitContract public splitContract;\n\n    // -------------------------------------------------------------------------\n    // To keep the position of any transaction in the transactions array\n    // key: bytes32 - bytes32 representation of the sha256 hash of the transaction\n    // value: uint256 - index of the Transaction struct in transactions array\n    // -------------------------------------------------------------------------\n    mapping(bytes32 => uint256) public transactionHashToIndex;\n\n    mapping(uint256 => uint256) public transactionIdToBorrowerSharesId;\n\n    mapping(uint256 => uint256) public transactionIdToLenderSharesId;\n\n    function EscrowTransactions() public {\n        _createTransaction(0x0, 0, 0x0);\n        updateVirtualAccountConfiguration(\"\", new uint[](2), address(0), address(0), \"\", \"\");\n        _createSplitTransaction(0);\n    }\n\n    function updateIndifiCoinAddress(address _indifiCoinAddress) public onlyOwner returns (bool) {\n        indifiCoin = IndifiCoin(_indifiCoinAddress);\n    }\n\n    function updateSplitContractAddress(address _splitContractAddress) public onlyOwner returns (bool) {\n        splitContract = SplitContract(_splitContractAddress);\n    }\n\n    function newEscrowTransaction(string _hash, uint256 amount, string _vAccNo) public onlyOwner returns(bool) {\n        // check if this transaction is new by comparing hash\n        bytes32 hashBytes = _stringToBytes32(_hash);\n        bytes32 vAccNoBytes = _stringToBytes32(_vAccNo);\n\n        require(transactionHashToIndex[hashBytes] <= 0);\n\n        // create new Transaction object and save\n        uint256 id = _createTransaction(hashBytes, amount, vAccNoBytes);\n\n        // emit new transaction created\n        NewTransaction(id, amount);\n\n        // allocate coins equal to the amount into owners account\n        indifiCoin.createTokens(amount);\n\n        return true;\n    }\n\n    function getTotalTransactions() public view returns (uint256) {\n        return transactions.length - 1;\n    }\n\n    function getTransaction(uint256 id) public view returns(\n        string transactionHash,\n        uint256 amount,\n        string virtualAccountNumber,\n        uint256 borrowerShareId,\n        uint256 lenderShareId,\n        uint timestamp\n    ) {\n        Transaction memory t = transactions[id];\n        transactionHash = _bytes32ToString(t.transactionHash);\n        amount = t.amount;\n        virtualAccountNumber = _bytes32ToString(t.virtualAccountNumber);\n        borrowerShareId = transactionIdToBorrowerSharesId[id];\n        lenderShareId = transactionIdToLenderSharesId[id];\n        timestamp = t.timestamp;\n    }\n\n    function splitEscrowTransaction(uint256 id) public onlyOwner returns (bool) {\n        Transaction memory t = transactions[id];\n\n        // get VirtualAccount\n        VirtualAccount memory va = virtualAccounts[virtualAccountsToIndex[t.virtualAccountNumber]];\n\n        int256 lenderShare = splitContract.split(t.amount, va.policyDetails);\n        if (lenderShare != -1) {\n            uint256 borrowerShare = safeSub(t.amount, uint256(lenderShare));\n            indifiCoin.transferTokens(va.lenderAddress, uint256(lenderShare));\n            indifiCoin.transferTokens(va.borrowerAddress, borrowerShare);\n\n            uint256 borrowerShareId = _createSplitTransaction(borrowerShare);\n            transactionIdToBorrowerSharesId[id] = borrowerShareId;\n\n            uint256 lenderShareId = _createSplitTransaction(uint256(lenderShare));\n            transactionIdToLenderSharesId[id] = lenderShareId;\n        }\n\n        return true;\n    }\n\n    function updateSplitStatusToSentForSettlement(uint256[] ids) public returns (bool) {\n        for (uint256 i = 0; i< ids.length; i++) {\n            SplitTransaction memory st = splitTransactions[ids[i]];\n            if (st.status == 1) {\n                st.status = 2;\n                splitTransactions[ids[i]] = st;\n            }\n        }\n    }\n\n    function updateSplitStatusToSettled(uint256[] ids) public returns (bool) {\n        for (uint256 i = 0; i< ids.length; i++) {\n            SplitTransaction memory st = splitTransactions[ids[i]];\n            if (st.status == 2) {\n                st.status = 3;\n                splitTransactions[ids[i]] = st;\n            }\n        }\n    }\n\n    function _createSplitTransaction(uint256 _amount) internal returns(uint256) {\n        SplitTransaction memory st = SplitTransaction({\n            shareAmount: _amount,\n            status: 1\n            });\n\n        uint256 id = splitTransactions.push(st) - 1;\n        return id;\n    }\n\n    function _createTransaction(bytes32 _hashBytes, uint256 amount, bytes32 _vAccNoBytes) internal returns (uint256) {\n        Transaction memory t = Transaction({\n            transactionHash: _hashBytes,\n            amount: amount,\n            virtualAccountNumber: _vAccNoBytes,\n            timestamp: now\n            });\n\n        uint256 id = transactions.push(t) - 1;\n        transactionHashToIndex[_hashBytes] = id;\n\n        return id;\n    }\n}\n",
  "sourcePath": "/Users/aditya/Documents/indifi/blockchain/escrow-ethereum/contracts/EscrowTransactions.sol",
  "compiler": {
    "name": "solc",
    "version": "0.4.18+commit.9cf6e910.Emscripten.clang"
  },
  "schemaVersion": "1.0.1",
  "updatedAt": "2018-04-09T04:58:35.249Z"
}