{
  "contractName": "EscrowTransactions",
  "abi": [
    {
      "constant": true,
      "inputs": [],
      "name": "getAllVirtualAccounts",
      "outputs": [
        {
          "components": [
            {
              "name": "virtualAccountNumber",
              "type": "bytes32"
            },
            {
              "name": "borrowerAddress",
              "type": "address"
            },
            {
              "name": "lenderAddress",
              "type": "address"
            },
            {
              "name": "policyDetails",
              "type": "uint256[]"
            },
            {
              "name": "bankAccountNumber",
              "type": "string"
            },
            {
              "name": "ifscCode",
              "type": "string"
            }
          ],
          "name": "",
          "type": "tuple[]"
        }
      ],
      "payable": false,
      "stateMutability": "view",
      "type": "function"
    },
    {
      "constant": true,
      "inputs": [
        {
          "name": "",
          "type": "uint256"
        }
      ],
      "name": "transactionIdToStatus",
      "outputs": [
        {
          "name": "",
          "type": "uint8"
        }
      ],
      "payable": false,
      "stateMutability": "view",
      "type": "function"
    },
    {
      "constant": true,
      "inputs": [],
      "name": "indifiCoin",
      "outputs": [
        {
          "name": "",
          "type": "address"
        }
      ],
      "payable": false,
      "stateMutability": "view",
      "type": "function"
    },
    {
      "constant": true,
      "inputs": [
        {
          "name": "id",
          "type": "uint256"
        }
      ],
      "name": "getTransaction",
      "outputs": [
        {
          "name": "transactionHash",
          "type": "string"
        },
        {
          "name": "amount",
          "type": "uint256"
        },
        {
          "name": "virtualAccountNumber",
          "type": "string"
        }
      ],
      "payable": false,
      "stateMutability": "view",
      "type": "function"
    },
    {
      "constant": true,
      "inputs": [
        {
          "name": "",
          "type": "uint256"
        }
      ],
      "name": "virtualAccounts",
      "outputs": [
        {
          "name": "virtualAccountNumber",
          "type": "bytes32"
        },
        {
          "name": "borrowerAddress",
          "type": "address"
        },
        {
          "name": "lenderAddress",
          "type": "address"
        },
        {
          "name": "bankAccountNumber",
          "type": "string"
        },
        {
          "name": "ifscCode",
          "type": "string"
        }
      ],
      "payable": false,
      "stateMutability": "view",
      "type": "function"
    },
    {
      "constant": true,
      "inputs": [
        {
          "name": "",
          "type": "bytes32"
        }
      ],
      "name": "virtualAccountsToIndex",
      "outputs": [
        {
          "name": "",
          "type": "uint32"
        }
      ],
      "payable": false,
      "stateMutability": "view",
      "type": "function"
    },
    {
      "constant": true,
      "inputs": [
        {
          "name": "",
          "type": "bytes32"
        }
      ],
      "name": "transactionHashToIndex",
      "outputs": [
        {
          "name": "",
          "type": "uint256"
        }
      ],
      "payable": false,
      "stateMutability": "view",
      "type": "function"
    },
    {
      "constant": false,
      "inputs": [
        {
          "name": "_indifiCoinAddress",
          "type": "address"
        }
      ],
      "name": "updateIndifiCoinAddress",
      "outputs": [
        {
          "name": "",
          "type": "bool"
        }
      ],
      "payable": false,
      "stateMutability": "nonpayable",
      "type": "function"
    },
    {
      "constant": true,
      "inputs": [],
      "name": "owner",
      "outputs": [
        {
          "name": "",
          "type": "address"
        }
      ],
      "payable": false,
      "stateMutability": "view",
      "type": "function"
    },
    {
      "constant": false,
      "inputs": [
        {
          "name": "_virtualAccountNumber",
          "type": "string"
        },
        {
          "name": "_policyDetails",
          "type": "uint256[]"
        },
        {
          "name": "_borrower",
          "type": "address"
        },
        {
          "name": "_lender",
          "type": "address"
        },
        {
          "name": "_bankAccountNumber",
          "type": "string"
        },
        {
          "name": "_ifscCode",
          "type": "string"
        }
      ],
      "name": "updateVirtualAccountConfiguration",
      "outputs": [
        {
          "name": "",
          "type": "bool"
        }
      ],
      "payable": false,
      "stateMutability": "nonpayable",
      "type": "function"
    },
    {
      "constant": true,
      "inputs": [
        {
          "name": "",
          "type": "uint256"
        }
      ],
      "name": "transactions",
      "outputs": [
        {
          "name": "transactionHash",
          "type": "bytes32"
        },
        {
          "name": "amount",
          "type": "uint256"
        },
        {
          "name": "virtualAccountNumber",
          "type": "bytes32"
        },
        {
          "name": "timestamp",
          "type": "uint256"
        }
      ],
      "payable": false,
      "stateMutability": "view",
      "type": "function"
    },
    {
      "constant": true,
      "inputs": [],
      "name": "splitContract",
      "outputs": [
        {
          "name": "",
          "type": "address"
        }
      ],
      "payable": false,
      "stateMutability": "view",
      "type": "function"
    },
    {
      "constant": true,
      "inputs": [
        {
          "name": "x",
          "type": "bytes32"
        }
      ],
      "name": "_bytes32ToString",
      "outputs": [
        {
          "name": "",
          "type": "string"
        }
      ],
      "payable": false,
      "stateMutability": "pure",
      "type": "function"
    },
    {
      "constant": true,
      "inputs": [],
      "name": "getTotalTransactions",
      "outputs": [
        {
          "name": "",
          "type": "uint256"
        }
      ],
      "payable": false,
      "stateMutability": "view",
      "type": "function"
    },
    {
      "constant": true,
      "inputs": [
        {
          "name": "s",
          "type": "string"
        }
      ],
      "name": "_stringToBytes32",
      "outputs": [
        {
          "name": "result",
          "type": "bytes32"
        }
      ],
      "payable": false,
      "stateMutability": "pure",
      "type": "function"
    },
    {
      "constant": false,
      "inputs": [
        {
          "name": "_hash",
          "type": "string"
        },
        {
          "name": "amount",
          "type": "uint256"
        },
        {
          "name": "_vAccNo",
          "type": "string"
        }
      ],
      "name": "newEscrowTransaction",
      "outputs": [
        {
          "name": "",
          "type": "bool"
        }
      ],
      "payable": false,
      "stateMutability": "nonpayable",
      "type": "function"
    },
    {
      "constant": true,
      "inputs": [
        {
          "name": "",
          "type": "bytes32"
        }
      ],
      "name": "VirtualAccounts",
      "outputs": [
        {
          "name": "virtualAccountNumber",
          "type": "bytes32"
        },
        {
          "name": "borrowerAddress",
          "type": "address"
        },
        {
          "name": "lenderAddress",
          "type": "address"
        },
        {
          "name": "bankAccountNumber",
          "type": "string"
        },
        {
          "name": "ifscCode",
          "type": "string"
        }
      ],
      "payable": false,
      "stateMutability": "view",
      "type": "function"
    },
    {
      "constant": false,
      "inputs": [
        {
          "name": "_splitContractAddress",
          "type": "address"
        }
      ],
      "name": "updateSplitContractAddress",
      "outputs": [
        {
          "name": "",
          "type": "bool"
        }
      ],
      "payable": false,
      "stateMutability": "nonpayable",
      "type": "function"
    },
    {
      "constant": false,
      "inputs": [
        {
          "name": "_newOwner",
          "type": "address"
        }
      ],
      "name": "transferOwnership",
      "outputs": [],
      "payable": false,
      "stateMutability": "nonpayable",
      "type": "function"
    },
    {
      "inputs": [],
      "payable": false,
      "stateMutability": "nonpayable",
      "type": "constructor"
    },
    {
      "anonymous": false,
      "inputs": [
        {
          "indexed": true,
          "name": "transactionId",
          "type": "uint256"
        },
        {
          "indexed": true,
          "name": "amount",
          "type": "uint256"
        }
      ],
      "name": "NewTransaction",
      "type": "event"
    },
    {
      "anonymous": false,
      "inputs": [
        {
          "indexed": true,
          "name": "_from",
          "type": "address"
        },
        {
          "indexed": true,
          "name": "_to",
          "type": "address"
        }
      ],
      "name": "OwnershipTransferred",
      "type": "event"
    }
  ],
  "bytecode": "0x606060405234156200001057600080fd5b336000806101000a81548173ffffffffffffffffffffffffffffffffffffffff021916908373ffffffffffffffffffffffffffffffffffffffff160217905550620000796000600102600080600102620000806401000000000262001fbb176401000000009004565b50620001f3565b60006200008c6200014d565b60006080604051908101604052808760001916815260200186815260200185600019168152602001428152509150600160038054806001018281620000d291906200017c565b91600052602060002090600402016000859091909150600082015181600001906000191690556020820151816001015560408201518160020190600019169055606082015181600301555050039050806006600088600019166000191681526020019081526020016000208190555080925050509392505050565b608060405190810160405280600080191681526020016000815260200160008019168152602001600081525090565b815481835581811511620001ac57600402816004028360005260206000209182019101620001ab9190620001b1565b5b505050565b620001f091905b80821115620001ec5760008082016000905560018201600090556002820160009055600382016000905550600401620001b8565b5090565b90565b61247a80620002036000396000f300606060405260043610610107576000357c0100000000000000000000000000000000000000000000000000000000900463ffffffff168063017bfbff1461010c578063072e9cb1146101715780632686ce59146101ae57806333ea3dc8146102035780635aa828641461031257806377d60bcb146104c95780637bb963e1146105105780637cd20b2c1461054b5780638da5cb5b1461059c57806394816511146105f15780639ace38c21461076a578063a1ab609b146107c6578063ad966a031461081b578063b5c604ff146108bb578063bf6a8f9c146108e4578063bffee9b61461095d578063e8c8259b14610a1e578063e9daef6614610bd9578063f2fde38b14610c2a575b600080fd5b341561011757600080fd5b61011f610c63565b60405180806020018281038252838181518152602001915080516000925b81841015610160578284906020019060200201518152602001926001019261013d565b925050509250505060405180910390f35b341561017c57600080fd5b6101926004808035906020019091905050610f23565b604051808260ff1660ff16815260200191505060405180910390f35b34156101b957600080fd5b6101c1610f43565b604051808273ffffffffffffffffffffffffffffffffffffffff1673ffffffffffffffffffffffffffffffffffffffff16815260200191505060405180910390f35b341561020e57600080fd5b6102246004808035906020019091905050610f69565b604051808060200184815260200180602001838103835286818151815260200191508051906020019080838360005b8381101561026e578082015181840152602081019050610253565b50505050905090810190601f16801561029b5780820380516001836020036101000a031916815260200191505b50838103825284818151815260200191508051906020019080838360005b838110156102d45780820151818401526020810190506102b9565b50505050905090810190601f1680156103015780820380516001836020036101000a031916815260200191505b509550505050505060405180910390f35b341561031d57600080fd5b6103336004808035906020019091905050611013565b6040518086600019166000191681526020018573ffffffffffffffffffffffffffffffffffffffff1673ffffffffffffffffffffffffffffffffffffffff1681526020018473ffffffffffffffffffffffffffffffffffffffff1673ffffffffffffffffffffffffffffffffffffffff16815260200180602001806020018381038352858181546001816001161561010002031660029004815260200191508054600181600116156101000203166002900480156104325780601f1061040757610100808354040283529160200191610432565b820191906000526020600020905b81548152906001019060200180831161041557829003601f168201915b50508381038252848181546001816001161561010002031660029004815260200191508054600181600116156101000203166002900480156104b55780601f1061048a576101008083540402835291602001916104b5565b820191906000526020600020905b81548152906001019060200180831161049857829003601f168201915b505097505050505050505060405180910390f35b34156104d457600080fd5b6104ee600480803560001916906020019091905050611096565b604051808263ffffffff1663ffffffff16815260200191505060405180910390f35b341561051b57600080fd5b6105356004808035600019169060200190919050506110b9565b6040518082815260200191505060405180910390f35b341561055657600080fd5b610582600480803573ffffffffffffffffffffffffffffffffffffffff169060200190919050506110d1565b604051808215151515815260200191505060405180910390f35b34156105a757600080fd5b6105af611174565b604051808273ffffffffffffffffffffffffffffffffffffffff1673ffffffffffffffffffffffffffffffffffffffff16815260200191505060405180910390f35b34156105fc57600080fd5b610750600480803590602001908201803590602001908080601f016020809104026020016040519081016040528093929190818152602001838380828437820191505050505050919080359060200190820180359060200190808060200260200160405190810160405280939291908181526020018383602002808284378201915050505050509190803573ffffffffffffffffffffffffffffffffffffffff1690602001909190803573ffffffffffffffffffffffffffffffffffffffff1690602001909190803590602001908201803590602001908080601f0160208091040260200160405190810160405280939291908181526020018383808284378201915050505050509190803590602001908201803590602001908080601f01602080910402602001604051908101604052809392919081815260200183838082843782019150505050505091905050611199565b604051808215151515815260200191505060405180910390f35b341561077557600080fd5b61078b60048080359060200190919050506113d8565b604051808560001916600019168152602001848152602001836000191660001916815260200182815260200194505050505060405180910390f35b34156107d157600080fd5b6107d9611417565b604051808273ffffffffffffffffffffffffffffffffffffffff1673ffffffffffffffffffffffffffffffffffffffff16815260200191505060405180910390f35b341561082657600080fd5b61084060048080356000191690602001909190505061143d565b6040518080602001828103825283818151815260200191508051906020019080838360005b83811015610880578082015181840152602081019050610865565b50505050905090810190601f1680156108ad5780820380516001836020036101000a031916815260200191505b509250505060405180910390f35b34156108c657600080fd5b6108ce61162a565b6040518082815260200191505060405180910390f35b34156108ef57600080fd5b61093f600480803590602001908201803590602001908080601f0160208091040260200160405190810160405280939291908181526020018383808284378201915050505050509190505061163a565b60405180826000191660001916815260200191505060405180910390f35b341561096857600080fd5b610a04600480803590602001908201803590602001908080601f0160208091040260200160405190810160405280939291908181526020018383808284378201915050505050509190803590602001909190803590602001908201803590602001908080601f0160208091040260200160405190810160405280939291908181526020018383808284378201915050505050509190505061165e565b604051808215151515815260200191505060405180910390f35b3415610a2957600080fd5b610a43600480803560001916906020019091905050611dca565b6040518086600019166000191681526020018573ffffffffffffffffffffffffffffffffffffffff1673ffffffffffffffffffffffffffffffffffffffff1681526020018473ffffffffffffffffffffffffffffffffffffffff1673ffffffffffffffffffffffffffffffffffffffff1681526020018060200180602001838103835285818154600181600116156101000203166002900481526020019150805460018160011615610100020316600290048015610b425780601f10610b1757610100808354040283529160200191610b42565b820191906000526020600020905b815481529060010190602001808311610b2557829003601f168201915b5050838103825284818154600181600116156101000203166002900481526020019150805460018160011615610100020316600290048015610bc55780601f10610b9a57610100808354040283529160200191610bc5565b820191906000526020600020905b815481529060010190602001808311610ba857829003601f168201915b505097505050505050505060405180910390f35b3415610be457600080fd5b610c10600480803573ffffffffffffffffffffffffffffffffffffffff16906020019091905050611e3e565b604051808215151515815260200191505060405180910390f35b3415610c3557600080fd5b610c61600480803573ffffffffffffffffffffffffffffffffffffffff16906020019091905050611ee1565b005b610c6b6120a0565b6001805480602002602001604051908101604052809291908181526020016000905b82821015610f1a578382906000526020600020906006020160c060405190810160405290816000820154600019166000191681526020016001820160009054906101000a900473ffffffffffffffffffffffffffffffffffffffff1673ffffffffffffffffffffffffffffffffffffffff1673ffffffffffffffffffffffffffffffffffffffff1681526020016002820160009054906101000a900473ffffffffffffffffffffffffffffffffffffffff1673ffffffffffffffffffffffffffffffffffffffff1673ffffffffffffffffffffffffffffffffffffffff16815260200160038201805480602002602001604051908101604052809291908181526020018280548015610dbe57602002820191906000526020600020905b815481526020019060010190808311610daa575b50505050508152602001600482018054600181600116156101000203166002900480601f016020809104026020016040519081016040528092919081815260200182805460018160011615610100020316600290048015610e605780601f10610e3557610100808354040283529160200191610e60565b820191906000526020600020905b815481529060010190602001808311610e4357829003601f168201915b50505050508152602001600582018054600181600116156101000203166002900480601f016020809104026020016040519081016040528092919081815260200182805460018160011615610100020316600290048015610f025780601f10610ed757610100808354040283529160200191610f02565b820191906000526020600020905b815481529060010190602001808311610ee557829003601f168201915b50505050508152505081526020019060010190610c8d565b50505050905090565b60076020528060005260406000206000915054906101000a900460ff1681565b600460009054906101000a900473ffffffffffffffffffffffffffffffffffffffff1681565b610f716120b4565b6000610f7b6120b4565b610f836120c8565b600385815481101515610f9257fe5b906000526020600020906004020160806040519081016040529081600082015460001916600019168152602001600182015481526020016002820154600019166000191681526020016003820154815250509050610ff3816000015161143d565b935080602001519250611009816040015161143d565b9150509193909250565b60018181548110151561102257fe5b90600052602060002090600602016000915090508060000154908060010160009054906101000a900473ffffffffffffffffffffffffffffffffffffffff16908060020160009054906101000a900473ffffffffffffffffffffffffffffffffffffffff1690806004019080600501905085565b60026020528060005260406000206000915054906101000a900463ffffffff1681565b60066020528060005260406000206000915090505481565b60008060009054906101000a900473ffffffffffffffffffffffffffffffffffffffff1673ffffffffffffffffffffffffffffffffffffffff163373ffffffffffffffffffffffffffffffffffffffff1614151561112e57600080fd5b81600460006101000a81548173ffffffffffffffffffffffffffffffffffffffff021916908373ffffffffffffffffffffffffffffffffffffffff160217905550919050565b6000809054906101000a900473ffffffffffffffffffffffffffffffffffffffff1681565b6000806111a46120f7565b60008060009054906101000a900473ffffffffffffffffffffffffffffffffffffffff1673ffffffffffffffffffffffffffffffffffffffff163373ffffffffffffffffffffffffffffffffffffffff1614151561120157600080fd5b61120a8a61163a565b925060c060405190810160405280846000191681526020018973ffffffffffffffffffffffffffffffffffffffff1681526020018873ffffffffffffffffffffffffffffffffffffffff1681526020018a81526020018781526020018681525091506001808054806001018281611281919061216f565b916000526020600020906006020160008590919091506000820151816000019060001916905560208201518160010160006101000a81548173ffffffffffffffffffffffffffffffffffffffff021916908373ffffffffffffffffffffffffffffffffffffffff16021790555060408201518160020160006101000a81548173ffffffffffffffffffffffffffffffffffffffff021916908373ffffffffffffffffffffffffffffffffffffffff16021790555060608201518160030190805190602001906113519291906121a1565b50608082015181600401908051906020019061136e9291906121ee565b5060a082015181600501908051906020019061138b9291906121ee565b5050500390508060026000856000191660001916815260200190815260200160002060006101000a81548163ffffffff021916908363ffffffff1602179055505050509695505050505050565b6003818154811015156113e757fe5b90600052602060002090600402016000915090508060000154908060010154908060020154908060030154905084565b600560009054906101000a900473ffffffffffffffffffffffffffffffffffffffff1681565b6114456120b4565b61144d61226e565b600080600061145a61226e565b60206040518059106114695750595b9080825280601f01601f1916602001820160405250945060009350600092505b6020831015611547578260080260020a876001900402600102915060007f010000000000000000000000000000000000000000000000000000000000000002827effffffffffffffffffffffffffffffffffffffffffffffffffffffffffffff191614151561153a5781858581518110151561150157fe5b9060200101907effffffffffffffffffffffffffffffffffffffffffffffffffffffffffffff1916908160001a90535083806001019450505b8280600101935050611489565b836040518059106115555750595b9080825280601f01601f19166020018201604052509050600092505b8383101561161d57848381518110151561158757fe5b9060200101517f010000000000000000000000000000000000000000000000000000000000000090047f01000000000000000000000000000000000000000000000000000000000000000281848151811015156115e057fe5b9060200101907effffffffffffffffffffffffffffffffffffffffffffffffffffffffffffff1916908160001a9053508280600101935050611571565b8095505050505050919050565b6000600160038054905003905090565b600080825114156116515760006001029050611659565b602082015190505b919050565b60008060008061166c6120f7565b60008060009054906101000a900473ffffffffffffffffffffffffffffffffffffffff1673ffffffffffffffffffffffffffffffffffffffff163373ffffffffffffffffffffffffffffffffffffffff161415156116c957600080fd5b6116d28961163a565b94506116dd8761163a565b93506000600660008760001916600019168152602001908152602001600020541115151561170a57600080fd5b611715858986611fbb565b925087837fff55ed3ce151358eca857f39a3a8e3c5178eaeed3a365eb97193576a83399cd460405160405180910390a3600460009054906101000a900473ffffffffffffffffffffffffffffffffffffffff1673ffffffffffffffffffffffffffffffffffffffff16637e1f2bb8896000604051602001526040518263ffffffff167c010000000000000000000000000000000000000000000000000000000002815260040180828152602001915050602060405180830381600087803b15156117de57600080fd5b6102c65a03f115156117ef57600080fd5b505050604051805190505060086000856000191660001916815260200190815260200160002060c060405190810160405290816000820154600019166000191681526020016001820160009054906101000a900473ffffffffffffffffffffffffffffffffffffffff1673ffffffffffffffffffffffffffffffffffffffff1673ffffffffffffffffffffffffffffffffffffffff1681526020016002820160009054906101000a900473ffffffffffffffffffffffffffffffffffffffff1673ffffffffffffffffffffffffffffffffffffffff1673ffffffffffffffffffffffffffffffffffffffff1681526020016003820180548060200260200160405190810160405280929190818152602001828054801561192e57602002820191906000526020600020905b81548152602001906001019080831161191a575b50505050508152602001600482018054600181600116156101000203166002900480601f0160208091040260200160405190810160405280929190818152602001828054600181600116156101000203166002900480156119d05780601f106119a5576101008083540402835291602001916119d0565b820191906000526020600020905b8154815290600101906020018083116119b357829003601f168201915b50505050508152602001600582018054600181600116156101000203166002900480601f016020809104026020016040519081016040528092919081815260200182805460018160011615610100020316600290048015611a725780601f10611a4757610100808354040283529160200191611a72565b820191906000526020600020905b815481529060010190602001808311611a5557829003601f168201915b5050505050815250509150600560009054906101000a900473ffffffffffffffffffffffffffffffffffffffff1673ffffffffffffffffffffffffffffffffffffffff166369c672478984606001516000604051602001526040518363ffffffff167c01000000000000000000000000000000000000000000000000000000000281526004018083815260200180602001828103825283818151815260200191508051906020019060200280838360005b83811015611b3e578082015181840152602081019050611b23565b505050509050019350505050602060405180830381600087803b1515611b6357600080fd5b6102c65a03f11515611b7457600080fd5b5050506040518051905090507fffffffffffffffffffffffffffffffffffffffffffffffffffffffffffffffff81141515611dba57600460009054906101000a900473ffffffffffffffffffffffffffffffffffffffff1673ffffffffffffffffffffffffffffffffffffffff1663bec3fa178360400151836000604051602001526040518363ffffffff167c0100000000000000000000000000000000000000000000000000000000028152600401808373ffffffffffffffffffffffffffffffffffffffff1673ffffffffffffffffffffffffffffffffffffffff16815260200182815260200192505050602060405180830381600087803b1515611c7a57600080fd5b6102c65a03f11515611c8b57600080fd5b5050506040518051905050600460009054906101000a900473ffffffffffffffffffffffffffffffffffffffff1673ffffffffffffffffffffffffffffffffffffffff1663bec3fa178360200151611ce38b85612084565b6000604051602001526040518363ffffffff167c0100000000000000000000000000000000000000000000000000000000028152600401808373ffffffffffffffffffffffffffffffffffffffff1673ffffffffffffffffffffffffffffffffffffffff16815260200182815260200192505050602060405180830381600087803b1515611d7057600080fd5b6102c65a03f11515611d8157600080fd5b505050604051805190505060016007600085815260200190815260200160002060006101000a81548160ff021916908360ff1602179055505b6001955050505050509392505050565b60086020528060005260406000206000915090508060000154908060010160009054906101000a900473ffffffffffffffffffffffffffffffffffffffff16908060020160009054906101000a900473ffffffffffffffffffffffffffffffffffffffff1690806004019080600501905085565b60008060009054906101000a900473ffffffffffffffffffffffffffffffffffffffff1673ffffffffffffffffffffffffffffffffffffffff163373ffffffffffffffffffffffffffffffffffffffff16141515611e9b57600080fd5b81600560006101000a81548173ffffffffffffffffffffffffffffffffffffffff021916908373ffffffffffffffffffffffffffffffffffffffff160217905550919050565b6000809054906101000a900473ffffffffffffffffffffffffffffffffffffffff1673ffffffffffffffffffffffffffffffffffffffff163373ffffffffffffffffffffffffffffffffffffffff16141515611f3c57600080fd5b600073ffffffffffffffffffffffffffffffffffffffff168173ffffffffffffffffffffffffffffffffffffffff1614151515611f7857600080fd5b806000806101000a81548173ffffffffffffffffffffffffffffffffffffffff021916908373ffffffffffffffffffffffffffffffffffffffff16021790555050565b6000611fc56120c8565b600060806040519081016040528087600019168152602001868152602001856000191681526020014281525091506001600380548060010182816120099190612282565b91600052602060002090600402016000859091909150600082015181600001906000191690556020820151816001015560408201518160020190600019169055606082015181600301555050039050806006600088600019166000191681526020019081526020016000208190555080925050509392505050565b600082821115151561209557600080fd5b818303905092915050565b602060405190810160405280600081525090565b602060405190810160405280600081525090565b608060405190810160405280600080191681526020016000815260200160008019168152602001600081525090565b60c06040519081016040528060008019168152602001600073ffffffffffffffffffffffffffffffffffffffff168152602001600073ffffffffffffffffffffffffffffffffffffffff16815260200161214f6122b4565b815260200161215c6122c8565b81526020016121696122c8565b81525090565b81548183558181151161219c5760060281600602836000526020600020918201910161219b91906122dc565b5b505050565b8280548282559060005260206000209081019282156121dd579160200282015b828111156121dc5782518255916020019190600101906121c1565b5b5090506121ea9190612381565b5090565b828054600181600116156101000203166002900490600052602060002090601f016020900481019282601f1061222f57805160ff191683800117855561225d565b8280016001018555821561225d579182015b8281111561225c578251825591602001919060010190612241565b5b50905061226a9190612381565b5090565b602060405190810160405280600081525090565b8154818355818115116122af576004028160040283600052602060002091820191016122ae91906123a6565b5b505050565b602060405190810160405280600081525090565b602060405190810160405280600081525090565b61237e91905b8082111561237a576000808201600090556001820160006101000a81549073ffffffffffffffffffffffffffffffffffffffff02191690556002820160006101000a81549073ffffffffffffffffffffffffffffffffffffffff021916905560038201600061235191906123e5565b6004820160006123619190612406565b6005820160006123719190612406565b506006016122e2565b5090565b90565b6123a391905b8082111561239f576000816000905550600101612387565b5090565b90565b6123e291905b808211156123de57600080820160009055600182016000905560028201600090556003820160009055506004016123ac565b5090565b90565b50805460008255906000526020600020908101906124039190612381565b50565b50805460018160011615610100020316600290046000825580601f1061242c575061244b565b601f01602090049060005260206000209081019061244a9190612381565b5b505600a165627a7a7230582040bcb97d12d9ff23fba7529cb89cc7535bc08089590749a4b41146c0901b60530029",
  "source": "pragma solidity ^0.4.18;\n\n\nimport \"./VirtualAccounts.sol\";\nimport \"./IndifiCoin.sol\";\nimport \"./SplitContract.sol\";\n\n\ncontract EscrowTransactions is VirtualAccounts {\n    \n    event NewTransaction(uint256 indexed transactionId, uint256 indexed amount);\n    \n    struct Transaction {\n        bytes32 transactionHash;\n        uint256 amount;\n        bytes32 virtualAccountNumber;\n        uint timestamp;\n    }\n\n    Transaction[] public transactions;\n    \n    IndifiCoin public indifiCoin;\n    SplitContract public splitContract;\n    \n    // -------------------------------------------------------------------------\n    // To keep the position of any transaction in the transactions array\n    // key: bytes32 - bytes32 representation of the sha256 hash of the transaction\n    // value: uint256 - index of the Transaction struct in transactions array\n    // -------------------------------------------------------------------------\n    mapping(bytes32 => uint256) public transactionHashToIndex;\n    \n    // -------------------------------------------------------------------------\n    // To keep the status of the incoming transaction w.r.t settlement\n    // 0 - split not done or no such transaction\n    // 1 - split in coin contract done i.e. coins have been moved by indifi to lender and borrower respectively\n    // 2 - settlement request sent to bank\n    // 3 - settlement done\n    // -------------------------------------------------------------------------\n    mapping(uint256 => uint8) public transactionIdToStatus;\n\n\n    // -------------------------------------------------------------------------\n    // To keep virtual account details againt virtual account number during onboarding\n    // key: bytes32 - bytes32 representation of the virtual account number\n    // value: VirtualAccount - virtual account details\n    // -------------------------------------------------------------------------\n    mapping(bytes32 => VirtualAccount) public VirtualAccounts;\n    \n    function EscrowTransactions() public {\n        _createTransaction(0x0, 0, 0x0);\n    }\n    \n    function updateIndifiCoinAddress(address _indifiCoinAddress) public onlyOwner returns (bool) {\n        indifiCoin = IndifiCoin(_indifiCoinAddress);\n    }\n    \n    function updateSplitContractAddress(address _splitContractAddress) public onlyOwner returns (bool) {\n        splitContract = SplitContract(_splitContractAddress);\n    }\n    \n    function newEscrowTransaction(string _hash, uint256 amount, string _vAccNo) public onlyOwner returns(bool) {\n        // check if this transaction is new by comparing hash\n        bytes32 hashBytes = _stringToBytes32(_hash);\n        bytes32 vAccNoBytes = _stringToBytes32(_vAccNo);\n        \n        require(transactionHashToIndex[hashBytes] <= 0);\n        \n        // create new Transaction object and save\n        uint256 id = _createTransaction(hashBytes, amount, vAccNoBytes);\n        \n        // emit new transaction created\n        NewTransaction(id, amount);\n\n        // allocate coins equal to the amount into owners account\n        indifiCoin.createTokens(amount);\n        VirtualAccount memory va = VirtualAccounts[vAccNoBytes];\n        \n        int256 lenderShare = splitContract.split(amount, va.policyDetails);\n        if (lenderShare != -1) {\n            indifiCoin.transferTokens(va.lenderAddress, uint256(lenderShare));\n            indifiCoin.transferTokens(va.borrowerAddress, safeSub(amount, uint256(lenderShare)));\n            transactionIdToStatus[id] = 1; // split done\n        }\n        \n        return true;\n    }\n    \n    function getTotalTransactions() public view returns (uint256) {\n        return transactions.length - 1;\n    }\n\n    function getTransaction(uint256 id) public view returns(\n        string transactionHash,\n        uint256 amount,\n        string virtualAccountNumber\n    ) {\n        Transaction memory t = transactions[id];\n        transactionHash = _bytes32ToString(t.transactionHash);\n        amount = t.amount;\n        virtualAccountNumber = _bytes32ToString(t.virtualAccountNumber);\n    }\n\n    function _createTransaction(bytes32 _hashBytes, uint256 amount, bytes32 _vAccNoBytes) internal returns (uint256) {\n        Transaction memory t = Transaction({\n            transactionHash: _hashBytes,\n            amount: amount,\n            virtualAccountNumber: _vAccNoBytes,\n            timestamp: now\n        });\n        \n        uint256 id = transactions.push(t) - 1;\n        transactionHashToIndex[_hashBytes] = id;\n        \n        return id;\n    }\n}\n",
  "sourcePath": "/Users/Sahil/Documents/projects/blockchain/escrow-ethereum/contracts/EscrowTransactions.sol",
  "compiler": {
    "name": "solc",
    "version": "0.4.18+commit.9cf6e910.Emscripten.clang"
  },
  "schemaVersion": "1.0.1",
  "updatedAt": "2018-03-20T19:56:07.061Z"
}