{
  "contractName": "EscrowTransactions",
  "abi": [
    {
      "constant": true,
      "inputs": [
        {
          "name": "",
          "type": "uint256"
        }
      ],
      "name": "transactionIdToStatus",
      "outputs": [
        {
          "name": "",
          "type": "uint8"
        }
      ],
      "payable": false,
      "stateMutability": "view",
      "type": "function"
    },
    {
      "constant": true,
      "inputs": [],
      "name": "indifiCoin",
      "outputs": [
        {
          "name": "",
          "type": "address"
        }
      ],
      "payable": false,
      "stateMutability": "view",
      "type": "function"
    },
    {
      "constant": true,
      "inputs": [
        {
          "name": "id",
          "type": "uint256"
        }
      ],
      "name": "getTransaction",
      "outputs": [
        {
          "name": "transactionHash",
          "type": "string"
        },
        {
          "name": "amount",
          "type": "uint256"
        },
        {
          "name": "virtualAccountNumber",
          "type": "string"
        }
      ],
      "payable": false,
      "stateMutability": "view",
      "type": "function"
    },
    {
      "constant": true,
      "inputs": [
        {
          "name": "",
          "type": "bytes32"
        }
      ],
      "name": "transactionHashToIndex",
      "outputs": [
        {
          "name": "",
          "type": "uint256"
        }
      ],
      "payable": false,
      "stateMutability": "view",
      "type": "function"
    },
    {
      "constant": false,
      "inputs": [
        {
          "name": "_indifiCoinAddress",
          "type": "address"
        }
      ],
      "name": "updateIndifiCoinAddress",
      "outputs": [
        {
          "name": "",
          "type": "bool"
        }
      ],
      "payable": false,
      "stateMutability": "nonpayable",
      "type": "function"
    },
    {
      "constant": true,
      "inputs": [
        {
          "name": "",
          "type": "bytes32"
        }
      ],
      "name": "lenderAddress",
      "outputs": [
        {
          "name": "",
          "type": "address"
        }
      ],
      "payable": false,
      "stateMutability": "view",
      "type": "function"
    },
    {
      "constant": true,
      "inputs": [],
      "name": "owner",
      "outputs": [
        {
          "name": "",
          "type": "address"
        }
      ],
      "payable": false,
      "stateMutability": "view",
      "type": "function"
    },
    {
      "constant": false,
      "inputs": [
        {
          "name": "_virtualAccountNumber",
          "type": "string"
        },
        {
          "name": "_policyDetails",
          "type": "uint256[]"
        },
        {
          "name": "_borrower",
          "type": "address"
        },
        {
          "name": "_lender",
          "type": "address"
        },
        {
          "name": "_bankAccountNumber",
          "type": "string"
        },
        {
          "name": "_ifscCode",
          "type": "string"
        }
      ],
      "name": "updateVirtualAccountConfiguration",
      "outputs": [
        {
          "name": "",
          "type": "bool"
        }
      ],
      "payable": false,
      "stateMutability": "nonpayable",
      "type": "function"
    },
    {
      "constant": true,
      "inputs": [
        {
          "name": "",
          "type": "uint256"
        }
      ],
      "name": "transactions",
      "outputs": [
        {
          "name": "transactionHash",
          "type": "bytes32"
        },
        {
          "name": "amount",
          "type": "uint256"
        },
        {
          "name": "virtualAccountNumber",
          "type": "bytes32"
        },
        {
          "name": "timestamp",
          "type": "uint256"
        }
      ],
      "payable": false,
      "stateMutability": "view",
      "type": "function"
    },
    {
      "constant": true,
      "inputs": [],
      "name": "splitContract",
      "outputs": [
        {
          "name": "",
          "type": "address"
        }
      ],
      "payable": false,
      "stateMutability": "view",
      "type": "function"
    },
    {
      "constant": true,
      "inputs": [
        {
          "name": "x",
          "type": "bytes32"
        }
      ],
      "name": "_bytes32ToString",
      "outputs": [
        {
          "name": "",
          "type": "string"
        }
      ],
      "payable": false,
      "stateMutability": "pure",
      "type": "function"
    },
    {
      "constant": true,
      "inputs": [],
      "name": "getTotalTransactions",
      "outputs": [
        {
          "name": "",
          "type": "uint256"
        }
      ],
      "payable": false,
      "stateMutability": "view",
      "type": "function"
    },
    {
      "constant": true,
      "inputs": [
        {
          "name": "s",
          "type": "string"
        }
      ],
      "name": "_stringToBytes32",
      "outputs": [
        {
          "name": "result",
          "type": "bytes32"
        }
      ],
      "payable": false,
      "stateMutability": "pure",
      "type": "function"
    },
    {
      "constant": false,
      "inputs": [
        {
          "name": "_hash",
          "type": "string"
        },
        {
          "name": "amount",
          "type": "uint256"
        },
        {
          "name": "_vAccNo",
          "type": "string"
        }
      ],
      "name": "newEscrowTransaction",
      "outputs": [
        {
          "name": "",
          "type": "bool"
        }
      ],
      "payable": false,
      "stateMutability": "nonpayable",
      "type": "function"
    },
    {
      "constant": true,
      "inputs": [
        {
          "name": "",
          "type": "bytes32"
        }
      ],
      "name": "borrowerAddress",
      "outputs": [
        {
          "name": "",
          "type": "address"
        }
      ],
      "payable": false,
      "stateMutability": "view",
      "type": "function"
    },
    {
      "constant": true,
      "inputs": [
        {
          "name": "",
          "type": "bytes32"
        }
      ],
      "name": "VirtualAccounts",
      "outputs": [
        {
          "name": "virtualAccountNumber",
          "type": "bytes32"
        },
        {
          "name": "borrowerAddress",
          "type": "address"
        },
        {
          "name": "lenderAddress",
          "type": "address"
        },
        {
          "name": "bankAccountNumber",
          "type": "string"
        },
        {
          "name": "ifscCode",
          "type": "string"
        }
      ],
      "payable": false,
      "stateMutability": "view",
      "type": "function"
    },
    {
      "constant": false,
      "inputs": [
        {
          "name": "_splitContractAddress",
          "type": "address"
        }
      ],
      "name": "updateSplitContractAddress",
      "outputs": [
        {
          "name": "",
          "type": "bool"
        }
      ],
      "payable": false,
      "stateMutability": "nonpayable",
      "type": "function"
    },
    {
      "constant": false,
      "inputs": [
        {
          "name": "_newOwner",
          "type": "address"
        }
      ],
      "name": "transferOwnership",
      "outputs": [],
      "payable": false,
      "stateMutability": "nonpayable",
      "type": "function"
    },
    {
      "inputs": [],
      "payable": false,
      "stateMutability": "nonpayable",
      "type": "constructor"
    },
    {
      "anonymous": false,
      "inputs": [
        {
          "indexed": true,
          "name": "transactionId",
          "type": "uint256"
        },
        {
          "indexed": true,
          "name": "amount",
          "type": "uint256"
        }
      ],
      "name": "NewTransaction",
      "type": "event"
    },
    {
      "anonymous": false,
      "inputs": [
        {
          "indexed": true,
          "name": "_from",
          "type": "address"
        },
        {
          "indexed": true,
          "name": "_to",
          "type": "address"
        }
      ],
      "name": "OwnershipTransferred",
      "type": "event"
    }
  ],
  "bytecode": "0x606060405234156200001057600080fd5b336000806101000a81548173ffffffffffffffffffffffffffffffffffffffff021916908373ffffffffffffffffffffffffffffffffffffffff160217905550620000796000600102600080600102620000806401000000000262001b80176401000000009004565b50620001f2565b60006200008c6200014c565b600060806040519081016040528087600019168152602001868152602001856000191681526020014281525091506001808054806001018281620000d191906200017b565b91600052602060002090600402016000859091909150600082015181600001906000191690556020820151816001015560408201518160020190600019169055606082015181600301555050039050806004600088600019166000191681526020019081526020016000208190555080925050509392505050565b608060405190810160405280600080191681526020016000815260200160008019168152602001600081525090565b815481835581811511620001ab57600402816004028360005260206000209182019101620001aa9190620001b0565b5b505050565b620001ef91905b80821115620001eb5760008082016000905560018201600090556002820160009055600382016000905550600401620001b7565b5090565b90565b611eea80620002026000396000f3006060604052600436106100fc576000357c0100000000000000000000000000000000000000000000000000000000900463ffffffff168063072e9cb1146101015780632686ce591461013e57806333ea3dc8146101935780637bb963e1146102a25780637cd20b2c146102dd578063856534071461032e5780638da5cb5b1461039557806394816511146103ea5780639ace38c214610563578063a1ab609b146105bf578063ad966a0314610614578063b5c604ff146106b4578063bf6a8f9c146106dd578063bffee9b614610756578063c986168f14610817578063e8c8259b1461087e578063e9daef6614610a39578063f2fde38b14610a8a575b600080fd5b341561010c57600080fd5b6101226004808035906020019091905050610ac3565b604051808260ff1660ff16815260200191505060405180910390f35b341561014957600080fd5b610151610ae3565b604051808273ffffffffffffffffffffffffffffffffffffffff1673ffffffffffffffffffffffffffffffffffffffff16815260200191505060405180910390f35b341561019e57600080fd5b6101b46004808035906020019091905050610b09565b604051808060200184815260200180602001838103835286818151815260200191508051906020019080838360005b838110156101fe5780820151818401526020810190506101e3565b50505050905090810190601f16801561022b5780820380516001836020036101000a031916815260200191505b50838103825284818151815260200191508051906020019080838360005b83811015610264578082015181840152602081019050610249565b50505050905090810190601f1680156102915780820380516001836020036101000a031916815260200191505b509550505050505060405180910390f35b34156102ad57600080fd5b6102c7600480803560001916906020019091905050610bb3565b6040518082815260200191505060405180910390f35b34156102e857600080fd5b610314600480803573ffffffffffffffffffffffffffffffffffffffff16906020019091905050610bcb565b604051808215151515815260200191505060405180910390f35b341561033957600080fd5b610353600480803560001916906020019091905050610c6e565b604051808273ffffffffffffffffffffffffffffffffffffffff1673ffffffffffffffffffffffffffffffffffffffff16815260200191505060405180910390f35b34156103a057600080fd5b6103a8610ca1565b604051808273ffffffffffffffffffffffffffffffffffffffff1673ffffffffffffffffffffffffffffffffffffffff16815260200191505060405180910390f35b34156103f557600080fd5b610549600480803590602001908201803590602001908080601f016020809104026020016040519081016040528093929190818152602001838380828437820191505050505050919080359060200190820180359060200190808060200260200160405190810160405280939291908181526020018383602002808284378201915050505050509190803573ffffffffffffffffffffffffffffffffffffffff1690602001909190803573ffffffffffffffffffffffffffffffffffffffff1690602001909190803590602001908201803590602001908080601f0160208091040260200160405190810160405280939291908181526020018383808284378201915050505050509190803590602001908201803590602001908080601f01602080910402602001604051908101604052809392919081815260200183838082843782019150505050505091905050610cc6565b604051808215151515815260200191505060405180910390f35b341561056e57600080fd5b6105846004808035906020019091905050610f6b565b604051808560001916600019168152602001848152602001836000191660001916815260200182815260200194505050505060405180910390f35b34156105ca57600080fd5b6105d2610faa565b604051808273ffffffffffffffffffffffffffffffffffffffff1673ffffffffffffffffffffffffffffffffffffffff16815260200191505060405180910390f35b341561061f57600080fd5b610639600480803560001916906020019091905050610fd0565b6040518080602001828103825283818151815260200191508051906020019080838360005b8381101561067957808201518184015260208101905061065e565b50505050905090810190601f1680156106a65780820380516001836020036101000a031916815260200191505b509250505060405180910390f35b34156106bf57600080fd5b6106c76111bd565b6040518082815260200191505060405180910390f35b34156106e857600080fd5b610738600480803590602001908201803590602001908080601f016020809104026020016040519081016040528093929190818152602001838380828437820191505050505050919050506111cc565b60405180826000191660001916815260200191505060405180910390f35b341561076157600080fd5b6107fd600480803590602001908201803590602001908080601f0160208091040260200160405190810160405280939291908181526020018383808284378201915050505050509190803590602001909190803590602001908201803590602001908080601f016020809104026020016040519081016040528093929190818152602001838380828437820191505050505050919050506111f0565b604051808215151515815260200191505060405180910390f35b341561082257600080fd5b61083c60048080356000191690602001909190505061195c565b604051808273ffffffffffffffffffffffffffffffffffffffff1673ffffffffffffffffffffffffffffffffffffffff16815260200191505060405180910390f35b341561088957600080fd5b6108a360048080356000191690602001909190505061198f565b6040518086600019166000191681526020018573ffffffffffffffffffffffffffffffffffffffff1673ffffffffffffffffffffffffffffffffffffffff1681526020018473ffffffffffffffffffffffffffffffffffffffff1673ffffffffffffffffffffffffffffffffffffffff16815260200180602001806020018381038352858181546001816001161561010002031660029004815260200191508054600181600116156101000203166002900480156109a25780601f10610977576101008083540402835291602001916109a2565b820191906000526020600020905b81548152906001019060200180831161098557829003601f168201915b5050838103825284818154600181600116156101000203166002900481526020019150805460018160011615610100020316600290048015610a255780601f106109fa57610100808354040283529160200191610a25565b820191906000526020600020905b815481529060010190602001808311610a0857829003601f168201915b505097505050505050505060405180910390f35b3415610a4457600080fd5b610a70600480803573ffffffffffffffffffffffffffffffffffffffff16906020019091905050611a03565b604051808215151515815260200191505060405180910390f35b3415610a9557600080fd5b610ac1600480803573ffffffffffffffffffffffffffffffffffffffff16906020019091905050611aa6565b005b60056020528060005260406000206000915054906101000a900460ff1681565b600260009054906101000a900473ffffffffffffffffffffffffffffffffffffffff1681565b610b11611c64565b6000610b1b611c64565b610b23611c78565b600185815481101515610b3257fe5b906000526020600020906004020160806040519081016040529081600082015460001916600019168152602001600182015481526020016002820154600019166000191681526020016003820154815250509050610b938160000151610fd0565b935080602001519250610ba98160400151610fd0565b9150509193909250565b60046020528060005260406000206000915090505481565b60008060009054906101000a900473ffffffffffffffffffffffffffffffffffffffff1673ffffffffffffffffffffffffffffffffffffffff163373ffffffffffffffffffffffffffffffffffffffff16141515610c2857600080fd5b81600260006101000a81548173ffffffffffffffffffffffffffffffffffffffff021916908373ffffffffffffffffffffffffffffffffffffffff160217905550919050565b60076020528060005260406000206000915054906101000a900473ffffffffffffffffffffffffffffffffffffffff1681565b6000809054906101000a900473ffffffffffffffffffffffffffffffffffffffff1681565b600080610cd1611ca7565b6000809054906101000a900473ffffffffffffffffffffffffffffffffffffffff1673ffffffffffffffffffffffffffffffffffffffff163373ffffffffffffffffffffffffffffffffffffffff16141515610d2c57600080fd5b610d35896111cc565b915060c060405190810160405280836000191681526020018873ffffffffffffffffffffffffffffffffffffffff1681526020018773ffffffffffffffffffffffffffffffffffffffff168152602001898152602001868152602001858152509050806008600084600019166000191681526020019081526020016000206000820151816000019060001916905560208201518160010160006101000a81548173ffffffffffffffffffffffffffffffffffffffff021916908373ffffffffffffffffffffffffffffffffffffffff16021790555060408201518160020160006101000a81548173ffffffffffffffffffffffffffffffffffffffff021916908373ffffffffffffffffffffffffffffffffffffffff1602179055506060820151816003019080519060200190610e6d929190611d1f565b506080820151816004019080519060200190610e8a929190611d6c565b5060a0820151816005019080519060200190610ea7929190611d6c565b509050508660066000846000191660001916815260200190815260200160002060006101000a81548173ffffffffffffffffffffffffffffffffffffffff021916908373ffffffffffffffffffffffffffffffffffffffff1602179055508560076000846000191660001916815260200190815260200160002060006101000a81548173ffffffffffffffffffffffffffffffffffffffff021916908373ffffffffffffffffffffffffffffffffffffffff16021790555050509695505050505050565b600181815481101515610f7a57fe5b90600052602060002090600402016000915090508060000154908060010154908060020154908060030154905084565b600360009054906101000a900473ffffffffffffffffffffffffffffffffffffffff1681565b610fd8611c64565b610fe0611dec565b6000806000610fed611dec565b6020604051805910610ffc5750595b9080825280601f01601f1916602001820160405250945060009350600092505b60208310156110da578260080260020a876001900402600102915060007f010000000000000000000000000000000000000000000000000000000000000002827effffffffffffffffffffffffffffffffffffffffffffffffffffffffffffff19161415156110cd5781858581518110151561109457fe5b9060200101907effffffffffffffffffffffffffffffffffffffffffffffffffffffffffffff1916908160001a90535083806001019450505b828060010193505061101c565b836040518059106110e85750595b9080825280601f01601f19166020018201604052509050600092505b838310156111b057848381518110151561111a57fe5b9060200101517f010000000000000000000000000000000000000000000000000000000000000090047f010000000000000000000000000000000000000000000000000000000000000002818481518110151561117357fe5b9060200101907effffffffffffffffffffffffffffffffffffffffffffffffffffffffffffff1916908160001a9053508280600101935050611104565b8095505050505050919050565b60006001808054905003905090565b600080825114156111e357600060010290506111eb565b602082015190505b919050565b6000806000806111fe611ca7565b60008060009054906101000a900473ffffffffffffffffffffffffffffffffffffffff1673ffffffffffffffffffffffffffffffffffffffff163373ffffffffffffffffffffffffffffffffffffffff1614151561125b57600080fd5b611264896111cc565b945061126f876111cc565b93506000600460008760001916600019168152602001908152602001600020541115151561129c57600080fd5b6112a7858986611b80565b925087837fff55ed3ce151358eca857f39a3a8e3c5178eaeed3a365eb97193576a83399cd460405160405180910390a3600260009054906101000a900473ffffffffffffffffffffffffffffffffffffffff1673ffffffffffffffffffffffffffffffffffffffff16637e1f2bb8896000604051602001526040518263ffffffff167c010000000000000000000000000000000000000000000000000000000002815260040180828152602001915050602060405180830381600087803b151561137057600080fd5b6102c65a03f1151561138157600080fd5b505050604051805190505060086000856000191660001916815260200190815260200160002060c060405190810160405290816000820154600019166000191681526020016001820160009054906101000a900473ffffffffffffffffffffffffffffffffffffffff1673ffffffffffffffffffffffffffffffffffffffff1673ffffffffffffffffffffffffffffffffffffffff1681526020016002820160009054906101000a900473ffffffffffffffffffffffffffffffffffffffff1673ffffffffffffffffffffffffffffffffffffffff1673ffffffffffffffffffffffffffffffffffffffff168152602001600382018054806020026020016040519081016040528092919081815260200182805480156114c057602002820191906000526020600020905b8154815260200190600101908083116114ac575b50505050508152602001600482018054600181600116156101000203166002900480601f0160208091040260200160405190810160405280929190818152602001828054600181600116156101000203166002900480156115625780601f1061153757610100808354040283529160200191611562565b820191906000526020600020905b81548152906001019060200180831161154557829003601f168201915b50505050508152602001600582018054600181600116156101000203166002900480601f0160208091040260200160405190810160405280929190818152602001828054600181600116156101000203166002900480156116045780601f106115d957610100808354040283529160200191611604565b820191906000526020600020905b8154815290600101906020018083116115e757829003601f168201915b5050505050815250509150600360009054906101000a900473ffffffffffffffffffffffffffffffffffffffff1673ffffffffffffffffffffffffffffffffffffffff166369c672478984606001516000604051602001526040518363ffffffff167c01000000000000000000000000000000000000000000000000000000000281526004018083815260200180602001828103825283818151815260200191508051906020019060200280838360005b838110156116d05780820151818401526020810190506116b5565b505050509050019350505050602060405180830381600087803b15156116f557600080fd5b6102c65a03f1151561170657600080fd5b5050506040518051905090507fffffffffffffffffffffffffffffffffffffffffffffffffffffffffffffffff8114151561194c57600260009054906101000a900473ffffffffffffffffffffffffffffffffffffffff1673ffffffffffffffffffffffffffffffffffffffff1663bec3fa178360400151836000604051602001526040518363ffffffff167c0100000000000000000000000000000000000000000000000000000000028152600401808373ffffffffffffffffffffffffffffffffffffffff1673ffffffffffffffffffffffffffffffffffffffff16815260200182815260200192505050602060405180830381600087803b151561180c57600080fd5b6102c65a03f1151561181d57600080fd5b5050506040518051905050600260009054906101000a900473ffffffffffffffffffffffffffffffffffffffff1673ffffffffffffffffffffffffffffffffffffffff1663bec3fa1783602001516118758b85611c48565b6000604051602001526040518363ffffffff167c0100000000000000000000000000000000000000000000000000000000028152600401808373ffffffffffffffffffffffffffffffffffffffff1673ffffffffffffffffffffffffffffffffffffffff16815260200182815260200192505050602060405180830381600087803b151561190257600080fd5b6102c65a03f1151561191357600080fd5b505050604051805190505060016005600085815260200190815260200160002060006101000a81548160ff021916908360ff1602179055505b6001955050505050509392505050565b60066020528060005260406000206000915054906101000a900473ffffffffffffffffffffffffffffffffffffffff1681565b60086020528060005260406000206000915090508060000154908060010160009054906101000a900473ffffffffffffffffffffffffffffffffffffffff16908060020160009054906101000a900473ffffffffffffffffffffffffffffffffffffffff1690806004019080600501905085565b60008060009054906101000a900473ffffffffffffffffffffffffffffffffffffffff1673ffffffffffffffffffffffffffffffffffffffff163373ffffffffffffffffffffffffffffffffffffffff16141515611a6057600080fd5b81600360006101000a81548173ffffffffffffffffffffffffffffffffffffffff021916908373ffffffffffffffffffffffffffffffffffffffff160217905550919050565b6000809054906101000a900473ffffffffffffffffffffffffffffffffffffffff1673ffffffffffffffffffffffffffffffffffffffff163373ffffffffffffffffffffffffffffffffffffffff16141515611b0157600080fd5b600073ffffffffffffffffffffffffffffffffffffffff168173ffffffffffffffffffffffffffffffffffffffff1614151515611b3d57600080fd5b806000806101000a81548173ffffffffffffffffffffffffffffffffffffffff021916908373ffffffffffffffffffffffffffffffffffffffff16021790555050565b6000611b8a611c78565b600060806040519081016040528087600019168152602001868152602001856000191681526020014281525091506001808054806001018281611bcd9190611e00565b91600052602060002090600402016000859091909150600082015181600001906000191690556020820151816001015560408201518160020190600019169055606082015181600301555050039050806004600088600019166000191681526020019081526020016000208190555080925050509392505050565b6000828211151515611c5957600080fd5b818303905092915050565b602060405190810160405280600081525090565b608060405190810160405280600080191681526020016000815260200160008019168152602001600081525090565b60c06040519081016040528060008019168152602001600073ffffffffffffffffffffffffffffffffffffffff168152602001600073ffffffffffffffffffffffffffffffffffffffff168152602001611cff611e32565b8152602001611d0c611e46565b8152602001611d19611e46565b81525090565b828054828255906000526020600020908101928215611d5b579160200282015b82811115611d5a578251825591602001919060010190611d3f565b5b509050611d689190611e5a565b5090565b828054600181600116156101000203166002900490600052602060002090601f016020900481019282601f10611dad57805160ff1916838001178555611ddb565b82800160010185558215611ddb579182015b82811115611dda578251825591602001919060010190611dbf565b5b509050611de89190611e5a565b5090565b602060405190810160405280600081525090565b815481835581811511611e2d57600402816004028360005260206000209182019101611e2c9190611e7f565b5b505050565b602060405190810160405280600081525090565b602060405190810160405280600081525090565b611e7c91905b80821115611e78576000816000905550600101611e60565b5090565b90565b611ebb91905b80821115611eb75760008082016000905560018201600090556002820160009055600382016000905550600401611e85565b5090565b905600a165627a7a723058204225e99ed0d236a7ee1ba871cbfc6df305250f5e9d5089241360d79c0ab0f4200029",
  "source": "pragma solidity ^0.4.18;\n\n\nimport \"./AccessControl.sol\";\nimport \"./IndifiCoin.sol\";\nimport \"./SplitContract.sol\";\n\n\ncontract EscrowTransactions is AccessControl {\n    \n    event NewTransaction(uint256 indexed transactionId, uint256 indexed amount);\n    \n    struct Transaction {\n        bytes32 transactionHash;\n        uint256 amount;\n        bytes32 virtualAccountNumber;\n        uint timestamp;\n    }\n\n    struct VirtualAccount {\n        bytes32 virtualAccountNumber;\n        address borrowerAddress;\n        address lenderAddress;\n        uint[] policyDetails;\n        string bankAccountNumber;\n        string ifscCode;\n    }\n\n    Transaction[] public transactions;\n    \n    IndifiCoin public indifiCoin;\n    SplitContract public splitContract;\n    \n    // -------------------------------------------------------------------------\n    // To keep the position of any transaction in the transactions array\n    // key: bytes32 - bytes32 representation of the sha256 hash of the transaction\n    // value: uint256 - index of the Transaction struct in transactions array\n    // -------------------------------------------------------------------------\n    mapping(bytes32 => uint256) public transactionHashToIndex;\n    \n    // -------------------------------------------------------------------------\n    // To keep the status of the incoming transaction w.r.t settlement\n    // 0 - split not done or not such transaction\n    // 1 - split in coin contract done i.e. coins have been moved by indifi to lender and borrower respectively\n    // 2 - settlement request sent to bank\n    // 3 - settlement done\n    // -------------------------------------------------------------------------\n    mapping(uint256 => uint8) public transactionIdToStatus;\n    \n    \n    // -------------------------------------------------------------------------\n    // To keep the ethereum address of the corresponding virtual account number\n    // key: bytes32 - bytes32 representation of the virtual account number\n    // value: address - ethereum address of the borrower\n    // -------------------------------------------------------------------------\n    mapping(bytes32 => address) public borrowerAddress;\n    \n    // -------------------------------------------------------------------------\n    // To keep the ethereum address of the lender againt the virtual account number\n    // key: bytes32 - bytes32 representation of the virtual account number\n    // value: address - ethereum address of the lender\n    // -------------------------------------------------------------------------\n    mapping(bytes32 => address) public lenderAddress;\n\n     // -------------------------------------------------------------------------\n    // To keep virtual account details againt virtual account number during onboarding\n    // key: bytes32 - bytes32 representation of the virtual account number\n    // value: VirtualAccount - virtual account details\n    // -------------------------------------------------------------------------\n    mapping(bytes32 => VirtualAccount) public VirtualAccounts;\n    \n    function EscrowTransactions() public {\n        _createTransaction(0x0, 0, 0x0);\n    }\n    \n    function updateIndifiCoinAddress(address _indifiCoinAddress) public onlyOwner returns (bool) {\n        indifiCoin = IndifiCoin(_indifiCoinAddress);\n    }\n    \n    function updateSplitContractAddress(address _splitContractAddress) public onlyOwner returns (bool) {\n        splitContract = SplitContract(_splitContractAddress);\n    }\n    \n    function updateVirtualAccountConfiguration(\n        string _virtualAccountNumber, \n        uint256[] _policyDetails,\n        address _borrower,\n        address _lender,\n        string _bankAccountNumber,\n        string _ifscCode\n    ) public onlyOwner returns (bool) \n    {\n        bytes32 virtualAccountNumberBytes = _stringToBytes32(_virtualAccountNumber);\n        VirtualAccount memory va = VirtualAccount({\n            virtualAccountNumber: virtualAccountNumberBytes,\n            borrowerAddress: _borrower,\n            lenderAddress: _lender,\n            policyDetails: _policyDetails,\n            bankAccountNumber: _bankAccountNumber,\n            ifscCode: _ifscCode\n        });\n        VirtualAccounts[virtualAccountNumberBytes] = va;\n        borrowerAddress[virtualAccountNumberBytes] = _borrower;\n        lenderAddress[virtualAccountNumberBytes] = _lender;\n    }\n    \n    function newEscrowTransaction(string _hash, uint256 amount, string _vAccNo) public onlyOwner returns(bool) {\n        // check if this transaction is new by comparing hash\n        bytes32 hashBytes = _stringToBytes32(_hash);\n        bytes32 vAccNoBytes = _stringToBytes32(_vAccNo);\n        \n        require(transactionHashToIndex[hashBytes] <= 0);\n        \n        // create new Transaction object and save\n        uint256 id = _createTransaction(hashBytes, amount, vAccNoBytes);\n        \n        // emit new transaction created\n        NewTransaction(id, amount);\n\n        // allocate coins equal to the amount into owners account\n        indifiCoin.createTokens(amount);\n        VirtualAccount memory va = VirtualAccounts[vAccNoBytes];\n        \n        int256 lenderShare = splitContract.split(amount, va.policyDetails);\n        if (lenderShare != -1) {\n            indifiCoin.transferTokens(va.lenderAddress, uint256(lenderShare));\n            indifiCoin.transferTokens(va.borrowerAddress, safeSub(amount, uint256(lenderShare)));\n            transactionIdToStatus[id] = 1; // split done\n        }\n        \n        return true;\n    }\n    \n    function getTotalTransactions() public view returns (uint256) {\n        return transactions.length - 1;\n    }\n    \n    function _createTransaction(bytes32 _hashBytes, uint256 amount, bytes32 _vAccNoBytes) internal returns (uint256) {\n        Transaction memory t = Transaction({\n            transactionHash: _hashBytes,\n            amount: amount,\n            virtualAccountNumber: _vAccNoBytes,\n            timestamp: now\n        });\n        \n        uint256 id = transactions.push(t) - 1;\n        transactionHashToIndex[_hashBytes] = id;\n        \n        return id;\n    }\n\n    function getTransaction(uint256 id) public view returns(\n        string transactionHash,\n        uint256 amount,\n        string virtualAccountNumber\n    ) {\n        Transaction memory t = transactions[id];\n        transactionHash = _bytes32ToString(t.transactionHash);\n        amount = t.amount;\n        virtualAccountNumber = _bytes32ToString(t.virtualAccountNumber);\n    }\n}\n\n/*\n * TODO: add function to get currently set policy and make virtualAccountSplitPolicyMapping internal\n*/",
  "sourcePath": "/Users/Sahil/Documents/projects/blockchain/escrow-ethereum/contracts/EscrowTransactions.sol",
  "compiler": {
    "name": "solc",
    "version": "0.4.18+commit.9cf6e910.Emscripten.clang"
  },
  "schemaVersion": "1.0.1",
  "updatedAt": "2018-03-17T14:27:38.146Z"
}