{
  "contractName": "EscrowTransactions",
  "abi": [
    {
      "constant": true,
      "inputs": [
        {
          "name": "",
          "type": "uint256"
        }
      ],
      "name": "transactionIdToStatus",
      "outputs": [
        {
          "name": "",
          "type": "uint8"
        }
      ],
      "payable": false,
      "stateMutability": "view",
      "type": "function"
    },
    {
      "constant": true,
      "inputs": [],
      "name": "indifiCoin",
      "outputs": [
        {
          "name": "",
          "type": "address"
        }
      ],
      "payable": false,
      "stateMutability": "view",
      "type": "function"
    },
    {
      "constant": true,
      "inputs": [
        {
          "name": "",
          "type": "bytes32"
        },
        {
          "name": "",
          "type": "uint256"
        }
      ],
      "name": "virtualAccountSplitPolicyMapping",
      "outputs": [
        {
          "name": "",
          "type": "uint256"
        }
      ],
      "payable": false,
      "stateMutability": "view",
      "type": "function"
    },
    {
      "constant": true,
      "inputs": [
        {
          "name": "id",
          "type": "uint256"
        }
      ],
      "name": "getTransaction",
      "outputs": [
        {
          "name": "transactionHash",
          "type": "string"
        },
        {
          "name": "amount",
          "type": "uint256"
        },
        {
          "name": "virtualAccountNumber",
          "type": "string"
        }
      ],
      "payable": false,
      "stateMutability": "view",
      "type": "function"
    },
    {
      "constant": true,
      "inputs": [
        {
          "name": "",
          "type": "bytes32"
        }
      ],
      "name": "transactionHashToIndex",
      "outputs": [
        {
          "name": "",
          "type": "uint256"
        }
      ],
      "payable": false,
      "stateMutability": "view",
      "type": "function"
    },
    {
      "constant": false,
      "inputs": [
        {
          "name": "_indifiCoinAddress",
          "type": "address"
        }
      ],
      "name": "updateIndifiCoinAddress",
      "outputs": [
        {
          "name": "",
          "type": "bool"
        }
      ],
      "payable": false,
      "stateMutability": "nonpayable",
      "type": "function"
    },
    {
      "constant": false,
      "inputs": [
        {
          "name": "_virtualAccountNumber",
          "type": "string"
        },
        {
          "name": "_policyDetails",
          "type": "uint256[]"
        },
        {
          "name": "_borrower",
          "type": "address"
        },
        {
          "name": "_lender",
          "type": "address"
        }
      ],
      "name": "updateVirtualAccountConfiguration",
      "outputs": [
        {
          "name": "",
          "type": "bool"
        }
      ],
      "payable": false,
      "stateMutability": "nonpayable",
      "type": "function"
    },
    {
      "constant": true,
      "inputs": [
        {
          "name": "",
          "type": "bytes32"
        }
      ],
      "name": "lenderAddress",
      "outputs": [
        {
          "name": "",
          "type": "address"
        }
      ],
      "payable": false,
      "stateMutability": "view",
      "type": "function"
    },
    {
      "constant": true,
      "inputs": [],
      "name": "owner",
      "outputs": [
        {
          "name": "",
          "type": "address"
        }
      ],
      "payable": false,
      "stateMutability": "view",
      "type": "function"
    },
    {
      "constant": true,
      "inputs": [
        {
          "name": "",
          "type": "uint256"
        }
      ],
      "name": "transactions",
      "outputs": [
        {
          "name": "transactionHash",
          "type": "bytes32"
        },
        {
          "name": "amount",
          "type": "uint256"
        },
        {
          "name": "virtualAccountNumber",
          "type": "bytes32"
        },
        {
          "name": "timestamp",
          "type": "uint256"
        }
      ],
      "payable": false,
      "stateMutability": "view",
      "type": "function"
    },
    {
      "constant": true,
      "inputs": [],
      "name": "splitContract",
      "outputs": [
        {
          "name": "",
          "type": "address"
        }
      ],
      "payable": false,
      "stateMutability": "view",
      "type": "function"
    },
    {
      "constant": true,
      "inputs": [
        {
          "name": "x",
          "type": "bytes32"
        }
      ],
      "name": "_bytes32ToString",
      "outputs": [
        {
          "name": "",
          "type": "string"
        }
      ],
      "payable": false,
      "stateMutability": "pure",
      "type": "function"
    },
    {
      "constant": true,
      "inputs": [],
      "name": "getTotalTransactions",
      "outputs": [
        {
          "name": "",
          "type": "uint256"
        }
      ],
      "payable": false,
      "stateMutability": "view",
      "type": "function"
    },
    {
      "constant": true,
      "inputs": [
        {
          "name": "s",
          "type": "string"
        }
      ],
      "name": "_stringToBytes32",
      "outputs": [
        {
          "name": "result",
          "type": "bytes32"
        }
      ],
      "payable": false,
      "stateMutability": "pure",
      "type": "function"
    },
    {
      "constant": false,
      "inputs": [
        {
          "name": "_hash",
          "type": "string"
        },
        {
          "name": "amount",
          "type": "uint256"
        },
        {
          "name": "_vAccNo",
          "type": "string"
        }
      ],
      "name": "newEscrowTransaction",
      "outputs": [
        {
          "name": "",
          "type": "bool"
        }
      ],
      "payable": false,
      "stateMutability": "nonpayable",
      "type": "function"
    },
    {
      "constant": true,
      "inputs": [
        {
          "name": "",
          "type": "bytes32"
        }
      ],
      "name": "borrowerAddress",
      "outputs": [
        {
          "name": "",
          "type": "address"
        }
      ],
      "payable": false,
      "stateMutability": "view",
      "type": "function"
    },
    {
      "constant": false,
      "inputs": [
        {
          "name": "_splitContractAddress",
          "type": "address"
        }
      ],
      "name": "updateSplitContractAddress",
      "outputs": [
        {
          "name": "",
          "type": "bool"
        }
      ],
      "payable": false,
      "stateMutability": "nonpayable",
      "type": "function"
    },
    {
      "constant": false,
      "inputs": [
        {
          "name": "_newOwner",
          "type": "address"
        }
      ],
      "name": "transferOwnership",
      "outputs": [],
      "payable": false,
      "stateMutability": "nonpayable",
      "type": "function"
    },
    {
      "inputs": [],
      "payable": false,
      "stateMutability": "nonpayable",
      "type": "constructor"
    },
    {
      "anonymous": false,
      "inputs": [
        {
          "indexed": true,
          "name": "transactionId",
          "type": "uint256"
        },
        {
          "indexed": true,
          "name": "amount",
          "type": "uint256"
        }
      ],
      "name": "NewTransaction",
      "type": "event"
    },
    {
      "anonymous": false,
      "inputs": [
        {
          "indexed": true,
          "name": "_from",
          "type": "address"
        },
        {
          "indexed": true,
          "name": "_to",
          "type": "address"
        }
      ],
      "name": "OwnershipTransferred",
      "type": "event"
    }
  ],
  "bytecode": "0x606060405234156200001057600080fd5b336000806101000a81548173ffffffffffffffffffffffffffffffffffffffff021916908373ffffffffffffffffffffffffffffffffffffffff1602179055506200007960006001026000806001026200008064010000000002620015eb176401000000009004565b50620001f2565b60006200008c6200014c565b600060806040519081016040528087600019168152602001868152602001856000191681526020014281525091506001808054806001018281620000d191906200017b565b91600052602060002090600402016000859091909150600082015181600001906000191690556020820151816001015560408201518160020190600019169055606082015181600301555050039050806004600088600019166000191681526020019081526020016000208190555080925050509392505050565b608060405190810160405280600080191681526020016000815260200160008019168152602001600081525090565b815481835581811511620001ab57600402816004028360005260206000209182019101620001aa9190620001b0565b5b505050565b620001ef91905b80821115620001eb5760008082016000905560018201600090556002820160009055600382016000905550600401620001b7565b5090565b90565b61183580620002026000396000f3006060604052600436106100fc576000357c0100000000000000000000000000000000000000000000000000000000900463ffffffff168063072e9cb1146101015780632686ce591461013e57806331f966e41461019357806333ea3dc8146101d75780637bb963e1146102e65780637cd20b2c1461032157806381d64bff1461037257806385653407146104655780638da5cb5b146104cc5780639ace38c214610521578063a1ab609b1461057d578063ad966a03146105d2578063b5c604ff14610672578063bf6a8f9c1461069b578063bffee9b614610714578063c986168f146107d5578063e9daef661461083c578063f2fde38b1461088d575b600080fd5b341561010c57600080fd5b61012260048080359060200190919050506108c6565b604051808260ff1660ff16815260200191505060405180910390f35b341561014957600080fd5b6101516108e6565b604051808273ffffffffffffffffffffffffffffffffffffffff1673ffffffffffffffffffffffffffffffffffffffff16815260200191505060405180910390f35b341561019e57600080fd5b6101c160048080356000191690602001909190803590602001909190505061090c565b6040518082815260200191505060405180910390f35b34156101e257600080fd5b6101f8600480803590602001909190505061093d565b604051808060200184815260200180602001838103835286818151815260200191508051906020019080838360005b83811015610242578082015181840152602081019050610227565b50505050905090810190601f16801561026f5780820380516001836020036101000a031916815260200191505b50838103825284818151815260200191508051906020019080838360005b838110156102a857808201518184015260208101905061028d565b50505050905090810190601f1680156102d55780820380516001836020036101000a031916815260200191505b509550505050505060405180910390f35b34156102f157600080fd5b61030b6004808035600019169060200190919050506109e7565b6040518082815260200191505060405180910390f35b341561032c57600080fd5b610358600480803573ffffffffffffffffffffffffffffffffffffffff169060200190919050506109ff565b604051808215151515815260200191505060405180910390f35b341561037d57600080fd5b61044b600480803590602001908201803590602001908080601f016020809104026020016040519081016040528093929190818152602001838380828437820191505050505050919080359060200190820180359060200190808060200260200160405190810160405280939291908181526020018383602002808284378201915050505050509190803573ffffffffffffffffffffffffffffffffffffffff1690602001909190803573ffffffffffffffffffffffffffffffffffffffff16906020019091905050610aa2565b604051808215151515815260200191505060405180910390f35b341561047057600080fd5b61048a600480803560001916906020019091905050610bf8565b604051808273ffffffffffffffffffffffffffffffffffffffff1673ffffffffffffffffffffffffffffffffffffffff16815260200191505060405180910390f35b34156104d757600080fd5b6104df610c2b565b604051808273ffffffffffffffffffffffffffffffffffffffff1673ffffffffffffffffffffffffffffffffffffffff16815260200191505060405180910390f35b341561052c57600080fd5b6105426004808035906020019091905050610c50565b604051808560001916600019168152602001848152602001836000191660001916815260200182815260200194505050505060405180910390f35b341561058857600080fd5b610590610c8f565b604051808273ffffffffffffffffffffffffffffffffffffffff1673ffffffffffffffffffffffffffffffffffffffff16815260200191505060405180910390f35b34156105dd57600080fd5b6105f7600480803560001916906020019091905050610cb5565b6040518080602001828103825283818151815260200191508051906020019080838360005b8381101561063757808201518184015260208101905061061c565b50505050905090810190601f1680156106645780820380516001836020036101000a031916815260200191505b509250505060405180910390f35b341561067d57600080fd5b610685610ea2565b6040518082815260200191505060405180910390f35b34156106a657600080fd5b6106f6600480803590602001908201803590602001908080601f01602080910402602001604051908101604052809392919081815260200183838082843782019150505050505091905050610eb1565b60405180826000191660001916815260200191505060405180910390f35b341561071f57600080fd5b6107bb600480803590602001908201803590602001908080601f0160208091040260200160405190810160405280939291908181526020018383808284378201915050505050509190803590602001909190803590602001908201803590602001908080601f01602080910402602001604051908101604052809392919081815260200183838082843782019150505050505091905050610ed5565b604051808215151515815260200191505060405180910390f35b34156107e057600080fd5b6107fa60048080356000191690602001909190505061143b565b604051808273ffffffffffffffffffffffffffffffffffffffff1673ffffffffffffffffffffffffffffffffffffffff16815260200191505060405180910390f35b341561084757600080fd5b610873600480803573ffffffffffffffffffffffffffffffffffffffff1690602001909190505061146e565b604051808215151515815260200191505060405180910390f35b341561089857600080fd5b6108c4600480803573ffffffffffffffffffffffffffffffffffffffff16906020019091905050611511565b005b60056020528060005260406000206000915054906101000a900460ff1681565b600260009054906101000a900473ffffffffffffffffffffffffffffffffffffffff1681565b60066020528160005260406000208181548110151561092757fe5b9060005260206000209001600091509150505481565b6109456116cf565b600061094f6116cf565b6109576116e3565b60018581548110151561096657fe5b9060005260206000209060040201608060405190810160405290816000820154600019166000191681526020016001820154815260200160028201546000191660001916815260200160038201548152505090506109c78160000151610cb5565b9350806020015192506109dd8160400151610cb5565b9150509193909250565b60046020528060005260406000206000915090505481565b60008060009054906101000a900473ffffffffffffffffffffffffffffffffffffffff1673ffffffffffffffffffffffffffffffffffffffff163373ffffffffffffffffffffffffffffffffffffffff16141515610a5c57600080fd5b81600260006101000a81548173ffffffffffffffffffffffffffffffffffffffff021916908373ffffffffffffffffffffffffffffffffffffffff160217905550919050565b6000806000809054906101000a900473ffffffffffffffffffffffffffffffffffffffff1673ffffffffffffffffffffffffffffffffffffffff163373ffffffffffffffffffffffffffffffffffffffff16141515610b0057600080fd5b610b0986610eb1565b9050846006600083600019166000191681526020019081526020016000209080519060200190610b3a929190611712565b508360076000836000191660001916815260200190815260200160002060006101000a81548173ffffffffffffffffffffffffffffffffffffffff021916908373ffffffffffffffffffffffffffffffffffffffff1602179055508260086000836000191660001916815260200190815260200160002060006101000a81548173ffffffffffffffffffffffffffffffffffffffff021916908373ffffffffffffffffffffffffffffffffffffffff16021790555050949350505050565b60086020528060005260406000206000915054906101000a900473ffffffffffffffffffffffffffffffffffffffff1681565b6000809054906101000a900473ffffffffffffffffffffffffffffffffffffffff1681565b600181815481101515610c5f57fe5b90600052602060002090600402016000915090508060000154908060010154908060020154908060030154905084565b600360009054906101000a900473ffffffffffffffffffffffffffffffffffffffff1681565b610cbd6116cf565b610cc561175f565b6000806000610cd261175f565b6020604051805910610ce15750595b9080825280601f01601f1916602001820160405250945060009350600092505b6020831015610dbf578260080260020a876001900402600102915060007f010000000000000000000000000000000000000000000000000000000000000002827effffffffffffffffffffffffffffffffffffffffffffffffffffffffffffff1916141515610db257818585815181101515610d7957fe5b9060200101907effffffffffffffffffffffffffffffffffffffffffffffffffffffffffffff1916908160001a90535083806001019450505b8280600101935050610d01565b83604051805910610dcd5750595b9080825280601f01601f19166020018201604052509050600092505b83831015610e95578483815181101515610dff57fe5b9060200101517f010000000000000000000000000000000000000000000000000000000000000090047f0100000000000000000000000000000000000000000000000000000000000000028184815181101515610e5857fe5b9060200101907effffffffffffffffffffffffffffffffffffffffffffffffffffffffffffff1916908160001a9053508280600101935050610de9565b8095505050505050919050565b60006001808054905003905090565b60008082511415610ec85760006001029050610ed0565b602082015190505b919050565b6000806000806000806000809054906101000a900473ffffffffffffffffffffffffffffffffffffffff1673ffffffffffffffffffffffffffffffffffffffff163373ffffffffffffffffffffffffffffffffffffffff16141515610f3957600080fd5b610f4289610eb1565b9450610f4d87610eb1565b935060006004600087600019166000191681526020019081526020016000205411151515610f7a57600080fd5b610f858589866115eb565b925087837fff55ed3ce151358eca857f39a3a8e3c5178eaeed3a365eb97193576a83399cd460405160405180910390a3600260009054906101000a900473ffffffffffffffffffffffffffffffffffffffff1673ffffffffffffffffffffffffffffffffffffffff16637e1f2bb8896000604051602001526040518263ffffffff167c010000000000000000000000000000000000000000000000000000000002815260040180828152602001915050602060405180830381600087803b151561104e57600080fd5b6102c65a03f1151561105f57600080fd5b50505060405180519050506006600085600019166000191681526020019081526020016000209150600360009054906101000a900473ffffffffffffffffffffffffffffffffffffffff1673ffffffffffffffffffffffffffffffffffffffff166369c6724789846000604051602001526040518363ffffffff167c01000000000000000000000000000000000000000000000000000000000281526004018083815260200180602001828103825283818154815260200191508054801561114657602002820191906000526020600020905b815481526020019060010190808311611132575b50509350505050602060405180830381600087803b151561116657600080fd5b6102c65a03f1151561117757600080fd5b5050506040518051905090507fffffffffffffffffffffffffffffffffffffffffffffffffffffffffffffffff8114151561142b57600260009054906101000a900473ffffffffffffffffffffffffffffffffffffffff1673ffffffffffffffffffffffffffffffffffffffff1663bec3fa1760086000876000191660001916815260200190815260200160002060009054906101000a900473ffffffffffffffffffffffffffffffffffffffff16836000604051602001526040518363ffffffff167c0100000000000000000000000000000000000000000000000000000000028152600401808373ffffffffffffffffffffffffffffffffffffffff1673ffffffffffffffffffffffffffffffffffffffff16815260200182815260200192505050602060405180830381600087803b15156112b457600080fd5b6102c65a03f115156112c557600080fd5b5050506040518051905050600260009054906101000a900473ffffffffffffffffffffffffffffffffffffffff1673ffffffffffffffffffffffffffffffffffffffff1663bec3fa1760076000876000191660001916815260200190815260200160002060009054906101000a900473ffffffffffffffffffffffffffffffffffffffff166113548b856116b3565b6000604051602001526040518363ffffffff167c0100000000000000000000000000000000000000000000000000000000028152600401808373ffffffffffffffffffffffffffffffffffffffff1673ffffffffffffffffffffffffffffffffffffffff16815260200182815260200192505050602060405180830381600087803b15156113e157600080fd5b6102c65a03f115156113f257600080fd5b505050604051805190505060016005600085815260200190815260200160002060006101000a81548160ff021916908360ff1602179055505b6001955050505050509392505050565b60076020528060005260406000206000915054906101000a900473ffffffffffffffffffffffffffffffffffffffff1681565b60008060009054906101000a900473ffffffffffffffffffffffffffffffffffffffff1673ffffffffffffffffffffffffffffffffffffffff163373ffffffffffffffffffffffffffffffffffffffff161415156114cb57600080fd5b81600360006101000a81548173ffffffffffffffffffffffffffffffffffffffff021916908373ffffffffffffffffffffffffffffffffffffffff160217905550919050565b6000809054906101000a900473ffffffffffffffffffffffffffffffffffffffff1673ffffffffffffffffffffffffffffffffffffffff163373ffffffffffffffffffffffffffffffffffffffff1614151561156c57600080fd5b600073ffffffffffffffffffffffffffffffffffffffff168173ffffffffffffffffffffffffffffffffffffffff16141515156115a857600080fd5b806000806101000a81548173ffffffffffffffffffffffffffffffffffffffff021916908373ffffffffffffffffffffffffffffffffffffffff16021790555050565b60006115f56116e3565b6000608060405190810160405280876000191681526020018681526020018560001916815260200142815250915060018080548060010182816116389190611773565b91600052602060002090600402016000859091909150600082015181600001906000191690556020820151816001015560408201518160020190600019169055606082015181600301555050039050806004600088600019166000191681526020019081526020016000208190555080925050509392505050565b60008282111515156116c457600080fd5b818303905092915050565b602060405190810160405280600081525090565b608060405190810160405280600080191681526020016000815260200160008019168152602001600081525090565b82805482825590600052602060002090810192821561174e579160200282015b8281111561174d578251825591602001919060010190611732565b5b50905061175b91906117a5565b5090565b602060405190810160405280600081525090565b8154818355818115116117a05760040281600402836000526020600020918201910161179f91906117ca565b5b505050565b6117c791905b808211156117c35760008160009055506001016117ab565b5090565b90565b61180691905b8082111561180257600080820160009055600182016000905560028201600090556003820160009055506004016117d0565b5090565b905600a165627a7a72305820088c4555777167eaa9ce418f9f2c33bc2ee9f635930b8775a7a83d31c1566c110029",
  "source": "pragma solidity ^0.4.18;\n\n\nimport \"./AccessControl.sol\";\nimport \"./IndifiCoin.sol\";\nimport \"./SplitContract.sol\";\n\n\ncontract EscrowTransactions is AccessControl {\n    \n    event NewTransaction(uint256 indexed transactionId, uint256 indexed amount);\n    \n    struct Transaction {\n        bytes32 transactionHash;\n        uint256 amount;\n        bytes32 virtualAccountNumber;\n        uint timestamp;\n    }\n\n    Transaction[] public transactions;\n    \n    IndifiCoin public indifiCoin;\n    SplitContract public splitContract;\n    \n    // -------------------------------------------------------------------------\n    // To keep the position of any transaction in the transactions array\n    // key: bytes32 - bytes32 representation of the sha256 hash of the transaction\n    // value: uint256 - index of the Transaction struct in transactions array\n    // -------------------------------------------------------------------------\n    mapping(bytes32 => uint256) public transactionHashToIndex;\n    \n    // -------------------------------------------------------------------------\n    // To keep the status of the incoming transaction w.r.t settlement\n    // 0 - split not done or not such transaction\n    // 1 - split in coin contract done i.e. coins have been moved by indifi to lender and borrower respectively\n    // 2 - settlement request sent to bank\n    // 3 - settlement done\n    // -------------------------------------------------------------------------\n    mapping(uint256 => uint8) public transactionIdToStatus;\n    \n    mapping(bytes32 => uint256[]) public virtualAccountSplitPolicyMapping;\n    \n    // -------------------------------------------------------------------------\n    // To keep the ethereum address of the corresponding virtual account number\n    // key: bytes32 - bytes32 representation of the virtual account number\n    // value: address - ethereum address of the borrower\n    // -------------------------------------------------------------------------\n    mapping(bytes32 => address) public borrowerAddress;\n    \n    // -------------------------------------------------------------------------\n    // To keep the ethereum address of the lender againt the virtual account number\n    // key: bytes32 - bytes32 representation of the virtual account number\n    // value: address - ethereum address of the lender\n    // -------------------------------------------------------------------------\n    mapping(bytes32 => address) public lenderAddress;\n    \n    function EscrowTransactions() public {\n        _createTransaction(0x0, 0, 0x0);\n    }\n    \n    function updateIndifiCoinAddress(address _indifiCoinAddress) public onlyOwner returns (bool) {\n        indifiCoin = IndifiCoin(_indifiCoinAddress);\n    }\n    \n    function updateSplitContractAddress(address _splitContractAddress) public onlyOwner returns (bool) {\n        splitContract = SplitContract(_splitContractAddress);\n    }\n    \n    function updateVirtualAccountConfiguration(\n        string _virtualAccountNumber, \n        uint256[] _policyDetails,\n        address _borrower,\n        address _lender\n    ) public onlyOwner returns (bool) {\n        bytes32 virtualAccountNumberBytes = _stringToBytes32(_virtualAccountNumber);\n        virtualAccountSplitPolicyMapping[virtualAccountNumberBytes] = _policyDetails;\n        borrowerAddress[virtualAccountNumberBytes] = _borrower;\n        lenderAddress[virtualAccountNumberBytes] = _lender;\n    }\n    \n    function newEscrowTransaction(string _hash, uint256 amount, string _vAccNo) public onlyOwner returns(bool) {\n        // check if this transaction is new by comparing hash\n        bytes32 hashBytes = _stringToBytes32(_hash);\n        bytes32 vAccNoBytes = _stringToBytes32(_vAccNo);\n        \n        require(transactionHashToIndex[hashBytes] <= 0);\n        \n        // create new Transaction object and save\n        uint256 id = _createTransaction(hashBytes, amount, vAccNoBytes);\n        \n        // emit new transaction created\n        NewTransaction(id, amount);\n\n        // allocate coins equal to the amount into owners account\n        indifiCoin.createTokens(amount);\n        uint256[] storage policyDetails = virtualAccountSplitPolicyMapping[vAccNoBytes];\n        \n        int256 lenderShare = splitContract.split(amount, policyDetails);\n        if (lenderShare != -1) {\n            indifiCoin.transferTokens(lenderAddress[vAccNoBytes], uint256(lenderShare));\n            indifiCoin.transferTokens(borrowerAddress[vAccNoBytes], safeSub(amount, uint256(lenderShare)));\n            transactionIdToStatus[id] = 1; // split done\n        }\n        \n        return true;\n    }\n    \n    function getTotalTransactions() public view returns (uint256) {\n        return transactions.length - 1;\n    }\n    \n    function _createTransaction(bytes32 _hashBytes, uint256 amount, bytes32 _vAccNoBytes) internal returns (uint256) {\n        Transaction memory t = Transaction({\n            transactionHash: _hashBytes,\n            amount: amount,\n            virtualAccountNumber: _vAccNoBytes,\n            timestamp: now\n        });\n        \n        uint256 id = transactions.push(t) - 1;\n        transactionHashToIndex[_hashBytes] = id;\n        \n        return id;\n    }\n\n    function getTransaction(uint256 id) public view returns(\n        string transactionHash,\n        uint256 amount,\n        string virtualAccountNumber\n    ) {\n        Transaction memory t = transactions[id];\n        transactionHash = _bytes32ToString(t.transactionHash);\n        amount = t.amount;\n        virtualAccountNumber = _bytes32ToString(t.virtualAccountNumber);\n    }\n}\n\n/*\n * TODO: add function to get currently set policy and make virtualAccountSplitPolicyMapping internal\n*/",
  "sourcePath": "/Users/aditya/Documents/indifi/blockchain/escrow-ethereum/contracts/EscrowTransactions.sol",
  "compiler": {
    "name": "solc",
    "version": "0.4.18+commit.9cf6e910.Emscripten.clang"
  },
  "schemaVersion": "1.0.1",
  "updatedAt": "2018-03-17T10:26:24.192Z"
}