{
  "contractName": "EscrowTransactions",
  "abi": [
    {
      "constant": true,
      "inputs": [
        {
          "name": "",
          "type": "uint256"
        }
      ],
      "name": "transactionIdToLenderSharesId",
      "outputs": [
        {
          "name": "",
          "type": "uint256"
        }
      ],
      "payable": false,
      "stateMutability": "view",
      "type": "function"
    },
    {
      "constant": true,
      "inputs": [
        {
          "name": "",
          "type": "uint256"
        }
      ],
      "name": "transactionIdToBorrowerSharesId",
      "outputs": [
        {
          "name": "",
          "type": "uint256"
        }
      ],
      "payable": false,
      "stateMutability": "view",
      "type": "function"
    },
    {
      "constant": true,
      "inputs": [],
      "name": "indifiCoin",
      "outputs": [
        {
          "name": "",
          "type": "address"
        }
      ],
      "payable": false,
      "stateMutability": "view",
      "type": "function"
    },
    {
      "constant": true,
      "inputs": [
        {
          "name": "id",
          "type": "uint256"
        }
      ],
      "name": "getTransaction",
      "outputs": [
        {
          "name": "transactionHash",
          "type": "string"
        },
        {
          "name": "amount",
          "type": "uint256"
        },
        {
          "name": "virtualAccountNumber",
          "type": "string"
        },
        {
          "name": "borrowerShareId",
          "type": "uint256"
        },
        {
          "name": "lenderShareId",
          "type": "uint256"
        }
      ],
      "payable": false,
      "stateMutability": "view",
      "type": "function"
    },
    {
      "constant": true,
      "inputs": [
        {
          "name": "",
          "type": "uint256"
        }
      ],
      "name": "splitTransactions",
      "outputs": [
        {
          "name": "shareAmount",
          "type": "uint256"
        },
        {
          "name": "status",
          "type": "uint8"
        }
      ],
      "payable": false,
      "stateMutability": "view",
      "type": "function"
    },
    {
      "constant": true,
      "inputs": [
        {
          "name": "",
          "type": "uint256"
        }
      ],
      "name": "virtualAccounts",
      "outputs": [
        {
          "name": "virtualAccountNumber",
          "type": "bytes32"
        },
        {
          "name": "borrowerAddress",
          "type": "address"
        },
        {
          "name": "lenderAddress",
          "type": "address"
        },
        {
          "name": "bankAccountNumber",
          "type": "bytes32"
        },
        {
          "name": "ifscCode",
          "type": "bytes32"
        }
      ],
      "payable": false,
      "stateMutability": "view",
      "type": "function"
    },
    {
      "constant": true,
      "inputs": [
        {
          "name": "",
          "type": "bytes32"
        }
      ],
      "name": "virtualAccountsToIndex",
      "outputs": [
        {
          "name": "",
          "type": "uint32"
        }
      ],
      "payable": false,
      "stateMutability": "view",
      "type": "function"
    },
    {
      "constant": true,
      "inputs": [
        {
          "name": "",
          "type": "bytes32"
        }
      ],
      "name": "transactionHashToIndex",
      "outputs": [
        {
          "name": "",
          "type": "uint256"
        }
      ],
      "payable": false,
      "stateMutability": "view",
      "type": "function"
    },
    {
      "constant": false,
      "inputs": [
        {
          "name": "_indifiCoinAddress",
          "type": "address"
        }
      ],
      "name": "updateIndifiCoinAddress",
      "outputs": [
        {
          "name": "",
          "type": "bool"
        }
      ],
      "payable": false,
      "stateMutability": "nonpayable",
      "type": "function"
    },
    {
      "constant": true,
      "inputs": [],
      "name": "owner",
      "outputs": [
        {
          "name": "",
          "type": "address"
        }
      ],
      "payable": false,
      "stateMutability": "view",
      "type": "function"
    },
    {
      "constant": false,
      "inputs": [
        {
          "name": "ids",
          "type": "uint256[]"
        }
      ],
      "name": "updateSplitStatusToSentForSettlement",
      "outputs": [
        {
          "name": "",
          "type": "bool"
        }
      ],
      "payable": false,
      "stateMutability": "nonpayable",
      "type": "function"
    },
    {
      "constant": false,
      "inputs": [
        {
          "name": "_virtualAccountNumber",
          "type": "string"
        },
        {
          "name": "_policyDetails",
          "type": "uint256[]"
        },
        {
          "name": "_borrower",
          "type": "address"
        },
        {
          "name": "_lender",
          "type": "address"
        },
        {
          "name": "_bankAccountNumber",
          "type": "string"
        },
        {
          "name": "_ifscCode",
          "type": "string"
        }
      ],
      "name": "updateVirtualAccountConfiguration",
      "outputs": [
        {
          "name": "",
          "type": "uint32"
        }
      ],
      "payable": false,
      "stateMutability": "nonpayable",
      "type": "function"
    },
    {
      "constant": true,
      "inputs": [
        {
          "name": "",
          "type": "uint256"
        }
      ],
      "name": "transactions",
      "outputs": [
        {
          "name": "transactionHash",
          "type": "bytes32"
        },
        {
          "name": "amount",
          "type": "uint256"
        },
        {
          "name": "virtualAccountNumber",
          "type": "bytes32"
        },
        {
          "name": "timestamp",
          "type": "uint256"
        }
      ],
      "payable": false,
      "stateMutability": "view",
      "type": "function"
    },
    {
      "constant": true,
      "inputs": [],
      "name": "splitContract",
      "outputs": [
        {
          "name": "",
          "type": "address"
        }
      ],
      "payable": false,
      "stateMutability": "view",
      "type": "function"
    },
    {
      "constant": true,
      "inputs": [
        {
          "name": "x",
          "type": "bytes32"
        }
      ],
      "name": "_bytes32ToString",
      "outputs": [
        {
          "name": "",
          "type": "string"
        }
      ],
      "payable": false,
      "stateMutability": "pure",
      "type": "function"
    },
    {
      "constant": true,
      "inputs": [],
      "name": "getTotalTransactions",
      "outputs": [
        {
          "name": "",
          "type": "uint256"
        }
      ],
      "payable": false,
      "stateMutability": "view",
      "type": "function"
    },
    {
      "constant": true,
      "inputs": [
        {
          "name": "s",
          "type": "string"
        }
      ],
      "name": "_stringToBytes32",
      "outputs": [
        {
          "name": "result",
          "type": "bytes32"
        }
      ],
      "payable": false,
      "stateMutability": "pure",
      "type": "function"
    },
    {
      "constant": false,
      "inputs": [
        {
          "name": "_hash",
          "type": "string"
        },
        {
          "name": "amount",
          "type": "uint256"
        },
        {
          "name": "_vAccNo",
          "type": "string"
        }
      ],
      "name": "newEscrowTransaction",
      "outputs": [
        {
          "name": "",
          "type": "bool"
        }
      ],
      "payable": false,
      "stateMutability": "nonpayable",
      "type": "function"
    },
    {
      "constant": false,
      "inputs": [
        {
          "name": "ids",
          "type": "uint256[]"
        }
      ],
      "name": "updateSplitStatusToSettled",
      "outputs": [
        {
          "name": "",
          "type": "bool"
        }
      ],
      "payable": false,
      "stateMutability": "nonpayable",
      "type": "function"
    },
    {
      "constant": true,
      "inputs": [],
      "name": "getTotalVirtualAccounts",
      "outputs": [
        {
          "name": "",
          "type": "uint256"
        }
      ],
      "payable": false,
      "stateMutability": "view",
      "type": "function"
    },
    {
      "constant": false,
      "inputs": [
        {
          "name": "_splitContractAddress",
          "type": "address"
        }
      ],
      "name": "updateSplitContractAddress",
      "outputs": [
        {
          "name": "",
          "type": "bool"
        }
      ],
      "payable": false,
      "stateMutability": "nonpayable",
      "type": "function"
    },
    {
      "constant": false,
      "inputs": [
        {
          "name": "_newOwner",
          "type": "address"
        }
      ],
      "name": "transferOwnership",
      "outputs": [],
      "payable": false,
      "stateMutability": "nonpayable",
      "type": "function"
    },
    {
      "constant": true,
      "inputs": [
        {
          "name": "id",
          "type": "uint32"
        }
      ],
      "name": "getVirtualAccount",
      "outputs": [
        {
          "name": "virtualAccountNumber",
          "type": "string"
        },
        {
          "name": "borrowerAddress",
          "type": "address"
        },
        {
          "name": "lenderAddress",
          "type": "address"
        },
        {
          "name": "policyDetails",
          "type": "uint256[]"
        },
        {
          "name": "bankAccountNumber",
          "type": "string"
        },
        {
          "name": "ifscCode",
          "type": "string"
        }
      ],
      "payable": false,
      "stateMutability": "view",
      "type": "function"
    },
    {
      "inputs": [],
      "payable": false,
      "stateMutability": "nonpayable",
      "type": "constructor"
    },
    {
      "anonymous": false,
      "inputs": [
        {
          "indexed": true,
          "name": "transactionId",
          "type": "uint256"
        },
        {
          "indexed": true,
          "name": "amount",
          "type": "uint256"
        }
      ],
      "name": "NewTransaction",
      "type": "event"
    },
    {
      "anonymous": false,
      "inputs": [
        {
          "indexed": true,
          "name": "_from",
          "type": "address"
        },
        {
          "indexed": true,
          "name": "_to",
          "type": "address"
        }
      ],
      "name": "OwnershipTransferred",
      "type": "event"
    }
  ],
  "bytecode": "0x606060405234156200001057600080fd5b336000806101000a81548173ffffffffffffffffffffffffffffffffffffffff021916908373ffffffffffffffffffffffffffffffffffffffff160217905550620000796000600102600080600102620000f66401000000000262002142176401000000009004565b50620000ef602060405190810160405280600081525060026040518059106200009f5750595b908082528060200260200182016040525060008060206040519081016040528060008152506020604051908101604052806000815250620001c36401000000000262001150176401000000009004565b506200070c565b60006200010262000472565b60006080604051908101604052808760001916815260200186815260200185600019168152602001428152509150600160038054806001018281620001489190620004a1565b91600052602060002090600402016000859091909150600082015181600001906000191690556020820151816001015560408201518160020190600019169055606082015181600301555050039050806007600088600019166000191681526020019081526020016000208190555080925050509392505050565b600080620001d0620004d6565b60008060009054906101000a900473ffffffffffffffffffffffffffffffffffffffff1673ffffffffffffffffffffffffffffffffffffffff163373ffffffffffffffffffffffffffffffffffffffff161415156200022e57600080fd5b6200024d8a6200044c64010000000002620015f2176401000000009004565b925060c060405190810160405280846000191681526020018973ffffffffffffffffffffffffffffffffffffffff1681526020018873ffffffffffffffffffffffffffffffffffffffff1681526020018a8152602001620002c2886200044c64010000000002620015f2176401000000009004565b600019168152602001620002ea876200044c64010000000002620015f2176401000000009004565b60001916815250915060018080548060010182816200030a91906200054a565b916000526020600020906006020160008590919091506000820151816000019060001916905560208201518160010160006101000a81548173ffffffffffffffffffffffffffffffffffffffff021916908373ffffffffffffffffffffffffffffffffffffffff16021790555060408201518160020160006101000a81548173ffffffffffffffffffffffffffffffffffffffff021916908373ffffffffffffffffffffffffffffffffffffffff1602179055506060820151816003019080519060200190620003dc9291906200057f565b506080820151816004019060001916905560a0820151816005019060001916905550500390508060026000856000191660001916815260200190815260200160002060006101000a81548163ffffffff021916908363ffffffff1602179055508093505050509695505050505050565b600080825114156200046557600060010290506200046d565b602082015190505b919050565b608060405190810160405280600080191681526020016000815260200160008019168152602001600081525090565b815481835581811511620004d157600402816004028360005260206000209182019101620004d09190620005d1565b5b505050565b60c06040519081016040528060008019168152602001600073ffffffffffffffffffffffffffffffffffffffff168152602001600073ffffffffffffffffffffffffffffffffffffffff1681526020016200053062000613565b815260200160008019168152602001600080191681525090565b8154818355818115116200057a5760060281600602836000526020600020918201910162000579919062000627565b5b505050565b828054828255906000526020600020908101928215620005be579160200282015b82811115620005bd578251825591602001919060010190620005a0565b5b509050620005cd9190620006c1565b5090565b6200061091905b808211156200060c5760008082016000905560018201600090556002820160009055600382016000905550600401620005d8565b5090565b90565b602060405190810160405280600081525090565b620006be91905b80821115620006ba576000808201600090556001820160006101000a81549073ffffffffffffffffffffffffffffffffffffffff02191690556002820160006101000a81549073ffffffffffffffffffffffffffffffffffffffff0219169055600382016000620006a09190620006e9565b60048201600090556005820160009055506006016200062e565b5090565b90565b620006e691905b80821115620006e2576000816000905550600101620006c8565b5090565b90565b5080546000825590600052602060002090810190620007099190620006c1565b50565b612626806200071c6000396000f300606060405260043610610133576000357c0100000000000000000000000000000000000000000000000000000000900463ffffffff1680630b55098614610138578063249fa5ba1461016f5780632686ce59146101a657806333ea3dc8146101fb5780633ce72f15146103185780635aa828641461035c57806377d60bcb1461041f5780637bb963e1146104665780637cd20b2c146104a15780638da5cb5b146104f2578063929f6baf1461054757806394816511146105b95780639ace38c21461073a578063a1ab609b14610796578063ad966a03146107eb578063b5c604ff1461088b578063bf6a8f9c146108b4578063bffee9b61461092d578063c9de2052146109ee578063e7a30f9714610a60578063e9daef6614610a89578063f2fde38b14610ada578063f422c1cd14610b13575b600080fd5b341561014357600080fd5b6101596004808035906020019091905050610d3b565b6040518082815260200191505060405180910390f35b341561017a57600080fd5b6101906004808035906020019091905050610d53565b6040518082815260200191505060405180910390f35b34156101b157600080fd5b6101b9610d6b565b604051808273ffffffffffffffffffffffffffffffffffffffff1673ffffffffffffffffffffffffffffffffffffffff16815260200191505060405180910390f35b341561020657600080fd5b61021c6004808035906020019091905050610d91565b604051808060200186815260200180602001858152602001848152602001838103835288818151815260200191508051906020019080838360005b83811015610272578082015181840152602081019050610257565b50505050905090810190601f16801561029f5780820380516001836020036101000a031916815260200191505b50838103825286818151815260200191508051906020019080838360005b838110156102d85780820151818401526020810190506102bd565b50505050905090810190601f1680156103055780820380516001836020036101000a031916815260200191505b5097505050505050505060405180910390f35b341561032357600080fd5b6103396004808035906020019091905050610e6c565b604051808381526020018260ff1660ff1681526020019250505060405180910390f35b341561036757600080fd5b61037d6004808035906020019091905050610eac565b6040518086600019166000191681526020018573ffffffffffffffffffffffffffffffffffffffff1673ffffffffffffffffffffffffffffffffffffffff1681526020018473ffffffffffffffffffffffffffffffffffffffff1673ffffffffffffffffffffffffffffffffffffffff168152602001836000191660001916815260200182600019166000191681526020019550505050505060405180910390f35b341561042a57600080fd5b610444600480803560001916906020019091905050610f31565b604051808263ffffffff1663ffffffff16815260200191505060405180910390f35b341561047157600080fd5b61048b600480803560001916906020019091905050610f54565b6040518082815260200191505060405180910390f35b34156104ac57600080fd5b6104d8600480803573ffffffffffffffffffffffffffffffffffffffff16906020019091905050610f6c565b604051808215151515815260200191505060405180910390f35b34156104fd57600080fd5b61050561100f565b604051808273ffffffffffffffffffffffffffffffffffffffff1673ffffffffffffffffffffffffffffffffffffffff16815260200191505060405180910390f35b341561055257600080fd5b61059f600480803590602001908201803590602001908080602002602001604051908101604052809392919081815260200183836020028082843782019150505050505091905050611034565b604051808215151515815260200191505060405180910390f35b34156105c457600080fd5b610718600480803590602001908201803590602001908080601f016020809104026020016040519081016040528093929190818152602001838380828437820191505050505050919080359060200190820180359060200190808060200260200160405190810160405280939291908181526020018383602002808284378201915050505050509190803573ffffffffffffffffffffffffffffffffffffffff1690602001909190803573ffffffffffffffffffffffffffffffffffffffff1690602001909190803590602001908201803590602001908080601f0160208091040260200160405190810160405280939291908181526020018383808284378201915050505050509190803590602001908201803590602001908080601f01602080910402602001604051908101604052809392919081815260200183838082843782019150505050505091905050611150565b604051808263ffffffff1663ffffffff16815260200191505060405180910390f35b341561074557600080fd5b61075b6004808035906020019091905050611390565b604051808560001916600019168152602001848152602001836000191660001916815260200182815260200194505050505060405180910390f35b34156107a157600080fd5b6107a96113cf565b604051808273ffffffffffffffffffffffffffffffffffffffff1673ffffffffffffffffffffffffffffffffffffffff16815260200191505060405180910390f35b34156107f657600080fd5b6108106004808035600019169060200190919050506113f5565b6040518080602001828103825283818151815260200191508051906020019080838360005b83811015610850578082015181840152602081019050610835565b50505050905090810190601f16801561087d5780820380516001836020036101000a031916815260200191505b509250505060405180910390f35b341561089657600080fd5b61089e6115e2565b6040518082815260200191505060405180910390f35b34156108bf57600080fd5b61090f600480803590602001908201803590602001908080601f016020809104026020016040519081016040528093929190818152602001838380828437820191505050505050919050506115f2565b60405180826000191660001916815260200191505060405180910390f35b341561093857600080fd5b6109d4600480803590602001908201803590602001908080601f0160208091040260200160405190810160405280939291908181526020018383808284378201915050505050509190803590602001909190803590602001908201803590602001908080601f01602080910402602001604051908101604052809392919081815260200183838082843782019150505050505091905050611616565b604051808215151515815260200191505060405180910390f35b34156109f957600080fd5b610a46600480803590602001908201803590602001908080602002602001604051908101604052809392919081815260200183836020028082843782019150505050505091905050611cb8565b604051808215151515815260200191505060405180910390f35b3415610a6b57600080fd5b610a73611dd4565b6040518082815260200191505060405180910390f35b3415610a9457600080fd5b610ac0600480803573ffffffffffffffffffffffffffffffffffffffff16906020019091905050611de3565b604051808215151515815260200191505060405180910390f35b3415610ae557600080fd5b610b11600480803573ffffffffffffffffffffffffffffffffffffffff16906020019091905050611e86565b005b3415610b1e57600080fd5b610b3a600480803563ffffffff16906020019091905050611f60565b60405180806020018773ffffffffffffffffffffffffffffffffffffffff1673ffffffffffffffffffffffffffffffffffffffff1681526020018673ffffffffffffffffffffffffffffffffffffffff1673ffffffffffffffffffffffffffffffffffffffff16815260200180602001806020018060200185810385528b818151815260200191508051906020019080838360005b83811015610bea578082015181840152602081019050610bcf565b50505050905090810190601f168015610c175780820380516001836020036101000a031916815260200191505b50858103845288818151815260200191508051906020019060200280838360005b83811015610c53578082015181840152602081019050610c38565b50505050905001858103835287818151815260200191508051906020019080838360005b83811015610c92578082015181840152602081019050610c77565b50505050905090810190601f168015610cbf5780820380516001836020036101000a031916815260200191505b50858103825286818151815260200191508051906020019080838360005b83811015610cf8578082015181840152602081019050610cdd565b50505050905090810190601f168015610d255780820380516001836020036101000a031916815260200191505b509a505050505050505050505060405180910390f35b60096020528060005260406000206000915090505481565b60086020528060005260406000206000915090505481565b600560009054906101000a900473ffffffffffffffffffffffffffffffffffffffff1681565b610d996122b4565b6000610da36122b4565b600080610dae6122c8565b600387815481101515610dbd57fe5b906000526020600020906004020160806040519081016040529081600082015460001916600019168152602001600182015481526020016002820154600019166000191681526020016003820154815250509050610e1e81600001516113f5565b955080602001519450610e3481604001516113f5565b935060086000888152602001908152602001600020549250600960008881526020019081526020016000205491505091939590929450565b600481815481101515610e7b57fe5b90600052602060002090600202016000915090508060000154908060010160009054906101000a900460ff16905082565b600181815481101515610ebb57fe5b90600052602060002090600602016000915090508060000154908060010160009054906101000a900473ffffffffffffffffffffffffffffffffffffffff16908060020160009054906101000a900473ffffffffffffffffffffffffffffffffffffffff16908060040154908060050154905085565b60026020528060005260406000206000915054906101000a900463ffffffff1681565b60076020528060005260406000206000915090505481565b60008060009054906101000a900473ffffffffffffffffffffffffffffffffffffffff1673ffffffffffffffffffffffffffffffffffffffff163373ffffffffffffffffffffffffffffffffffffffff16141515610fc957600080fd5b81600560006101000a81548173ffffffffffffffffffffffffffffffffffffffff021916908373ffffffffffffffffffffffffffffffffffffffff160217905550919050565b6000809054906101000a900473ffffffffffffffffffffffffffffffffffffffff1681565b60008061103f6122f7565b600091505b8351821015611149576004848381518110151561105d57fe5b9060200190602002015181548110151561107357fe5b9060005260206000209060020201604080519081016040529081600082015481526020016001820160009054906101000a900460ff1660ff1660ff168152505090506001816020015160ff16141561113c576002816020019060ff16908160ff168152505080600485848151811015156110e957fe5b906020019060200201518154811015156110ff57fe5b90600052602060002090600202016000820151816000015560208201518160010160006101000a81548160ff021916908360ff1602179055509050505b8180600101925050611044565b5050919050565b60008061115b612314565b60008060009054906101000a900473ffffffffffffffffffffffffffffffffffffffff1673ffffffffffffffffffffffffffffffffffffffff163373ffffffffffffffffffffffffffffffffffffffff161415156111b857600080fd5b6111c18a6115f2565b925060c060405190810160405280846000191681526020018973ffffffffffffffffffffffffffffffffffffffff1681526020018873ffffffffffffffffffffffffffffffffffffffff1681526020018a8152602001611220886115f2565b600019168152602001611232876115f2565b60001916815250915060018080548060010182816112509190612386565b916000526020600020906006020160008590919091506000820151816000019060001916905560208201518160010160006101000a81548173ffffffffffffffffffffffffffffffffffffffff021916908373ffffffffffffffffffffffffffffffffffffffff16021790555060408201518160020160006101000a81548173ffffffffffffffffffffffffffffffffffffffff021916908373ffffffffffffffffffffffffffffffffffffffff16021790555060608201518160030190805190602001906113209291906123b8565b506080820151816004019060001916905560a0820151816005019060001916905550500390508060026000856000191660001916815260200190815260200160002060006101000a81548163ffffffff021916908363ffffffff1602179055508093505050509695505050505050565b60038181548110151561139f57fe5b90600052602060002090600402016000915090508060000154908060010154908060020154908060030154905084565b600660009054906101000a900473ffffffffffffffffffffffffffffffffffffffff1681565b6113fd6122b4565b611405612405565b6000806000611412612405565b60206040518059106114215750595b9080825280601f01601f1916602001820160405250945060009350600092505b60208310156114ff578260080260020a876001900402600102915060007f010000000000000000000000000000000000000000000000000000000000000002827effffffffffffffffffffffffffffffffffffffffffffffffffffffffffffff19161415156114f2578185858151811015156114b957fe5b9060200101907effffffffffffffffffffffffffffffffffffffffffffffffffffffffffffff1916908160001a90535083806001019450505b8280600101935050611441565b8360405180591061150d5750595b9080825280601f01601f19166020018201604052509050600092505b838310156115d557848381518110151561153f57fe5b9060200101517f010000000000000000000000000000000000000000000000000000000000000090047f010000000000000000000000000000000000000000000000000000000000000002818481518110151561159857fe5b9060200101907effffffffffffffffffffffffffffffffffffffffffffffffffffffffffffff1916908160001a9053508280600101935050611529565b8095505050505050919050565b6000600160038054905003905090565b600080825114156116095760006001029050611611565b602082015190505b919050565b600080600080611624612314565b6000806000806000809054906101000a900473ffffffffffffffffffffffffffffffffffffffff1673ffffffffffffffffffffffffffffffffffffffff163373ffffffffffffffffffffffffffffffffffffffff1614151561168557600080fd5b61168e8c6115f2565b97506116998a6115f2565b96506000600760008a6000191660001916815260200190815260200160002054111515156116c657600080fd5b6116d1888c89612142565b95508a867fff55ed3ce151358eca857f39a3a8e3c5178eaeed3a365eb97193576a83399cd460405160405180910390a3600560009054906101000a900473ffffffffffffffffffffffffffffffffffffffff1673ffffffffffffffffffffffffffffffffffffffff16637e1f2bb88c6000604051602001526040518263ffffffff167c010000000000000000000000000000000000000000000000000000000002815260040180828152602001915050602060405180830381600087803b151561179a57600080fd5b6102c65a03f115156117ab57600080fd5b5050506040518051905050600160026000896000191660001916815260200190815260200160002060009054906101000a900463ffffffff1663ffffffff168154811015156117f657fe5b906000526020600020906006020160c060405190810160405290816000820154600019166000191681526020016001820160009054906101000a900473ffffffffffffffffffffffffffffffffffffffff1673ffffffffffffffffffffffffffffffffffffffff1673ffffffffffffffffffffffffffffffffffffffff1681526020016002820160009054906101000a900473ffffffffffffffffffffffffffffffffffffffff1673ffffffffffffffffffffffffffffffffffffffff1673ffffffffffffffffffffffffffffffffffffffff1681526020016003820180548060200260200160405190810160405280929190818152602001828054801561191d57602002820191906000526020600020905b815481526020019060010190808311611909575b5050505050815260200160048201546000191660001916815260200160058201546000191660001916815250509450600660009054906101000a900473ffffffffffffffffffffffffffffffffffffffff1673ffffffffffffffffffffffffffffffffffffffff166369c672478c87606001516000604051602001526040518363ffffffff167c01000000000000000000000000000000000000000000000000000000000281526004018083815260200180602001828103825283818151815260200191508051906020019060200280838360005b83811015611a0d5780820151818401526020810190506119f2565b505050509050019350505050602060405180830381600087803b1515611a3257600080fd5b6102c65a03f11515611a4357600080fd5b5050506040518051905093507fffffffffffffffffffffffffffffffffffffffffffffffffffffffffffffffff84141515611ca557611a828b8561220b565b9250600560009054906101000a900473ffffffffffffffffffffffffffffffffffffffff1673ffffffffffffffffffffffffffffffffffffffff1663bec3fa178660400151866000604051602001526040518363ffffffff167c0100000000000000000000000000000000000000000000000000000000028152600401808373ffffffffffffffffffffffffffffffffffffffff1673ffffffffffffffffffffffffffffffffffffffff16815260200182815260200192505050602060405180830381600087803b1515611b5557600080fd5b6102c65a03f11515611b6657600080fd5b5050506040518051905050600560009054906101000a900473ffffffffffffffffffffffffffffffffffffffff1673ffffffffffffffffffffffffffffffffffffffff1663bec3fa178660200151856000604051602001526040518363ffffffff167c0100000000000000000000000000000000000000000000000000000000028152600401808373ffffffffffffffffffffffffffffffffffffffff1673ffffffffffffffffffffffffffffffffffffffff16815260200182815260200192505050602060405180830381600087803b1515611c4257600080fd5b6102c65a03f11515611c5357600080fd5b5050506040518051905050611c6783612227565b9150816008600088815260200190815260200160002081905550611c8a84612227565b90508060096000888152602001908152602001600020819055505b6001985050505050505050509392505050565b600080611cc36122f7565b600091505b8351821015611dcd5760048483815181101515611ce157fe5b90602001906020020151815481101515611cf757fe5b9060005260206000209060020201604080519081016040529081600082015481526020016001820160009054906101000a900460ff1660ff1660ff168152505090506002816020015160ff161415611dc0576003816020019060ff16908160ff16815250508060048584815181101515611d6d57fe5b90602001906020020151815481101515611d8357fe5b90600052602060002090600202016000820151816000015560208201518160010160006101000a81548160ff021916908360ff1602179055509050505b8180600101925050611cc8565b5050919050565b60006001808054905003905090565b60008060009054906101000a900473ffffffffffffffffffffffffffffffffffffffff1673ffffffffffffffffffffffffffffffffffffffff163373ffffffffffffffffffffffffffffffffffffffff16141515611e4057600080fd5b81600660006101000a81548173ffffffffffffffffffffffffffffffffffffffff021916908373ffffffffffffffffffffffffffffffffffffffff160217905550919050565b6000809054906101000a900473ffffffffffffffffffffffffffffffffffffffff1673ffffffffffffffffffffffffffffffffffffffff163373ffffffffffffffffffffffffffffffffffffffff16141515611ee157600080fd5b600073ffffffffffffffffffffffffffffffffffffffff168173ffffffffffffffffffffffffffffffffffffffff1614151515611f1d57600080fd5b806000806101000a81548173ffffffffffffffffffffffffffffffffffffffff021916908373ffffffffffffffffffffffffffffffffffffffff16021790555050565b611f686122b4565b600080611f73612419565b611f7b6122b4565b611f836122b4565b611f8b612314565b60018863ffffffff16815481101515611fa057fe5b906000526020600020906006020160c060405190810160405290816000820154600019166000191681526020016001820160009054906101000a900473ffffffffffffffffffffffffffffffffffffffff1673ffffffffffffffffffffffffffffffffffffffff1673ffffffffffffffffffffffffffffffffffffffff1681526020016002820160009054906101000a900473ffffffffffffffffffffffffffffffffffffffff1673ffffffffffffffffffffffffffffffffffffffff1673ffffffffffffffffffffffffffffffffffffffff168152602001600382018054806020026020016040519081016040528092919081815260200182805480156120c757602002820191906000526020600020905b8154815260200190600101908083116120b3575b505050505081526020016004820154600019166000191681526020016005820154600019166000191681525050905061210381600001516113f5565b965080602001519550806040015194508060600151935061212781608001516113f5565b92506121368160a001516113f5565b91505091939550919395565b600061214c6122c8565b60006080604051908101604052808760001916815260200186815260200185600019168152602001428152509150600160038054806001018281612190919061242d565b91600052602060002090600402016000859091909150600082015181600001906000191690556020820151816001015560408201518160020190600019169055606082015181600301555050039050806007600088600019166000191681526020019081526020016000208190555080925050509392505050565b600082821115151561221c57600080fd5b818303905092915050565b60006122316122f7565b60006040805190810160405280858152602001600160ff168152509150600160048054806001018281612264919061245f565b916000526020600020906002020160008590919091506000820151816000015560208201518160010160006101000a81548160ff021916908360ff16021790555050500390508092505050919050565b602060405190810160405280600081525090565b608060405190810160405280600080191681526020016000815260200160008019168152602001600081525090565b604080519081016040528060008152602001600060ff1681525090565b60c06040519081016040528060008019168152602001600073ffffffffffffffffffffffffffffffffffffffff168152602001600073ffffffffffffffffffffffffffffffffffffffff16815260200161236c612491565b815260200160008019168152602001600080191681525090565b8154818355818115116123b3576006028160060283600052602060002091820191016123b291906124a5565b5b505050565b8280548282559060005260206000209081019282156123f4579160200282015b828111156123f35782518255916020019190600101906123d8565b5b509050612401919061253a565b5090565b602060405190810160405280600081525090565b602060405190810160405280600081525090565b81548183558181151161245a57600402816004028360005260206000209182019101612459919061255f565b5b505050565b81548183558181151161248c5760020281600202836000526020600020918201910161248b919061259e565b5b505050565b602060405190810160405280600081525090565b61253791905b80821115612533576000808201600090556001820160006101000a81549073ffffffffffffffffffffffffffffffffffffffff02191690556002820160006101000a81549073ffffffffffffffffffffffffffffffffffffffff021916905560038201600061251a91906125d9565b60048201600090556005820160009055506006016124ab565b5090565b90565b61255c91905b80821115612558576000816000905550600101612540565b5090565b90565b61259b91905b808211156125975760008082016000905560018201600090556002820160009055600382016000905550600401612565565b5090565b90565b6125d691905b808211156125d2576000808201600090556001820160006101000a81549060ff0219169055506002016125a4565b5090565b90565b50805460008255906000526020600020908101906125f7919061253a565b505600a165627a7a72305820a52cd4801059feb0510b32410dad54889568337df94ead99d5f976ad14fc00020029",
  "source": "pragma solidity ^0.4.18;\n\nimport \"./IndifiCoin.sol\";\nimport \"./SplitContract.sol\";\nimport \"./VirtualAccounts.sol\";\n\n\ncontract EscrowTransactions is VirtualAccounts {\n\n    event NewTransaction(uint256 indexed transactionId, uint256 indexed amount);\n\n    struct Transaction {\n        bytes32 transactionHash;\n        uint256 amount;\n        bytes32 virtualAccountNumber;\n        uint timestamp;\n    }\n\n    struct SplitTransaction {\n        uint256 shareAmount;\n        uint8 status;\n    }\n\n    Transaction[] public transactions;\n    SplitTransaction[] public splitTransactions;\n\n    IndifiCoin public indifiCoin;\n    SplitContract public splitContract;\n\n    // -------------------------------------------------------------------------\n    // To keep the position of any transaction in the transactions array\n    // key: bytes32 - bytes32 representation of the sha256 hash of the transaction\n    // value: uint256 - index of the Transaction struct in transactions array\n    // -------------------------------------------------------------------------\n    mapping(bytes32 => uint256) public transactionHashToIndex;\n\n    mapping(uint256 => uint256) public transactionIdToBorrowerSharesId;\n\n    mapping(uint256 => uint256) public transactionIdToLenderSharesId;\n\n    function EscrowTransactions() public {\n        _createTransaction(0x0, 0, 0x0);\n        updateVirtualAccountConfiguration(\"\", new uint[](2), address(0), address(0), \"\", \"\");\n    }\n\n    function updateIndifiCoinAddress(address _indifiCoinAddress) public onlyOwner returns (bool) {\n        indifiCoin = IndifiCoin(_indifiCoinAddress);\n    }\n\n    function updateSplitContractAddress(address _splitContractAddress) public onlyOwner returns (bool) {\n        splitContract = SplitContract(_splitContractAddress);\n    }\n\n    function newEscrowTransaction(string _hash, uint256 amount, string _vAccNo) public onlyOwner returns (bool) {\n        // check if this transaction is new by comparing hash\n        bytes32 hashBytes = _stringToBytes32(_hash);\n        bytes32 vAccNoBytes = _stringToBytes32(_vAccNo);\n\n        require(transactionHashToIndex[hashBytes] <= 0);\n\n        // create new Transaction object and save\n        uint256 id = _createTransaction(hashBytes, amount, vAccNoBytes);\n\n        // emit new transaction created\n        NewTransaction(id, amount);\n\n        // allocate coins equal to the amount into owners account\n        indifiCoin.createTokens(amount);\n\n        // get VirtualAccount\n        VirtualAccount memory va = virtualAccounts[virtualAccountsToIndex[vAccNoBytes]];\n\n        int256 lenderShare = splitContract.split(amount, va.policyDetails);\n        if (lenderShare != - 1) {\n            uint256 borrowerShare = safeSub(amount, uint256(lenderShare));\n            indifiCoin.transferTokens(va.lenderAddress, uint256(lenderShare));\n            indifiCoin.transferTokens(va.borrowerAddress, borrowerShare);\n\n            uint256 borrowerShareId = _createSplitTransaction(borrowerShare);\n            transactionIdToBorrowerSharesId[id] = borrowerShareId;\n\n            uint256 lenderShareId = _createSplitTransaction(uint256(lenderShare));\n            transactionIdToLenderSharesId[id] = lenderShareId;\n        }\n\n        return true;\n    }\n\n    function getTotalTransactions() public view returns (uint256) {\n        return transactions.length - 1;\n    }\n\n    function getTransaction(uint256 id) public view returns (\n        string transactionHash,\n        uint256 amount,\n        string virtualAccountNumber,\n        uint256 borrowerShareId,\n        uint256 lenderShareId\n    ) {\n        Transaction memory t = transactions[id];\n        transactionHash = _bytes32ToString(t.transactionHash);\n        amount = t.amount;\n        virtualAccountNumber = _bytes32ToString(t.virtualAccountNumber);\n        borrowerShareId = transactionIdToBorrowerSharesId[id];\n        lenderShareId = transactionIdToLenderSharesId[id];\n    }\n\n    function updateSplitStatusToSentForSettlement(uint256[] ids) public returns (bool) {\n        for (uint256 i = 0; i < ids.length; i++) {\n            SplitTransaction memory st = splitTransactions[ids[i]];\n            if (st.status == 1) {\n                st.status = 2;\n                splitTransactions[ids[i]] = st;\n            }\n        }\n    }\n\n    function updateSplitStatusToSettled(uint256[] ids) public returns (bool) {\n        for (uint256 i = 0; i < ids.length; i++) {\n            SplitTransaction memory st = splitTransactions[ids[i]];\n            if (st.status == 2) {\n                st.status = 3;\n                splitTransactions[ids[i]] = st;\n            }\n        }\n    }\n\n    function _createSplitTransaction(uint256 _amount) internal returns (uint256) {\n        SplitTransaction memory st = SplitTransaction({\n            shareAmount : _amount,\n            status : 1\n            });\n\n        uint256 id = splitTransactions.push(st) - 1;\n        return id;\n    }\n\n    function _createTransaction(bytes32 _hashBytes, uint256 amount, bytes32 _vAccNoBytes) internal returns (uint256) {\n        Transaction memory t = Transaction({\n            transactionHash : _hashBytes,\n            amount : amount,\n            virtualAccountNumber : _vAccNoBytes,\n            timestamp : now\n        });\n\n        uint256 id = transactions.push(t) - 1;\n        transactionHashToIndex[_hashBytes] = id;\n\n        return id;\n    }\n}\n",
  "sourcePath": "/Users/aditya/Documents/indifi/blockchain/escrow-ethereum/contracts/EscrowTransactions.sol",
  "compiler": {
    "name": "solc",
    "version": "0.4.18+commit.9cf6e910.Emscripten.clang"
  },
  "schemaVersion": "1.0.1",
  "updatedAt": "2018-03-27T06:22:05.004Z"
}