{
  "contractName": "Helpers",
  "abi": [
    {
      "constant": true,
      "inputs": [
        {
          "name": "a",
          "type": "uint256"
        },
        {
          "name": "b",
          "type": "uint256"
        }
      ],
      "name": "safeSub",
      "outputs": [
        {
          "name": "c",
          "type": "uint256"
        }
      ],
      "payable": false,
      "stateMutability": "pure",
      "type": "function"
    },
    {
      "constant": true,
      "inputs": [
        {
          "name": "a",
          "type": "uint256"
        },
        {
          "name": "b",
          "type": "uint256"
        }
      ],
      "name": "safeAdd",
      "outputs": [
        {
          "name": "c",
          "type": "uint256"
        }
      ],
      "payable": false,
      "stateMutability": "pure",
      "type": "function"
    }
  ],
  "bytecode": "0x6060604052341561000f57600080fd5b61012a8061001e6000396000f3006060604052600436106049576000357c0100000000000000000000000000000000000000000000000000000000900463ffffffff168063a293d1e814604e578063e6cb901314608b575b600080fd5b3415605857600080fd5b6075600480803590602001909190803590602001909190505060c8565b6040518082815260200191505060405180910390f35b3415609557600080fd5b60b2600480803590602001909190803590602001909190505060e3565b6040518082815260200191505060405180910390f35b600082821115151560d857600080fd5b818303905092915050565b6000818301905082811015151560f857600080fd5b929150505600a165627a7a723058204d009078fb0bbd109814fe12f8e35c748a41385bc5ef026f622823f2cdaee07a0029",
  "source": "pragma solidity ^0.4.18;\n\n\ncontract Helpers {\n\n    function safeAdd(uint a, uint b) public pure returns (uint c) {\n        c = a + b;\n        require(c >= a);\n    }\n\n    function safeSub(uint a, uint b) public pure returns (uint c) {\n        require(b <= a);\n        c = a - b;\n    }\n\n    function safeMul(uint a, uint b) internal pure returns (uint c) {\n        c = a * b;\n        require(a == 0 || c / a == b);\n    }\n\n    function safeDiv(uint a, uint b) internal pure returns (uint c) {\n        require(b > 0);\n        c = a / b;\n    }\n\n    function _stringToBytes32(string s) internal pure returns (bytes32 result) {\n        if (bytes(s).length == 0) {\n            return 0x0;\n        }\n        assembly {\n            result := mload(add(s, 32))\n        }\n    }\n\n    function isContract(address _base) internal view returns (bool _r) {\n        assembly {\n            _r := gt(extcodesize(_base), 0)\n        }\n    }\n}",
  "sourcePath": "/Users/aditya/Documents/indifi/blockchain/escrow-ethereum/contracts/Helpers.sol",
  "compiler": {
    "name": "solc",
    "version": "0.4.18+commit.9cf6e910.Emscripten.clang"
  },
  "schemaVersion": "1.0.1",
  "updatedAt": "2018-03-12T09:58:30.125Z"
}