{
  "contractName": "Helpers",
  "abi": [
    {
      "constant": true,
      "inputs": [
        {
          "name": "a",
          "type": "uint256"
        },
        {
          "name": "b",
          "type": "uint256"
        }
      ],
      "name": "safeSub",
      "outputs": [
        {
          "name": "c",
          "type": "uint256"
        }
      ],
      "payable": false,
      "stateMutability": "pure",
      "type": "function"
    },
    {
      "constant": true,
      "inputs": [
        {
          "name": "a",
          "type": "uint256"
        },
        {
          "name": "b",
          "type": "uint256"
        }
      ],
      "name": "safeDiv",
      "outputs": [
        {
          "name": "c",
          "type": "uint256"
        }
      ],
      "payable": false,
      "stateMutability": "pure",
      "type": "function"
    },
    {
      "constant": true,
      "inputs": [
        {
          "name": "a",
          "type": "uint256"
        },
        {
          "name": "b",
          "type": "uint256"
        }
      ],
      "name": "safeMul",
      "outputs": [
        {
          "name": "c",
          "type": "uint256"
        }
      ],
      "payable": false,
      "stateMutability": "pure",
      "type": "function"
    },
    {
      "constant": true,
      "inputs": [
        {
          "name": "a",
          "type": "uint256"
        },
        {
          "name": "b",
          "type": "uint256"
        }
      ],
      "name": "safeAdd",
      "outputs": [
        {
          "name": "c",
          "type": "uint256"
        }
      ],
      "payable": false,
      "stateMutability": "pure",
      "type": "function"
    }
  ],
  "bytecode": "0x6060604052341561000f57600080fd5b6102208061001e6000396000f300606060405260043610610062576000357c0100000000000000000000000000000000000000000000000000000000900463ffffffff168063a293d1e814610067578063b5931f7c146100a7578063d05c78da146100e7578063e6cb901314610127575b600080fd5b341561007257600080fd5b6100916004808035906020019091908035906020019091905050610167565b6040518082815260200191505060405180910390f35b34156100b257600080fd5b6100d16004808035906020019091908035906020019091905050610183565b6040518082815260200191505060405180910390f35b34156100f257600080fd5b61011160048080359060200190919080359060200190919050506101a7565b6040518082815260200191505060405180910390f35b341561013257600080fd5b61015160048080359060200190919080359060200190919050506101d8565b6040518082815260200191505060405180910390f35b600082821115151561017857600080fd5b818303905092915050565b6000808211151561019357600080fd5b818381151561019e57fe5b04905092915050565b6000818302905060008314806101c757508183828115156101c457fe5b04145b15156101d257600080fd5b92915050565b600081830190508281101515156101ee57600080fd5b929150505600a165627a7a723058201c6f99a622e4819f9def70b4c9e06f45bea2b00f460d47c4fb7082c7b00276ac0029",
  "source": "pragma solidity ^0.4.18;\n\n\ncontract Helpers {\n\n\n    function _stringToBytes32(string s) internal pure returns (bytes32 result) {\n        if (bytes(s).length == 0) {\n            return 0x0;\n        }\n        assembly {\n            result := mload(add(s, 32))\n        }\n    }\n\n    function isContract(address _base) internal view returns (bool _r) {\n        assembly {\n            _r := gt(extcodesize(_base), 0)\n        }\n    }\n\n    function safeAdd(uint a, uint b) public pure returns (uint c) {\n        c = a + b;\n        require(c >= a);\n    }\n\n    function safeSub(uint a, uint b) public pure returns (uint c) {\n        require(b <= a);\n        c = a - b;\n    }\n\n    function safeMul(uint a, uint b) public pure returns (uint c) {\n        c = a * b;\n        require(a == 0 || c / a == b);\n    }\n\n    function safeDiv(uint a, uint b) public pure returns (uint c) {\n        require(b > 0);\n        c = a / b;\n    }\n}",
  "sourcePath": "/Users/aditya/Documents/indifi/blockchain/escrow-ethereum/contracts/Helpers.sol",
  "compiler": {
    "name": "solc",
    "version": "0.4.18+commit.9cf6e910.Emscripten.clang"
  },
  "schemaVersion": "1.0.1",
  "updatedAt": "2018-03-12T06:51:11.749Z"
}