{
  "contractName": "IncomingTransaction",
  "abi": [
    {
      "constant": false,
      "inputs": [
        {
          "name": "spender",
          "type": "address"
        },
        {
          "name": "tokens",
          "type": "uint256"
        }
      ],
      "name": "approve",
      "outputs": [
        {
          "name": "",
          "type": "bool"
        }
      ],
      "payable": false,
      "stateMutability": "nonpayable",
      "type": "function"
    },
    {
      "constant": true,
      "inputs": [],
      "name": "totalSupply",
      "outputs": [
        {
          "name": "",
          "type": "uint256"
        }
      ],
      "payable": false,
      "stateMutability": "view",
      "type": "function"
    },
    {
      "constant": false,
      "inputs": [
        {
          "name": "from",
          "type": "address"
        },
        {
          "name": "to",
          "type": "address"
        },
        {
          "name": "tokens",
          "type": "uint256"
        }
      ],
      "name": "transferFrom",
      "outputs": [
        {
          "name": "success",
          "type": "bool"
        }
      ],
      "payable": false,
      "stateMutability": "nonpayable",
      "type": "function"
    },
    {
      "constant": true,
      "inputs": [
        {
          "name": "",
          "type": "bytes32"
        }
      ],
      "name": "TransactionIDToIndex",
      "outputs": [
        {
          "name": "",
          "type": "uint256"
        }
      ],
      "payable": false,
      "stateMutability": "view",
      "type": "function"
    },
    {
      "constant": false,
      "inputs": [
        {
          "name": "virtual_account_number",
          "type": "string"
        },
        {
          "name": "split_contract_address",
          "type": "address"
        }
      ],
      "name": "addNewSplitPolicy",
      "outputs": [
        {
          "name": "",
          "type": "bool"
        }
      ],
      "payable": false,
      "stateMutability": "nonpayable",
      "type": "function"
    },
    {
      "constant": true,
      "inputs": [],
      "name": "_totalSupply",
      "outputs": [
        {
          "name": "",
          "type": "uint256"
        }
      ],
      "payable": false,
      "stateMutability": "view",
      "type": "function"
    },
    {
      "constant": true,
      "inputs": [],
      "name": "DECIMAL",
      "outputs": [
        {
          "name": "",
          "type": "uint8"
        }
      ],
      "payable": false,
      "stateMutability": "view",
      "type": "function"
    },
    {
      "constant": true,
      "inputs": [
        {
          "name": "tokenOwner",
          "type": "address"
        }
      ],
      "name": "balanceOf",
      "outputs": [
        {
          "name": "balance",
          "type": "uint256"
        }
      ],
      "payable": false,
      "stateMutability": "view",
      "type": "function"
    },
    {
      "constant": true,
      "inputs": [
        {
          "name": "",
          "type": "bytes32"
        }
      ],
      "name": "TransactionReferenceNumberToIndex",
      "outputs": [
        {
          "name": "",
          "type": "uint256"
        }
      ],
      "payable": false,
      "stateMutability": "view",
      "type": "function"
    },
    {
      "constant": true,
      "inputs": [
        {
          "name": "virtual_account_number",
          "type": "string"
        }
      ],
      "name": "getSplitPolicyAddress",
      "outputs": [
        {
          "name": "",
          "type": "address"
        }
      ],
      "payable": false,
      "stateMutability": "view",
      "type": "function"
    },
    {
      "constant": true,
      "inputs": [],
      "name": "owner",
      "outputs": [
        {
          "name": "",
          "type": "address"
        }
      ],
      "payable": false,
      "stateMutability": "view",
      "type": "function"
    },
    {
      "constant": true,
      "inputs": [
        {
          "name": "a",
          "type": "uint256"
        },
        {
          "name": "b",
          "type": "uint256"
        }
      ],
      "name": "safeSub",
      "outputs": [
        {
          "name": "c",
          "type": "uint256"
        }
      ],
      "payable": false,
      "stateMutability": "pure",
      "type": "function"
    },
    {
      "constant": true,
      "inputs": [],
      "name": "NAME",
      "outputs": [
        {
          "name": "",
          "type": "string"
        }
      ],
      "payable": false,
      "stateMutability": "view",
      "type": "function"
    },
    {
      "constant": false,
      "inputs": [
        {
          "name": "to",
          "type": "address"
        },
        {
          "name": "tokens",
          "type": "uint256"
        }
      ],
      "name": "transfer",
      "outputs": [
        {
          "name": "success",
          "type": "bool"
        }
      ],
      "payable": false,
      "stateMutability": "nonpayable",
      "type": "function"
    },
    {
      "constant": false,
      "inputs": [
        {
          "name": "transaction_id",
          "type": "string"
        },
        {
          "name": "recipient_account_number",
          "type": "string"
        },
        {
          "name": "amount",
          "type": "uint256"
        },
        {
          "name": "remitter_name",
          "type": "string"
        },
        {
          "name": "remitter_account",
          "type": "string"
        },
        {
          "name": "transaction_reference_number",
          "type": "string"
        },
        {
          "name": "virtual_account_number",
          "type": "string"
        },
        {
          "name": "mode",
          "type": "string"
        },
        {
          "name": "transaction_date",
          "type": "string"
        }
      ],
      "name": "newIncomingTransaction",
      "outputs": [
        {
          "name": "",
          "type": "uint256"
        }
      ],
      "payable": false,
      "stateMutability": "nonpayable",
      "type": "function"
    },
    {
      "constant": true,
      "inputs": [
        {
          "name": "a",
          "type": "uint256"
        },
        {
          "name": "b",
          "type": "uint256"
        }
      ],
      "name": "safeDiv",
      "outputs": [
        {
          "name": "c",
          "type": "uint256"
        }
      ],
      "payable": false,
      "stateMutability": "pure",
      "type": "function"
    },
    {
      "constant": true,
      "inputs": [
        {
          "name": "a",
          "type": "uint256"
        },
        {
          "name": "b",
          "type": "uint256"
        }
      ],
      "name": "safeMul",
      "outputs": [
        {
          "name": "c",
          "type": "uint256"
        }
      ],
      "payable": false,
      "stateMutability": "pure",
      "type": "function"
    },
    {
      "constant": false,
      "inputs": [
        {
          "name": "tokenAddress",
          "type": "address"
        },
        {
          "name": "tokens",
          "type": "uint256"
        }
      ],
      "name": "transferAnyERC20Token",
      "outputs": [
        {
          "name": "",
          "type": "bool"
        }
      ],
      "payable": false,
      "stateMutability": "nonpayable",
      "type": "function"
    },
    {
      "constant": true,
      "inputs": [
        {
          "name": "tokenOwner",
          "type": "address"
        },
        {
          "name": "spender",
          "type": "address"
        }
      ],
      "name": "allowance",
      "outputs": [
        {
          "name": "remaining",
          "type": "uint256"
        }
      ],
      "payable": false,
      "stateMutability": "view",
      "type": "function"
    },
    {
      "constant": false,
      "inputs": [
        {
          "name": "virtual_account_number",
          "type": "string"
        },
        {
          "name": "split_contract_address",
          "type": "address"
        }
      ],
      "name": "updateSplitPolicy",
      "outputs": [
        {
          "name": "",
          "type": "bool"
        }
      ],
      "payable": false,
      "stateMutability": "nonpayable",
      "type": "function"
    },
    {
      "constant": true,
      "inputs": [
        {
          "name": "a",
          "type": "uint256"
        },
        {
          "name": "b",
          "type": "uint256"
        }
      ],
      "name": "safeAdd",
      "outputs": [
        {
          "name": "c",
          "type": "uint256"
        }
      ],
      "payable": false,
      "stateMutability": "pure",
      "type": "function"
    },
    {
      "constant": false,
      "inputs": [
        {
          "name": "_newOwner",
          "type": "address"
        }
      ],
      "name": "transferOwnership",
      "outputs": [],
      "payable": false,
      "stateMutability": "nonpayable",
      "type": "function"
    },
    {
      "constant": true,
      "inputs": [],
      "name": "SYMBOL",
      "outputs": [
        {
          "name": "",
          "type": "string"
        }
      ],
      "payable": false,
      "stateMutability": "view",
      "type": "function"
    },
    {
      "inputs": [],
      "payable": false,
      "stateMutability": "nonpayable",
      "type": "constructor"
    },
    {
      "payable": true,
      "stateMutability": "payable",
      "type": "fallback"
    },
    {
      "anonymous": false,
      "inputs": [
        {
          "indexed": true,
          "name": "_from",
          "type": "address"
        },
        {
          "indexed": true,
          "name": "_to",
          "type": "address"
        }
      ],
      "name": "OwnershipTransferred",
      "type": "event"
    },
    {
      "anonymous": false,
      "inputs": [
        {
          "indexed": true,
          "name": "from",
          "type": "address"
        },
        {
          "indexed": true,
          "name": "to",
          "type": "address"
        },
        {
          "indexed": false,
          "name": "tokens",
          "type": "uint256"
        }
      ],
      "name": "Transfer",
      "type": "event"
    },
    {
      "anonymous": false,
      "inputs": [
        {
          "indexed": true,
          "name": "tokenOwner",
          "type": "address"
        },
        {
          "indexed": true,
          "name": "spender",
          "type": "address"
        },
        {
          "indexed": false,
          "name": "tokens",
          "type": "uint256"
        }
      ],
      "name": "Approval",
      "type": "event"
    }
  ],
  "bytecode": "0x6060604052341561000f57600080fd5b336000806101000a81548173ffffffffffffffffffffffffffffffffffffffff021916908373ffffffffffffffffffffffffffffffffffffffff1602179055506000600281905550336000806101000a81548173ffffffffffffffffffffffffffffffffffffffff021916908373ffffffffffffffffffffffffffffffffffffffff160217905550611dbe806100a66000396000f300606060405260043610610133576000357c0100000000000000000000000000000000000000000000000000000000900463ffffffff168063095ea7b31461013857806318160ddd1461019257806323b872dd146101bb578063272b5e821461023457806330ceb3bd1461026f5780633eaaf86b146103035780636ab55fd91461032c57806370a082311461035b57806376a2efcb146103a8578063784ce934146103e35780638da5cb5b14610480578063a293d1e8146104d5578063a3f4df7e14610515578063a9059cbb146105a3578063aa4eb9a7146105fd578063b5931f7c1461084c578063d05c78da1461088c578063dc39d06d146108cc578063dd62ed3e14610926578063e0e18ae014610992578063e6cb901314610a26578063f2fde38b14610a66578063f76f8d7814610a9f575b600080fd5b341561014357600080fd5b610178600480803573ffffffffffffffffffffffffffffffffffffffff16906020019091908035906020019091905050610b2d565b604051808215151515815260200191505060405180910390f35b341561019d57600080fd5b6101a5610c1f565b6040518082815260200191505060405180910390f35b34156101c657600080fd5b61021a600480803573ffffffffffffffffffffffffffffffffffffffff1690602001909190803573ffffffffffffffffffffffffffffffffffffffff16906020019091908035906020019091905050610c29565b604051808215151515815260200191505060405180910390f35b341561023f57600080fd5b610259600480803560001916906020019091905050610eb9565b6040518082815260200191505060405180910390f35b341561027a57600080fd5b6102e9600480803590602001908201803590602001908080601f0160208091040260200160405190810160405280939291908181526020018383808284378201915050505050509190803573ffffffffffffffffffffffffffffffffffffffff16906020019091905050610ed1565b604051808215151515815260200191505060405180910390f35b341561030e57600080fd5b610316611065565b6040518082815260200191505060405180910390f35b341561033757600080fd5b61033f61106b565b604051808260ff1660ff16815260200191505060405180910390f35b341561036657600080fd5b610392600480803573ffffffffffffffffffffffffffffffffffffffff16906020019091905050611070565b6040518082815260200191505060405180910390f35b34156103b357600080fd5b6103cd6004808035600019169060200190919050506110b9565b6040518082815260200191505060405180910390f35b34156103ee57600080fd5b61043e600480803590602001908201803590602001908080601f016020809104026020016040519081016040528093929190818152602001838380828437820191505050505050919050506110d1565b604051808273ffffffffffffffffffffffffffffffffffffffff1673ffffffffffffffffffffffffffffffffffffffff16815260200191505060405180910390f35b341561048b57600080fd5b610493611123565b604051808273ffffffffffffffffffffffffffffffffffffffff1673ffffffffffffffffffffffffffffffffffffffff16815260200191505060405180910390f35b34156104e057600080fd5b6104ff6004808035906020019091908035906020019091905050611148565b6040518082815260200191505060405180910390f35b341561052057600080fd5b610528611164565b6040518080602001828103825283818151815260200191508051906020019080838360005b8381101561056857808201518184015260208101905061054d565b50505050905090810190601f1680156105955780820380516001836020036101000a031916815260200191505b509250505060405180910390f35b34156105ae57600080fd5b6105e3600480803573ffffffffffffffffffffffffffffffffffffffff1690602001909190803590602001909190505061119d565b604051808215151515815260200191505060405180910390f35b341561060857600080fd5b610836600480803590602001908201803590602001908080601f0160208091040260200160405190810160405280939291908181526020018383808284378201915050505050509190803590602001908201803590602001908080601f0160208091040260200160405190810160405280939291908181526020018383808284378201915050505050509190803590602001909190803590602001908201803590602001908080601f0160208091040260200160405190810160405280939291908181526020018383808284378201915050505050509190803590602001908201803590602001908080601f0160208091040260200160405190810160405280939291908181526020018383808284378201915050505050509190803590602001908201803590602001908080601f0160208091040260200160405190810160405280939291908181526020018383808284378201915050505050509190803590602001908201803590602001908080601f0160208091040260200160405190810160405280939291908181526020018383808284378201915050505050509190803590602001908201803590602001908080601f0160208091040260200160405190810160405280939291908181526020018383808284378201915050505050509190803590602001908201803590602001908080601f01602080910402602001604051908101604052809392919081815260200183838082843782019150505050505091905050611326565b6040518082815260200191505060405180910390f35b341561085757600080fd5b61087660048080359060200190919080359060200190919050506115f7565b6040518082815260200191505060405180910390f35b341561089757600080fd5b6108b6600480803590602001909190803590602001909190505061161b565b6040518082815260200191505060405180910390f35b34156108d757600080fd5b61090c600480803573ffffffffffffffffffffffffffffffffffffffff1690602001909190803590602001909190505061164c565b604051808215151515815260200191505060405180910390f35b341561093157600080fd5b61097c600480803573ffffffffffffffffffffffffffffffffffffffff1690602001909190803573ffffffffffffffffffffffffffffffffffffffff16906020019091905050611798565b6040518082815260200191505060405180910390f35b341561099d57600080fd5b610a0c600480803590602001908201803590602001908080601f0160208091040260200160405190810160405280939291908181526020018383808284378201915050505050509190803573ffffffffffffffffffffffffffffffffffffffff1690602001909190505061181f565b604051808215151515815260200191505060405180910390f35b3415610a3157600080fd5b610a5060048080359060200190919080359060200190919050506119af565b6040518082815260200191505060405180910390f35b3415610a7157600080fd5b610a9d600480803573ffffffffffffffffffffffffffffffffffffffff169060200190919050506119cb565b005b3415610aaa57600080fd5b610ab2611aa5565b6040518080602001828103825283818151815260200191508051906020019080838360005b83811015610af2578082015181840152602081019050610ad7565b50505050905090810190601f168015610b1f5780820380516001836020036101000a031916815260200191505b509250505060405180910390f35b600081600460003373ffffffffffffffffffffffffffffffffffffffff1673ffffffffffffffffffffffffffffffffffffffff16815260200190815260200160002060008573ffffffffffffffffffffffffffffffffffffffff1673ffffffffffffffffffffffffffffffffffffffff168152602001908152602001600020819055508273ffffffffffffffffffffffffffffffffffffffff163373ffffffffffffffffffffffffffffffffffffffff167f8c5be1e5ebec7d5bd14f71427d1e84f3dd0314c0f7b2291e5b200ac8c7c3b925846040518082815260200191505060405180910390a36001905092915050565b6000600254905090565b6000610c74600360008673ffffffffffffffffffffffffffffffffffffffff1673ffffffffffffffffffffffffffffffffffffffff1681526020019081526020016000205483611148565b600360008673ffffffffffffffffffffffffffffffffffffffff1673ffffffffffffffffffffffffffffffffffffffff16815260200190815260200160002081905550610d3d600460008673ffffffffffffffffffffffffffffffffffffffff1673ffffffffffffffffffffffffffffffffffffffff16815260200190815260200160002060003373ffffffffffffffffffffffffffffffffffffffff1673ffffffffffffffffffffffffffffffffffffffff1681526020019081526020016000205483611148565b600460008673ffffffffffffffffffffffffffffffffffffffff1673ffffffffffffffffffffffffffffffffffffffff16815260200190815260200160002060003373ffffffffffffffffffffffffffffffffffffffff1673ffffffffffffffffffffffffffffffffffffffff16815260200190815260200160002081905550610e06600360008573ffffffffffffffffffffffffffffffffffffffff1673ffffffffffffffffffffffffffffffffffffffff16815260200190815260200160002054836119af565b600360008573ffffffffffffffffffffffffffffffffffffffff1673ffffffffffffffffffffffffffffffffffffffff168152602001908152602001600020819055508273ffffffffffffffffffffffffffffffffffffffff168473ffffffffffffffffffffffffffffffffffffffff167fddf252ad1be2c89b69c2b068fc378daa952ba7f163c4a11628f55a4df523b3ef846040518082815260200191505060405180910390a3600190509392505050565b60066020528060005260406000206000915090505481565b6000806000809054906101000a900473ffffffffffffffffffffffffffffffffffffffff1673ffffffffffffffffffffffffffffffffffffffff163373ffffffffffffffffffffffffffffffffffffffff16141515610f2f57600080fd5b610f3884611ade565b9050600073ffffffffffffffffffffffffffffffffffffffff168373ffffffffffffffffffffffffffffffffffffffff1614151515610f7657600080fd5b610f7f83611b02565b1515610f8a57600080fd5b600073ffffffffffffffffffffffffffffffffffffffff1660016000836000191660001916815260200190815260200160002060009054906101000a900473ffffffffffffffffffffffffffffffffffffffff1673ffffffffffffffffffffffffffffffffffffffff1614151561100057600080fd5b8260016000836000191660001916815260200190815260200160002060006101000a81548173ffffffffffffffffffffffffffffffffffffffff021916908373ffffffffffffffffffffffffffffffffffffffff160217905550600191505092915050565b60025481565b601281565b6000600360008373ffffffffffffffffffffffffffffffffffffffff1673ffffffffffffffffffffffffffffffffffffffff168152602001908152602001600020549050919050565b60076020528060005260406000206000915090505481565b6000806110dd83611ade565b905060016000826000191660001916815260200190815260200160002060009054906101000a900473ffffffffffffffffffffffffffffffffffffffff16915050919050565b6000809054906101000a900473ffffffffffffffffffffffffffffffffffffffff1681565b600082821115151561115957600080fd5b818303905092915050565b6040805190810160405280600b81526020017f496e6469666920436f696e00000000000000000000000000000000000000000081525081565b60006111e8600360003373ffffffffffffffffffffffffffffffffffffffff1673ffffffffffffffffffffffffffffffffffffffff1681526020019081526020016000205483611148565b600360003373ffffffffffffffffffffffffffffffffffffffff1673ffffffffffffffffffffffffffffffffffffffff16815260200190815260200160002081905550611274600360008573ffffffffffffffffffffffffffffffffffffffff1673ffffffffffffffffffffffffffffffffffffffff16815260200190815260200160002054836119af565b600360008573ffffffffffffffffffffffffffffffffffffffff1673ffffffffffffffffffffffffffffffffffffffff168152602001908152602001600020819055508273ffffffffffffffffffffffffffffffffffffffff163373ffffffffffffffffffffffffffffffffffffffff167fddf252ad1be2c89b69c2b068fc378daa952ba7f163c4a11628f55a4df523b3ef846040518082815260200191505060405180910390a36001905092915050565b6000806000611333611b0f565b60008060009054906101000a900473ffffffffffffffffffffffffffffffffffffffff1673ffffffffffffffffffffffffffffffffffffffff163373ffffffffffffffffffffffffffffffffffffffff1614151561139057600080fd5b6113998e611ade565b93506113a489611ade565b9250600060066000866000191660001916815260200190815260200160002054111515156113d157600080fd5b600060076000856000191660001916815260200190815260200160002054111515156113fc57600080fd5b610140604051908101604052808f81526020018e81526020018d81526020018c81526020018b81526020018a81526020018981526020018881526020018781526020014267ffffffffffffffff1681525091506001600580548060010182816114659190611b9d565b91600052602060002090600a020160008590919091506000820151816000019080519060200190611497929190611bcf565b5060208201518160010190805190602001906114b4929190611bcf565b506040820151816002015560608201518160030190805190602001906114db929190611bcf565b5060808201518160040190805190602001906114f8929190611bcf565b5060a0820151816005019080519060200190611515929190611bcf565b5060c0820151816006019080519060200190611532929190611bcf565b5060e082015181600701908051906020019061154f929190611bcf565b5061010082015181600801908051906020019061156d929190611bcf565b506101208201518160090160006101000a81548167ffffffffffffffff021916908367ffffffffffffffff160217905550505003905080600660008660001916600019168152602001908152602001600020819055508060076000856000191660001916815260200190815260200160002081905550809450505050509998505050505050505050565b6000808211151561160757600080fd5b818381151561161257fe5b04905092915050565b60008183029050600083148061163b575081838281151561163857fe5b04145b151561164657600080fd5b92915050565b60008060009054906101000a900473ffffffffffffffffffffffffffffffffffffffff1673ffffffffffffffffffffffffffffffffffffffff163373ffffffffffffffffffffffffffffffffffffffff161415156116a957600080fd5b8273ffffffffffffffffffffffffffffffffffffffff1663a9059cbb6000809054906101000a900473ffffffffffffffffffffffffffffffffffffffff16846000604051602001526040518363ffffffff167c0100000000000000000000000000000000000000000000000000000000028152600401808373ffffffffffffffffffffffffffffffffffffffff1673ffffffffffffffffffffffffffffffffffffffff16815260200182815260200192505050602060405180830381600087803b151561177557600080fd5b6102c65a03f1151561178657600080fd5b50505060405180519050905092915050565b6000600460008473ffffffffffffffffffffffffffffffffffffffff1673ffffffffffffffffffffffffffffffffffffffff16815260200190815260200160002060008373ffffffffffffffffffffffffffffffffffffffff1673ffffffffffffffffffffffffffffffffffffffff16815260200190815260200160002054905092915050565b6000806000809054906101000a900473ffffffffffffffffffffffffffffffffffffffff1673ffffffffffffffffffffffffffffffffffffffff163373ffffffffffffffffffffffffffffffffffffffff1614151561187d57600080fd5b61188684611ade565b9050600073ffffffffffffffffffffffffffffffffffffffff168373ffffffffffffffffffffffffffffffffffffffff16141515156118c457600080fd5b6118cd83611b02565b15156118d857600080fd5b8273ffffffffffffffffffffffffffffffffffffffff1660016000836000191660001916815260200190815260200160002060009054906101000a900473ffffffffffffffffffffffffffffffffffffffff1673ffffffffffffffffffffffffffffffffffffffff161415151561194e57600080fd5b8260016000836000191660001916815260200190815260200160002060006101000a81548173ffffffffffffffffffffffffffffffffffffffff021916908373ffffffffffffffffffffffffffffffffffffffff1602179055505092915050565b600081830190508281101515156119c557600080fd5b92915050565b6000809054906101000a900473ffffffffffffffffffffffffffffffffffffffff1673ffffffffffffffffffffffffffffffffffffffff163373ffffffffffffffffffffffffffffffffffffffff16141515611a2657600080fd5b600073ffffffffffffffffffffffffffffffffffffffff168173ffffffffffffffffffffffffffffffffffffffff1614151515611a6257600080fd5b806000806101000a81548173ffffffffffffffffffffffffffffffffffffffff021916908373ffffffffffffffffffffffffffffffffffffffff16021790555050565b6040805190810160405280600681526020017f494e44494649000000000000000000000000000000000000000000000000000081525081565b60008082511415611af55760006001029050611afd565b602082015190505b919050565b600080823b119050919050565b61014060405190810160405280611b24611c4f565b8152602001611b31611c4f565b815260200160008152602001611b45611c4f565b8152602001611b52611c4f565b8152602001611b5f611c4f565b8152602001611b6c611c4f565b8152602001611b79611c4f565b8152602001611b86611c4f565b8152602001600067ffffffffffffffff1681525090565b815481835581811511611bca57600a0281600a028360005260206000209182019101611bc99190611c63565b5b505050565b828054600181600116156101000203166002900490600052602060002090601f016020900481019282601f10611c1057805160ff1916838001178555611c3e565b82800160010185558215611c3e579182015b82811115611c3d578251825591602001919060010190611c22565b5b509050611c4b9190611d25565b5090565b602060405190810160405280600081525090565b611d2291905b80821115611d1e5760008082016000611c829190611d4a565b600182016000611c929190611d4a565b6002820160009055600382016000611caa9190611d4a565b600482016000611cba9190611d4a565b600582016000611cca9190611d4a565b600682016000611cda9190611d4a565b600782016000611cea9190611d4a565b600882016000611cfa9190611d4a565b6009820160006101000a81549067ffffffffffffffff021916905550600a01611c69565b5090565b90565b611d4791905b80821115611d43576000816000905550600101611d2b565b5090565b90565b50805460018160011615610100020316600290046000825580601f10611d705750611d8f565b601f016020900490600052602060002090810190611d8e9190611d25565b5b505600a165627a7a7230582065a380bcfda0a3c260961db1e9282949d0f6f592772ced57587d21680daa487f0029",
  "source": "pragma solidity ^0.4.18;\n\n\nimport \"./IndifiCoin.sol\";\n\n\ncontract IncomingTransaction is IndifiCoin {\n\n    struct Transaction {\n        string transaction_id;\n        string recipient_account_number;\n        uint256 amount;\n        string remitter_name;\n        string remitter_account;\n        string transaction_reference_number;\n        string virtual_account_number;\n        string mode;\n        string transaction_date;\n        uint64 timestamp;\n    }\n\n    Transaction[] internal transactions;\n\n    mapping(bytes32 => uint256) public TransactionIDToIndex;\n\n    mapping(bytes32 => uint256) public TransactionReferenceNumberToIndex;\n\n    function IncomingTransaction() public {\n        owner = msg.sender;\n    }\n\n    function newIncomingTransaction(\n        string transaction_id,\n        string recipient_account_number,\n        uint256 amount,\n        string remitter_name,\n        string remitter_account,\n        string transaction_reference_number,\n        string virtual_account_number,\n        string mode,\n        string transaction_date\n    ) public onlyOwner returns (uint256) {\n        bytes32 transaction_id_bytes = _stringToBytes32(transaction_id);\n        bytes32 transaction_reference_number_bytes = _stringToBytes32(transaction_reference_number);\n\n        require(TransactionIDToIndex[transaction_id_bytes] <= 0);\n        require(TransactionReferenceNumberToIndex[transaction_reference_number_bytes] <= 0);\n\n        Transaction memory txn = Transaction({\n            transaction_id : transaction_id,\n            recipient_account_number : recipient_account_number,\n            amount : amount,\n            remitter_name : remitter_name,\n            remitter_account : remitter_account,\n            transaction_reference_number : transaction_reference_number,\n            virtual_account_number : virtual_account_number,\n            mode : mode,\n            transaction_date : transaction_date,\n            timestamp : uint64(now)\n            });\n\n        uint256 txnId = transactions.push(txn) - 1;\n\n        TransactionIDToIndex[transaction_id_bytes] = txnId;\n        TransactionReferenceNumberToIndex[transaction_reference_number_bytes] = txnId;\n\n        // generate amount equivalent to sent amount in borrowers account\n\n        return txnId;\n    }\n}",
  "sourcePath": "/Users/aditya/Documents/indifi/blockchain/escrow-ethereum/contracts/IncomingTransaction.sol",
  "compiler": {
    "name": "solc",
    "version": "0.4.18+commit.9cf6e910.Emscripten.clang"
  },
  "schemaVersion": "1.0.1",
  "updatedAt": "2018-03-12T07:38:59.233Z"
}