{
  "contractName": "IncomingTransaction",
  "abi": [
    {
      "constant": false,
      "inputs": [
        {
          "name": "spender",
          "type": "address"
        },
        {
          "name": "tokens",
          "type": "uint256"
        }
      ],
      "name": "approve",
      "outputs": [
        {
          "name": "",
          "type": "bool"
        }
      ],
      "payable": false,
      "stateMutability": "nonpayable",
      "type": "function"
    },
    {
      "constant": true,
      "inputs": [],
      "name": "totalSupply",
      "outputs": [
        {
          "name": "",
          "type": "uint256"
        }
      ],
      "payable": false,
      "stateMutability": "view",
      "type": "function"
    },
    {
      "constant": false,
      "inputs": [
        {
          "name": "from",
          "type": "address"
        },
        {
          "name": "to",
          "type": "address"
        },
        {
          "name": "tokens",
          "type": "uint256"
        }
      ],
      "name": "transferFrom",
      "outputs": [
        {
          "name": "success",
          "type": "bool"
        }
      ],
      "payable": false,
      "stateMutability": "nonpayable",
      "type": "function"
    },
    {
      "constant": true,
      "inputs": [
        {
          "name": "",
          "type": "bytes32"
        }
      ],
      "name": "TransactionIDToIndex",
      "outputs": [
        {
          "name": "",
          "type": "uint256"
        }
      ],
      "payable": false,
      "stateMutability": "view",
      "type": "function"
    },
    {
      "constant": true,
      "inputs": [],
      "name": "_totalSupply",
      "outputs": [
        {
          "name": "",
          "type": "uint256"
        }
      ],
      "payable": false,
      "stateMutability": "view",
      "type": "function"
    },
    {
      "constant": true,
      "inputs": [],
      "name": "DECIMAL",
      "outputs": [
        {
          "name": "",
          "type": "uint8"
        }
      ],
      "payable": false,
      "stateMutability": "view",
      "type": "function"
    },
    {
      "constant": true,
      "inputs": [
        {
          "name": "tokenOwner",
          "type": "address"
        }
      ],
      "name": "balanceOf",
      "outputs": [
        {
          "name": "balance",
          "type": "uint256"
        }
      ],
      "payable": false,
      "stateMutability": "view",
      "type": "function"
    },
    {
      "constant": true,
      "inputs": [
        {
          "name": "",
          "type": "bytes32"
        }
      ],
      "name": "TransactionReferenceNumberToIndex",
      "outputs": [
        {
          "name": "",
          "type": "uint256"
        }
      ],
      "payable": false,
      "stateMutability": "view",
      "type": "function"
    },
    {
      "constant": false,
      "inputs": [
        {
          "name": "tokens",
          "type": "uint256"
        }
      ],
      "name": "createTokens",
      "outputs": [
        {
          "name": "",
          "type": "bool"
        }
      ],
      "payable": false,
      "stateMutability": "nonpayable",
      "type": "function"
    },
    {
      "constant": true,
      "inputs": [],
      "name": "owner",
      "outputs": [
        {
          "name": "",
          "type": "address"
        }
      ],
      "payable": false,
      "stateMutability": "view",
      "type": "function"
    },
    {
      "constant": true,
      "inputs": [
        {
          "name": "a",
          "type": "uint256"
        },
        {
          "name": "b",
          "type": "uint256"
        }
      ],
      "name": "safeSub",
      "outputs": [
        {
          "name": "c",
          "type": "uint256"
        }
      ],
      "payable": false,
      "stateMutability": "pure",
      "type": "function"
    },
    {
      "constant": true,
      "inputs": [],
      "name": "NAME",
      "outputs": [
        {
          "name": "",
          "type": "string"
        }
      ],
      "payable": false,
      "stateMutability": "view",
      "type": "function"
    },
    {
      "constant": false,
      "inputs": [
        {
          "name": "to",
          "type": "address"
        },
        {
          "name": "tokens",
          "type": "uint256"
        }
      ],
      "name": "transfer",
      "outputs": [
        {
          "name": "success",
          "type": "bool"
        }
      ],
      "payable": false,
      "stateMutability": "nonpayable",
      "type": "function"
    },
    {
      "constant": false,
      "inputs": [
        {
          "name": "transaction_id",
          "type": "string"
        },
        {
          "name": "recipient_account_number",
          "type": "string"
        },
        {
          "name": "amount",
          "type": "uint256"
        },
        {
          "name": "remitter_name",
          "type": "string"
        },
        {
          "name": "remitter_account",
          "type": "string"
        },
        {
          "name": "transaction_reference_number",
          "type": "string"
        },
        {
          "name": "virtual_account_number",
          "type": "string"
        },
        {
          "name": "mode",
          "type": "string"
        },
        {
          "name": "transaction_date",
          "type": "string"
        }
      ],
      "name": "newIncomingTransaction",
      "outputs": [
        {
          "name": "",
          "type": "uint256"
        }
      ],
      "payable": false,
      "stateMutability": "nonpayable",
      "type": "function"
    },
    {
      "constant": false,
      "inputs": [
        {
          "name": "tokenAddress",
          "type": "address"
        },
        {
          "name": "tokens",
          "type": "uint256"
        }
      ],
      "name": "transferAnyERC20Token",
      "outputs": [
        {
          "name": "",
          "type": "bool"
        }
      ],
      "payable": false,
      "stateMutability": "nonpayable",
      "type": "function"
    },
    {
      "constant": true,
      "inputs": [
        {
          "name": "tokenOwner",
          "type": "address"
        },
        {
          "name": "spender",
          "type": "address"
        }
      ],
      "name": "allowance",
      "outputs": [
        {
          "name": "remaining",
          "type": "uint256"
        }
      ],
      "payable": false,
      "stateMutability": "view",
      "type": "function"
    },
    {
      "constant": true,
      "inputs": [
        {
          "name": "a",
          "type": "uint256"
        },
        {
          "name": "b",
          "type": "uint256"
        }
      ],
      "name": "safeAdd",
      "outputs": [
        {
          "name": "c",
          "type": "uint256"
        }
      ],
      "payable": false,
      "stateMutability": "pure",
      "type": "function"
    },
    {
      "constant": false,
      "inputs": [
        {
          "name": "_newOwner",
          "type": "address"
        }
      ],
      "name": "transferOwnership",
      "outputs": [],
      "payable": false,
      "stateMutability": "nonpayable",
      "type": "function"
    },
    {
      "constant": true,
      "inputs": [],
      "name": "SYMBOL",
      "outputs": [
        {
          "name": "",
          "type": "string"
        }
      ],
      "payable": false,
      "stateMutability": "view",
      "type": "function"
    },
    {
      "inputs": [],
      "payable": false,
      "stateMutability": "nonpayable",
      "type": "constructor"
    },
    {
      "payable": true,
      "stateMutability": "payable",
      "type": "fallback"
    },
    {
      "anonymous": false,
      "inputs": [
        {
          "indexed": true,
          "name": "from",
          "type": "address"
        },
        {
          "indexed": true,
          "name": "to",
          "type": "address"
        },
        {
          "indexed": false,
          "name": "tokens",
          "type": "uint256"
        }
      ],
      "name": "Transfer",
      "type": "event"
    },
    {
      "anonymous": false,
      "inputs": [
        {
          "indexed": true,
          "name": "tokenOwner",
          "type": "address"
        },
        {
          "indexed": true,
          "name": "spender",
          "type": "address"
        },
        {
          "indexed": false,
          "name": "tokens",
          "type": "uint256"
        }
      ],
      "name": "Approval",
      "type": "event"
    },
    {
      "anonymous": false,
      "inputs": [
        {
          "indexed": true,
          "name": "_from",
          "type": "address"
        },
        {
          "indexed": true,
          "name": "_to",
          "type": "address"
        }
      ],
      "name": "OwnershipTransferred",
      "type": "event"
    }
  ],
  "bytecode": "0x6060604052341561000f57600080fd5b336000806101000a81548173ffffffffffffffffffffffffffffffffffffffff021916908373ffffffffffffffffffffffffffffffffffffffff1602179055506000600181905550336000806101000a81548173ffffffffffffffffffffffffffffffffffffffff021916908373ffffffffffffffffffffffffffffffffffffffff1602179055506118b3806100a66000396000f300606060405260043610610107576000357c0100000000000000000000000000000000000000000000000000000000900463ffffffff168063095ea7b31461010c57806318160ddd1461016657806323b872dd1461018f578063272b5e82146102085780633eaaf86b146102435780636ab55fd91461026c57806370a082311461029b57806376a2efcb146102e85780637e1f2bb8146103235780638da5cb5b1461035e578063a293d1e8146103b3578063a3f4df7e146103f3578063a9059cbb14610481578063aa4eb9a7146104db578063dc39d06d1461072a578063dd62ed3e14610784578063e6cb9013146107f0578063f2fde38b14610830578063f76f8d7814610869575b600080fd5b341561011757600080fd5b61014c600480803573ffffffffffffffffffffffffffffffffffffffff169060200190919080359060200190919050506108f7565b604051808215151515815260200191505060405180910390f35b341561017157600080fd5b6101796109e9565b6040518082815260200191505060405180910390f35b341561019a57600080fd5b6101ee600480803573ffffffffffffffffffffffffffffffffffffffff1690602001909190803573ffffffffffffffffffffffffffffffffffffffff169060200190919080359060200190919050506109f3565b604051808215151515815260200191505060405180910390f35b341561021357600080fd5b61022d600480803560001916906020019091905050610c83565b6040518082815260200191505060405180910390f35b341561024e57600080fd5b610256610c9b565b6040518082815260200191505060405180910390f35b341561027757600080fd5b61027f610ca1565b604051808260ff1660ff16815260200191505060405180910390f35b34156102a657600080fd5b6102d2600480803573ffffffffffffffffffffffffffffffffffffffff16906020019091905050610ca6565b6040518082815260200191505060405180910390f35b34156102f357600080fd5b61030d600480803560001916906020019091905050610cef565b6040518082815260200191505060405180910390f35b341561032e57600080fd5b6103446004808035906020019091905050610d07565b604051808215151515815260200191505060405180910390f35b341561036957600080fd5b610371610e00565b604051808273ffffffffffffffffffffffffffffffffffffffff1673ffffffffffffffffffffffffffffffffffffffff16815260200191505060405180910390f35b34156103be57600080fd5b6103dd6004808035906020019091908035906020019091905050610e25565b6040518082815260200191505060405180910390f35b34156103fe57600080fd5b610406610e41565b6040518080602001828103825283818151815260200191508051906020019080838360005b8381101561044657808201518184015260208101905061042b565b50505050905090810190601f1680156104735780820380516001836020036101000a031916815260200191505b509250505060405180910390f35b341561048c57600080fd5b6104c1600480803573ffffffffffffffffffffffffffffffffffffffff16906020019091908035906020019091905050610e7a565b604051808215151515815260200191505060405180910390f35b34156104e657600080fd5b610714600480803590602001908201803590602001908080601f0160208091040260200160405190810160405280939291908181526020018383808284378201915050505050509190803590602001908201803590602001908080601f0160208091040260200160405190810160405280939291908181526020018383808284378201915050505050509190803590602001909190803590602001908201803590602001908080601f0160208091040260200160405190810160405280939291908181526020018383808284378201915050505050509190803590602001908201803590602001908080601f0160208091040260200160405190810160405280939291908181526020018383808284378201915050505050509190803590602001908201803590602001908080601f0160208091040260200160405190810160405280939291908181526020018383808284378201915050505050509190803590602001908201803590602001908080601f0160208091040260200160405190810160405280939291908181526020018383808284378201915050505050509190803590602001908201803590602001908080601f0160208091040260200160405190810160405280939291908181526020018383808284378201915050505050509190803590602001908201803590602001908080601f01602080910402602001604051908101604052809392919081815260200183838082843782019150505050505091905050611003565b6040518082815260200191505060405180910390f35b341561073557600080fd5b61076a600480803573ffffffffffffffffffffffffffffffffffffffff169060200190919080359060200190919050506112de565b604051808215151515815260200191505060405180910390f35b341561078f57600080fd5b6107da600480803573ffffffffffffffffffffffffffffffffffffffff1690602001909190803573ffffffffffffffffffffffffffffffffffffffff1690602001909190505061142a565b6040518082815260200191505060405180910390f35b34156107fb57600080fd5b61081a60048080359060200190919080359060200190919050506114b1565b6040518082815260200191505060405180910390f35b341561083b57600080fd5b610867600480803573ffffffffffffffffffffffffffffffffffffffff169060200190919050506114cd565b005b341561087457600080fd5b61087c6115a7565b6040518080602001828103825283818151815260200191508051906020019080838360005b838110156108bc5780820151818401526020810190506108a1565b50505050905090810190601f1680156108e95780820380516001836020036101000a031916815260200191505b509250505060405180910390f35b600081600360003373ffffffffffffffffffffffffffffffffffffffff1673ffffffffffffffffffffffffffffffffffffffff16815260200190815260200160002060008573ffffffffffffffffffffffffffffffffffffffff1673ffffffffffffffffffffffffffffffffffffffff168152602001908152602001600020819055508273ffffffffffffffffffffffffffffffffffffffff163373ffffffffffffffffffffffffffffffffffffffff167f8c5be1e5ebec7d5bd14f71427d1e84f3dd0314c0f7b2291e5b200ac8c7c3b925846040518082815260200191505060405180910390a36001905092915050565b6000600154905090565b6000610a3e600260008673ffffffffffffffffffffffffffffffffffffffff1673ffffffffffffffffffffffffffffffffffffffff1681526020019081526020016000205483610e25565b600260008673ffffffffffffffffffffffffffffffffffffffff1673ffffffffffffffffffffffffffffffffffffffff16815260200190815260200160002081905550610b07600360008673ffffffffffffffffffffffffffffffffffffffff1673ffffffffffffffffffffffffffffffffffffffff16815260200190815260200160002060003373ffffffffffffffffffffffffffffffffffffffff1673ffffffffffffffffffffffffffffffffffffffff1681526020019081526020016000205483610e25565b600360008673ffffffffffffffffffffffffffffffffffffffff1673ffffffffffffffffffffffffffffffffffffffff16815260200190815260200160002060003373ffffffffffffffffffffffffffffffffffffffff1673ffffffffffffffffffffffffffffffffffffffff16815260200190815260200160002081905550610bd0600260008573ffffffffffffffffffffffffffffffffffffffff1673ffffffffffffffffffffffffffffffffffffffff16815260200190815260200160002054836114b1565b600260008573ffffffffffffffffffffffffffffffffffffffff1673ffffffffffffffffffffffffffffffffffffffff168152602001908152602001600020819055508273ffffffffffffffffffffffffffffffffffffffff168473ffffffffffffffffffffffffffffffffffffffff167fddf252ad1be2c89b69c2b068fc378daa952ba7f163c4a11628f55a4df523b3ef846040518082815260200191505060405180910390a3600190509392505050565b60056020528060005260406000206000915090505481565b60015481565b601281565b6000600260008373ffffffffffffffffffffffffffffffffffffffff1673ffffffffffffffffffffffffffffffffffffffff168152602001908152602001600020549050919050565b60066020528060005260406000206000915090505481565b6000610d52600260003373ffffffffffffffffffffffffffffffffffffffff1673ffffffffffffffffffffffffffffffffffffffff16815260200190815260200160002054836114b1565b600260003373ffffffffffffffffffffffffffffffffffffffff1673ffffffffffffffffffffffffffffffffffffffff168152602001908152602001600020819055503373ffffffffffffffffffffffffffffffffffffffff16600073ffffffffffffffffffffffffffffffffffffffff167fddf252ad1be2c89b69c2b068fc378daa952ba7f163c4a11628f55a4df523b3ef846040518082815260200191505060405180910390a3919050565b6000809054906101000a900473ffffffffffffffffffffffffffffffffffffffff1681565b6000828211151515610e3657600080fd5b818303905092915050565b6040805190810160405280600b81526020017f496e6469666920436f696e00000000000000000000000000000000000000000081525081565b6000610ec5600260003373ffffffffffffffffffffffffffffffffffffffff1673ffffffffffffffffffffffffffffffffffffffff1681526020019081526020016000205483610e25565b600260003373ffffffffffffffffffffffffffffffffffffffff1673ffffffffffffffffffffffffffffffffffffffff16815260200190815260200160002081905550610f51600260008573ffffffffffffffffffffffffffffffffffffffff1673ffffffffffffffffffffffffffffffffffffffff16815260200190815260200160002054836114b1565b600260008573ffffffffffffffffffffffffffffffffffffffff1673ffffffffffffffffffffffffffffffffffffffff168152602001908152602001600020819055508273ffffffffffffffffffffffffffffffffffffffff163373ffffffffffffffffffffffffffffffffffffffff167fddf252ad1be2c89b69c2b068fc378daa952ba7f163c4a11628f55a4df523b3ef846040518082815260200191505060405180910390a36001905092915050565b6000806000611010611604565b60008060009054906101000a900473ffffffffffffffffffffffffffffffffffffffff1673ffffffffffffffffffffffffffffffffffffffff163373ffffffffffffffffffffffffffffffffffffffff1614151561106d57600080fd5b6110768e6115e0565b9350611081896115e0565b9250600060056000866000191660001916815260200190815260200160002054111515156110ae57600080fd5b600060066000856000191660001916815260200190815260200160002054111515156110d957600080fd5b610140604051908101604052808f81526020018e81526020018d81526020018c81526020018b81526020018a81526020018981526020018881526020018781526020014267ffffffffffffffff1681525091506001600480548060010182816111429190611692565b91600052602060002090600a0201600085909190915060008201518160000190805190602001906111749291906116c4565b5060208201518160010190805190602001906111919291906116c4565b506040820151816002015560608201518160030190805190602001906111b89291906116c4565b5060808201518160040190805190602001906111d59291906116c4565b5060a08201518160050190805190602001906111f29291906116c4565b5060c082015181600601908051906020019061120f9291906116c4565b5060e082015181600701908051906020019061122c9291906116c4565b5061010082015181600801908051906020019061124a9291906116c4565b506101208201518160090160006101000a81548167ffffffffffffffff021916908367ffffffffffffffff1602179055505050039050806005600086600019166000191681526020019081526020016000208190555080600660008560001916600019168152602001908152602001600020819055506112c98c610d07565b50809450505050509998505050505050505050565b60008060009054906101000a900473ffffffffffffffffffffffffffffffffffffffff1673ffffffffffffffffffffffffffffffffffffffff163373ffffffffffffffffffffffffffffffffffffffff1614151561133b57600080fd5b8273ffffffffffffffffffffffffffffffffffffffff1663a9059cbb6000809054906101000a900473ffffffffffffffffffffffffffffffffffffffff16846000604051602001526040518363ffffffff167c0100000000000000000000000000000000000000000000000000000000028152600401808373ffffffffffffffffffffffffffffffffffffffff1673ffffffffffffffffffffffffffffffffffffffff16815260200182815260200192505050602060405180830381600087803b151561140757600080fd5b6102c65a03f1151561141857600080fd5b50505060405180519050905092915050565b6000600360008473ffffffffffffffffffffffffffffffffffffffff1673ffffffffffffffffffffffffffffffffffffffff16815260200190815260200160002060008373ffffffffffffffffffffffffffffffffffffffff1673ffffffffffffffffffffffffffffffffffffffff16815260200190815260200160002054905092915050565b600081830190508281101515156114c757600080fd5b92915050565b6000809054906101000a900473ffffffffffffffffffffffffffffffffffffffff1673ffffffffffffffffffffffffffffffffffffffff163373ffffffffffffffffffffffffffffffffffffffff1614151561152857600080fd5b600073ffffffffffffffffffffffffffffffffffffffff168173ffffffffffffffffffffffffffffffffffffffff161415151561156457600080fd5b806000806101000a81548173ffffffffffffffffffffffffffffffffffffffff021916908373ffffffffffffffffffffffffffffffffffffffff16021790555050565b6040805190810160405280600681526020017f494e44494649000000000000000000000000000000000000000000000000000081525081565b600080825114156115f757600060010290506115ff565b602082015190505b919050565b61014060405190810160405280611619611744565b8152602001611626611744565b81526020016000815260200161163a611744565b8152602001611647611744565b8152602001611654611744565b8152602001611661611744565b815260200161166e611744565b815260200161167b611744565b8152602001600067ffffffffffffffff1681525090565b8154818355818115116116bf57600a0281600a0283600052602060002091820191016116be9190611758565b5b505050565b828054600181600116156101000203166002900490600052602060002090601f016020900481019282601f1061170557805160ff1916838001178555611733565b82800160010185558215611733579182015b82811115611732578251825591602001919060010190611717565b5b509050611740919061181a565b5090565b602060405190810160405280600081525090565b61181791905b808211156118135760008082016000611777919061183f565b600182016000611787919061183f565b600282016000905560038201600061179f919061183f565b6004820160006117af919061183f565b6005820160006117bf919061183f565b6006820160006117cf919061183f565b6007820160006117df919061183f565b6008820160006117ef919061183f565b6009820160006101000a81549067ffffffffffffffff021916905550600a0161175e565b5090565b90565b61183c91905b80821115611838576000816000905550600101611820565b5090565b90565b50805460018160011615610100020316600290046000825580601f106118655750611884565b601f016020900490600052602060002090810190611883919061181a565b5b505600a165627a7a723058203be4d1b891884c1e418a8491ee2720e08793874efef7a779a07f0f26b2841f790029",
  "source": "pragma solidity ^0.4.18;\n\n\nimport \"./IndifiCoin.sol\";\n\n\ncontract IncomingTransaction is IndifiCoin {\n\n    struct Transaction {\n        string transaction_id;\n        string recipient_account_number;\n        uint256 amount;\n        string remitter_name;\n        string remitter_account;\n        string transaction_reference_number;\n        string virtual_account_number;\n        string mode;\n        string transaction_date;\n        uint64 timestamp;\n    }\n\n    Transaction[] internal transactions;\n\n    mapping(bytes32 => uint256) public TransactionIDToIndex;\n\n    mapping(bytes32 => uint256) public TransactionReferenceNumberToIndex;\n\n    function IncomingTransaction() public {\n        owner = msg.sender;\n    }\n\n    function newIncomingTransaction(\n        string transaction_id,\n        string recipient_account_number,\n        uint256 amount,\n        string remitter_name,\n        string remitter_account,\n        string transaction_reference_number,\n        string virtual_account_number,\n        string mode,\n        string transaction_date\n    ) public onlyOwner returns (uint256) {\n        bytes32 transaction_id_bytes = _stringToBytes32(transaction_id);\n        bytes32 transaction_reference_number_bytes = _stringToBytes32(transaction_reference_number);\n\n        require(TransactionIDToIndex[transaction_id_bytes] <= 0);\n        require(TransactionReferenceNumberToIndex[transaction_reference_number_bytes] <= 0);\n\n        Transaction memory txn = Transaction({\n            transaction_id : transaction_id,\n            recipient_account_number : recipient_account_number,\n            amount : amount,\n            remitter_name : remitter_name,\n            remitter_account : remitter_account,\n            transaction_reference_number : transaction_reference_number,\n            virtual_account_number : virtual_account_number,\n            mode : mode,\n            transaction_date : transaction_date,\n            timestamp : uint64(now)\n            });\n\n        uint256 txnId = transactions.push(txn) - 1;\n\n        TransactionIDToIndex[transaction_id_bytes] = txnId;\n        TransactionReferenceNumberToIndex[transaction_reference_number_bytes] = txnId;\n\n        // generate amount equivalent to sent amount in borrowers account\n        createTokens(amount);\n\n        return txnId;\n    }\n}",
  "sourcePath": "/Users/aditya/Documents/indifi/blockchain/escrow-ethereum/contracts/IncomingTransaction.sol",
  "compiler": {
    "name": "solc",
    "version": "0.4.18+commit.9cf6e910.Emscripten.clang"
  },
  "schemaVersion": "1.0.1",
  "updatedAt": "2018-03-13T09:48:01.945Z"
}