{
  "contractName": "IncomingTransaction",
  "abi": [
    {
      "constant": true,
      "inputs": [
        {
          "name": "",
          "type": "bytes32"
        }
      ],
      "name": "TransactionIDToIndex",
      "outputs": [
        {
          "name": "",
          "type": "uint256"
        }
      ],
      "payable": false,
      "stateMutability": "view",
      "type": "function"
    },
    {
      "constant": false,
      "inputs": [
        {
          "name": "virtual_account_number",
          "type": "string"
        },
        {
          "name": "split_contract_address",
          "type": "address"
        }
      ],
      "name": "addNewSplitPolicy",
      "outputs": [
        {
          "name": "",
          "type": "bool"
        }
      ],
      "payable": false,
      "stateMutability": "nonpayable",
      "type": "function"
    },
    {
      "constant": true,
      "inputs": [
        {
          "name": "",
          "type": "bytes32"
        }
      ],
      "name": "TransactionReferenceNumberToIndex",
      "outputs": [
        {
          "name": "",
          "type": "uint256"
        }
      ],
      "payable": false,
      "stateMutability": "view",
      "type": "function"
    },
    {
      "constant": true,
      "inputs": [
        {
          "name": "virtual_account_number",
          "type": "string"
        }
      ],
      "name": "getSplitPolicyAddress",
      "outputs": [
        {
          "name": "",
          "type": "address"
        }
      ],
      "payable": false,
      "stateMutability": "view",
      "type": "function"
    },
    {
      "constant": true,
      "inputs": [],
      "name": "owner",
      "outputs": [
        {
          "name": "",
          "type": "address"
        }
      ],
      "payable": false,
      "stateMutability": "view",
      "type": "function"
    },
    {
      "constant": true,
      "inputs": [
        {
          "name": "a",
          "type": "uint256"
        },
        {
          "name": "b",
          "type": "uint256"
        }
      ],
      "name": "safeSub",
      "outputs": [
        {
          "name": "c",
          "type": "uint256"
        }
      ],
      "payable": false,
      "stateMutability": "pure",
      "type": "function"
    },
    {
      "constant": false,
      "inputs": [
        {
          "name": "transaction_id",
          "type": "string"
        },
        {
          "name": "recipient_account_number",
          "type": "string"
        },
        {
          "name": "amount",
          "type": "uint256"
        },
        {
          "name": "remitter_name",
          "type": "string"
        },
        {
          "name": "remitter_account",
          "type": "string"
        },
        {
          "name": "transaction_reference_number",
          "type": "string"
        },
        {
          "name": "virtual_account_number",
          "type": "string"
        },
        {
          "name": "mode",
          "type": "string"
        },
        {
          "name": "transaction_date",
          "type": "string"
        }
      ],
      "name": "newIncomingTransaction",
      "outputs": [
        {
          "name": "",
          "type": "uint256"
        }
      ],
      "payable": false,
      "stateMutability": "nonpayable",
      "type": "function"
    },
    {
      "constant": true,
      "inputs": [
        {
          "name": "a",
          "type": "uint256"
        },
        {
          "name": "b",
          "type": "uint256"
        }
      ],
      "name": "safeDiv",
      "outputs": [
        {
          "name": "c",
          "type": "uint256"
        }
      ],
      "payable": false,
      "stateMutability": "pure",
      "type": "function"
    },
    {
      "constant": true,
      "inputs": [
        {
          "name": "a",
          "type": "uint256"
        },
        {
          "name": "b",
          "type": "uint256"
        }
      ],
      "name": "safeMul",
      "outputs": [
        {
          "name": "c",
          "type": "uint256"
        }
      ],
      "payable": false,
      "stateMutability": "pure",
      "type": "function"
    },
    {
      "constant": false,
      "inputs": [
        {
          "name": "virtual_account_number",
          "type": "string"
        },
        {
          "name": "split_contract_address",
          "type": "address"
        }
      ],
      "name": "updateSplitPolicy",
      "outputs": [
        {
          "name": "",
          "type": "bool"
        }
      ],
      "payable": false,
      "stateMutability": "nonpayable",
      "type": "function"
    },
    {
      "constant": true,
      "inputs": [
        {
          "name": "a",
          "type": "uint256"
        },
        {
          "name": "b",
          "type": "uint256"
        }
      ],
      "name": "safeAdd",
      "outputs": [
        {
          "name": "c",
          "type": "uint256"
        }
      ],
      "payable": false,
      "stateMutability": "pure",
      "type": "function"
    },
    {
      "inputs": [],
      "payable": false,
      "stateMutability": "nonpayable",
      "type": "constructor"
    }
  ],
  "bytecode": "0x6060604052341561000f57600080fd5b336000806101000a81548173ffffffffffffffffffffffffffffffffffffffff021916908373ffffffffffffffffffffffffffffffffffffffff160217905550336000806101000a81548173ffffffffffffffffffffffffffffffffffffffff021916908373ffffffffffffffffffffffffffffffffffffffff16021790555061109c8061009e6000396000f3006060604052600436106100af576000357c0100000000000000000000000000000000000000000000000000000000900463ffffffff168063272b5e82146100b457806330ceb3bd146100ef57806376a2efcb14610183578063784ce934146101be5780638da5cb5b1461025b578063a293d1e8146102b0578063aa4eb9a7146102f0578063b5931f7c1461053f578063d05c78da1461057f578063e0e18ae0146105bf578063e6cb901314610653575b600080fd5b34156100bf57600080fd5b6100d9600480803560001916906020019091905050610693565b6040518082815260200191505060405180910390f35b34156100fa57600080fd5b610169600480803590602001908201803590602001908080601f0160208091040260200160405190810160405280939291908181526020018383808284378201915050505050509190803573ffffffffffffffffffffffffffffffffffffffff169060200190919050506106ab565b604051808215151515815260200191505060405180910390f35b341561018e57600080fd5b6101a860048080356000191690602001909190505061083f565b6040518082815260200191505060405180910390f35b34156101c957600080fd5b610219600480803590602001908201803590602001908080601f01602080910402602001604051908101604052809392919081815260200183838082843782019150505050505091905050610857565b604051808273ffffffffffffffffffffffffffffffffffffffff1673ffffffffffffffffffffffffffffffffffffffff16815260200191505060405180910390f35b341561026657600080fd5b61026e6108a9565b604051808273ffffffffffffffffffffffffffffffffffffffff1673ffffffffffffffffffffffffffffffffffffffff16815260200191505060405180910390f35b34156102bb57600080fd5b6102da60048080359060200190919080359060200190919050506108ce565b6040518082815260200191505060405180910390f35b34156102fb57600080fd5b610529600480803590602001908201803590602001908080601f0160208091040260200160405190810160405280939291908181526020018383808284378201915050505050509190803590602001908201803590602001908080601f0160208091040260200160405190810160405280939291908181526020018383808284378201915050505050509190803590602001909190803590602001908201803590602001908080601f0160208091040260200160405190810160405280939291908181526020018383808284378201915050505050509190803590602001908201803590602001908080601f0160208091040260200160405190810160405280939291908181526020018383808284378201915050505050509190803590602001908201803590602001908080601f0160208091040260200160405190810160405280939291908181526020018383808284378201915050505050509190803590602001908201803590602001908080601f0160208091040260200160405190810160405280939291908181526020018383808284378201915050505050509190803590602001908201803590602001908080601f0160208091040260200160405190810160405280939291908181526020018383808284378201915050505050509190803590602001908201803590602001908080601f016020809104026020016040519081016040528093929190818152602001838380828437820191505050505050919050506108ea565b6040518082815260200191505060405180910390f35b341561054a57600080fd5b6105696004808035906020019091908035906020019091905050610bbb565b6040518082815260200191505060405180910390f35b341561058a57600080fd5b6105a96004808035906020019091908035906020019091905050610bdf565b6040518082815260200191505060405180910390f35b34156105ca57600080fd5b610639600480803590602001908201803590602001908080601f0160208091040260200160405190810160405280939291908181526020018383808284378201915050505050509190803573ffffffffffffffffffffffffffffffffffffffff16906020019091905050610c10565b604051808215151515815260200191505060405180910390f35b341561065e57600080fd5b61067d6004808035906020019091908035906020019091905050610da0565b6040518082815260200191505060405180910390f35b60036020528060005260406000206000915090505481565b6000806000809054906101000a900473ffffffffffffffffffffffffffffffffffffffff1673ffffffffffffffffffffffffffffffffffffffff163373ffffffffffffffffffffffffffffffffffffffff1614151561070957600080fd5b61071284610dbc565b9050600073ffffffffffffffffffffffffffffffffffffffff168373ffffffffffffffffffffffffffffffffffffffff161415151561075057600080fd5b61075983610de0565b151561076457600080fd5b600073ffffffffffffffffffffffffffffffffffffffff1660016000836000191660001916815260200190815260200160002060009054906101000a900473ffffffffffffffffffffffffffffffffffffffff1673ffffffffffffffffffffffffffffffffffffffff161415156107da57600080fd5b8260016000836000191660001916815260200190815260200160002060006101000a81548173ffffffffffffffffffffffffffffffffffffffff021916908373ffffffffffffffffffffffffffffffffffffffff160217905550600191505092915050565b60046020528060005260406000206000915090505481565b60008061086383610dbc565b905060016000826000191660001916815260200190815260200160002060009054906101000a900473ffffffffffffffffffffffffffffffffffffffff16915050919050565b6000809054906101000a900473ffffffffffffffffffffffffffffffffffffffff1681565b60008282111515156108df57600080fd5b818303905092915050565b60008060006108f7610ded565b60008060009054906101000a900473ffffffffffffffffffffffffffffffffffffffff1673ffffffffffffffffffffffffffffffffffffffff163373ffffffffffffffffffffffffffffffffffffffff1614151561095457600080fd5b61095d8e610dbc565b935061096889610dbc565b92506000600360008660001916600019168152602001908152602001600020541115151561099557600080fd5b600060046000856000191660001916815260200190815260200160002054111515156109c057600080fd5b610140604051908101604052808f81526020018e81526020018d81526020018c81526020018b81526020018a81526020018981526020018881526020018781526020014267ffffffffffffffff168152509150600160028054806001018281610a299190610e7b565b91600052602060002090600a020160008590919091506000820151816000019080519060200190610a5b929190610ead565b506020820151816001019080519060200190610a78929190610ead565b50604082015181600201556060820151816003019080519060200190610a9f929190610ead565b506080820151816004019080519060200190610abc929190610ead565b5060a0820151816005019080519060200190610ad9929190610ead565b5060c0820151816006019080519060200190610af6929190610ead565b5060e0820151816007019080519060200190610b13929190610ead565b50610100820151816008019080519060200190610b31929190610ead565b506101208201518160090160006101000a81548167ffffffffffffffff021916908367ffffffffffffffff160217905550505003905080600360008660001916600019168152602001908152602001600020819055508060046000856000191660001916815260200190815260200160002081905550809450505050509998505050505050505050565b60008082111515610bcb57600080fd5b8183811515610bd657fe5b04905092915050565b600081830290506000831480610bff5750818382811515610bfc57fe5b04145b1515610c0a57600080fd5b92915050565b6000806000809054906101000a900473ffffffffffffffffffffffffffffffffffffffff1673ffffffffffffffffffffffffffffffffffffffff163373ffffffffffffffffffffffffffffffffffffffff16141515610c6e57600080fd5b610c7784610dbc565b9050600073ffffffffffffffffffffffffffffffffffffffff168373ffffffffffffffffffffffffffffffffffffffff1614151515610cb557600080fd5b610cbe83610de0565b1515610cc957600080fd5b8273ffffffffffffffffffffffffffffffffffffffff1660016000836000191660001916815260200190815260200160002060009054906101000a900473ffffffffffffffffffffffffffffffffffffffff1673ffffffffffffffffffffffffffffffffffffffff1614151515610d3f57600080fd5b8260016000836000191660001916815260200190815260200160002060006101000a81548173ffffffffffffffffffffffffffffffffffffffff021916908373ffffffffffffffffffffffffffffffffffffffff1602179055505092915050565b60008183019050828110151515610db657600080fd5b92915050565b60008082511415610dd35760006001029050610ddb565b602082015190505b919050565b600080823b119050919050565b61014060405190810160405280610e02610f2d565b8152602001610e0f610f2d565b815260200160008152602001610e23610f2d565b8152602001610e30610f2d565b8152602001610e3d610f2d565b8152602001610e4a610f2d565b8152602001610e57610f2d565b8152602001610e64610f2d565b8152602001600067ffffffffffffffff1681525090565b815481835581811511610ea857600a0281600a028360005260206000209182019101610ea79190610f41565b5b505050565b828054600181600116156101000203166002900490600052602060002090601f016020900481019282601f10610eee57805160ff1916838001178555610f1c565b82800160010185558215610f1c579182015b82811115610f1b578251825591602001919060010190610f00565b5b509050610f299190611003565b5090565b602060405190810160405280600081525090565b61100091905b80821115610ffc5760008082016000610f609190611028565b600182016000610f709190611028565b6002820160009055600382016000610f889190611028565b600482016000610f989190611028565b600582016000610fa89190611028565b600682016000610fb89190611028565b600782016000610fc89190611028565b600882016000610fd89190611028565b6009820160006101000a81549067ffffffffffffffff021916905550600a01610f47565b5090565b90565b61102591905b80821115611021576000816000905550600101611009565b5090565b90565b50805460018160011615610100020316600290046000825580601f1061104e575061106d565b601f01602090049060005260206000209081019061106c9190611003565b5b505600a165627a7a72305820971765eaac02afd8373aa8aa31efdfa86d1bc9c7989d39f261eb5c3b7b7abc480029",
  "source": "pragma solidity ^0.4.18;\n\n\nimport \"./VirtualAccountSplitPolicy.sol\";\n\n\ncontract IncomingTransaction is VirtualAccountSplitPolicy {\n\n    struct Transaction {\n        string transaction_id;\n        string recipient_account_number;\n        uint256 amount;\n        string remitter_name;\n        string remitter_account;\n        string transaction_reference_number;\n        string virtual_account_number;\n        string mode;\n        string transaction_date;\n        uint64 timestamp;\n    }\n\n    Transaction[] internal transactions;\n\n    mapping(bytes32 => uint256) public TransactionIDToIndex;\n\n    mapping(bytes32 => uint256) public TransactionReferenceNumberToIndex;\n\n    function IncomingTransaction() public {\n        owner = msg.sender;\n    }\n\n    function newIncomingTransaction(\n        string transaction_id,\n        string recipient_account_number,\n        uint256 amount,\n        string remitter_name,\n        string remitter_account,\n        string transaction_reference_number,\n        string virtual_account_number,\n        string mode,\n        string transaction_date\n    ) public onlyOwner returns (uint256) {\n        bytes32 transaction_id_bytes = _stringToBytes32(transaction_id);\n        bytes32 transaction_reference_number_bytes = _stringToBytes32(transaction_reference_number);\n\n        require(TransactionIDToIndex[transaction_id_bytes] <= 0);\n        require(TransactionReferenceNumberToIndex[transaction_reference_number_bytes] <= 0);\n\n        Transaction memory txn = Transaction({\n            transaction_id : transaction_id,\n            recipient_account_number : recipient_account_number,\n            amount : amount,\n            remitter_name : remitter_name,\n            remitter_account : remitter_account,\n            transaction_reference_number : transaction_reference_number,\n            virtual_account_number : virtual_account_number,\n            mode : mode,\n            transaction_date : transaction_date,\n            timestamp : uint64(now)\n            });\n\n        uint256 txnId = transactions.push(txn) - 1;\n\n        TransactionIDToIndex[transaction_id_bytes] = txnId;\n        TransactionReferenceNumberToIndex[transaction_reference_number_bytes] = txnId;\n\n        // generate amount equivalent to sent amount in borrowers account\n\n        return txnId;\n    }\n}",
  "sourcePath": "/Users/aditya/Documents/indifi/blockchain/escrow-ethereum/contracts/IncomingTransaction.sol",
  "compiler": {
    "name": "solc",
    "version": "0.4.18+commit.9cf6e910.Emscripten.clang"
  },
  "schemaVersion": "1.0.1",
  "updatedAt": "2018-03-12T06:51:11.753Z"
}