{
  "contractName": "IncomingTransaction",
  "abi": [
    {
      "constant": false,
      "inputs": [
        {
          "name": "spender",
          "type": "address"
        },
        {
          "name": "tokens",
          "type": "uint256"
        }
      ],
      "name": "approve",
      "outputs": [
        {
          "name": "",
          "type": "bool"
        }
      ],
      "payable": false,
      "stateMutability": "nonpayable",
      "type": "function"
    },
    {
      "constant": true,
      "inputs": [],
      "name": "totalSupply",
      "outputs": [
        {
          "name": "",
          "type": "uint256"
        }
      ],
      "payable": false,
      "stateMutability": "view",
      "type": "function"
    },
    {
      "constant": false,
      "inputs": [
        {
          "name": "from",
          "type": "address"
        },
        {
          "name": "to",
          "type": "address"
        },
        {
          "name": "tokens",
          "type": "uint256"
        }
      ],
      "name": "transferFrom",
      "outputs": [
        {
          "name": "success",
          "type": "bool"
        }
      ],
      "payable": false,
      "stateMutability": "nonpayable",
      "type": "function"
    },
    {
      "constant": true,
      "inputs": [
        {
          "name": "",
          "type": "bytes32"
        }
      ],
      "name": "TransactionIDToIndex",
      "outputs": [
        {
          "name": "",
          "type": "uint256"
        }
      ],
      "payable": false,
      "stateMutability": "view",
      "type": "function"
    },
    {
      "constant": false,
      "inputs": [
        {
          "name": "virtual_account_number",
          "type": "string"
        },
        {
          "name": "split_contract_address",
          "type": "address"
        }
      ],
      "name": "addNewSplitPolicy",
      "outputs": [
        {
          "name": "",
          "type": "bool"
        }
      ],
      "payable": false,
      "stateMutability": "nonpayable",
      "type": "function"
    },
    {
      "constant": true,
      "inputs": [],
      "name": "_totalSupply",
      "outputs": [
        {
          "name": "",
          "type": "uint256"
        }
      ],
      "payable": false,
      "stateMutability": "view",
      "type": "function"
    },
    {
      "constant": true,
      "inputs": [],
      "name": "DECIMAL",
      "outputs": [
        {
          "name": "",
          "type": "uint8"
        }
      ],
      "payable": false,
      "stateMutability": "view",
      "type": "function"
    },
    {
      "constant": true,
      "inputs": [
        {
          "name": "tokenOwner",
          "type": "address"
        }
      ],
      "name": "balanceOf",
      "outputs": [
        {
          "name": "balance",
          "type": "uint256"
        }
      ],
      "payable": false,
      "stateMutability": "view",
      "type": "function"
    },
    {
      "constant": true,
      "inputs": [
        {
          "name": "",
          "type": "bytes32"
        }
      ],
      "name": "TransactionReferenceNumberToIndex",
      "outputs": [
        {
          "name": "",
          "type": "uint256"
        }
      ],
      "payable": false,
      "stateMutability": "view",
      "type": "function"
    },
    {
      "constant": true,
      "inputs": [
        {
          "name": "virtual_account_number",
          "type": "string"
        }
      ],
      "name": "getSplitPolicyAddress",
      "outputs": [
        {
          "name": "",
          "type": "address"
        }
      ],
      "payable": false,
      "stateMutability": "view",
      "type": "function"
    },
    {
      "constant": false,
      "inputs": [
        {
          "name": "tokens",
          "type": "uint256"
        }
      ],
      "name": "createTokens",
      "outputs": [
        {
          "name": "",
          "type": "bool"
        }
      ],
      "payable": false,
      "stateMutability": "nonpayable",
      "type": "function"
    },
    {
      "constant": true,
      "inputs": [],
      "name": "owner",
      "outputs": [
        {
          "name": "",
          "type": "address"
        }
      ],
      "payable": false,
      "stateMutability": "view",
      "type": "function"
    },
    {
      "constant": true,
      "inputs": [
        {
          "name": "a",
          "type": "uint256"
        },
        {
          "name": "b",
          "type": "uint256"
        }
      ],
      "name": "safeSub",
      "outputs": [
        {
          "name": "c",
          "type": "uint256"
        }
      ],
      "payable": false,
      "stateMutability": "pure",
      "type": "function"
    },
    {
      "constant": true,
      "inputs": [],
      "name": "NAME",
      "outputs": [
        {
          "name": "",
          "type": "string"
        }
      ],
      "payable": false,
      "stateMutability": "view",
      "type": "function"
    },
    {
      "constant": false,
      "inputs": [
        {
          "name": "to",
          "type": "address"
        },
        {
          "name": "tokens",
          "type": "uint256"
        }
      ],
      "name": "transfer",
      "outputs": [
        {
          "name": "success",
          "type": "bool"
        }
      ],
      "payable": false,
      "stateMutability": "nonpayable",
      "type": "function"
    },
    {
      "constant": false,
      "inputs": [
        {
          "name": "transaction_id",
          "type": "string"
        },
        {
          "name": "recipient_account_number",
          "type": "string"
        },
        {
          "name": "amount",
          "type": "uint256"
        },
        {
          "name": "remitter_name",
          "type": "string"
        },
        {
          "name": "remitter_account",
          "type": "string"
        },
        {
          "name": "transaction_reference_number",
          "type": "string"
        },
        {
          "name": "virtual_account_number",
          "type": "string"
        },
        {
          "name": "mode",
          "type": "string"
        },
        {
          "name": "transaction_date",
          "type": "string"
        }
      ],
      "name": "newIncomingTransaction",
      "outputs": [
        {
          "name": "",
          "type": "uint256"
        }
      ],
      "payable": false,
      "stateMutability": "nonpayable",
      "type": "function"
    },
    {
      "constant": false,
      "inputs": [
        {
          "name": "tokenAddress",
          "type": "address"
        },
        {
          "name": "tokens",
          "type": "uint256"
        }
      ],
      "name": "transferAnyERC20Token",
      "outputs": [
        {
          "name": "",
          "type": "bool"
        }
      ],
      "payable": false,
      "stateMutability": "nonpayable",
      "type": "function"
    },
    {
      "constant": true,
      "inputs": [
        {
          "name": "tokenOwner",
          "type": "address"
        },
        {
          "name": "spender",
          "type": "address"
        }
      ],
      "name": "allowance",
      "outputs": [
        {
          "name": "remaining",
          "type": "uint256"
        }
      ],
      "payable": false,
      "stateMutability": "view",
      "type": "function"
    },
    {
      "constant": false,
      "inputs": [
        {
          "name": "virtual_account_number",
          "type": "string"
        },
        {
          "name": "split_contract_address",
          "type": "address"
        }
      ],
      "name": "updateSplitPolicy",
      "outputs": [
        {
          "name": "",
          "type": "bool"
        }
      ],
      "payable": false,
      "stateMutability": "nonpayable",
      "type": "function"
    },
    {
      "constant": true,
      "inputs": [
        {
          "name": "a",
          "type": "uint256"
        },
        {
          "name": "b",
          "type": "uint256"
        }
      ],
      "name": "safeAdd",
      "outputs": [
        {
          "name": "c",
          "type": "uint256"
        }
      ],
      "payable": false,
      "stateMutability": "pure",
      "type": "function"
    },
    {
      "constant": false,
      "inputs": [
        {
          "name": "_newOwner",
          "type": "address"
        }
      ],
      "name": "transferOwnership",
      "outputs": [],
      "payable": false,
      "stateMutability": "nonpayable",
      "type": "function"
    },
    {
      "constant": true,
      "inputs": [],
      "name": "SYMBOL",
      "outputs": [
        {
          "name": "",
          "type": "string"
        }
      ],
      "payable": false,
      "stateMutability": "view",
      "type": "function"
    },
    {
      "inputs": [],
      "payable": false,
      "stateMutability": "nonpayable",
      "type": "constructor"
    },
    {
      "payable": true,
      "stateMutability": "payable",
      "type": "fallback"
    },
    {
      "anonymous": false,
      "inputs": [
        {
          "indexed": true,
          "name": "_from",
          "type": "address"
        },
        {
          "indexed": true,
          "name": "_to",
          "type": "address"
        }
      ],
      "name": "OwnershipTransferred",
      "type": "event"
    },
    {
      "anonymous": false,
      "inputs": [
        {
          "indexed": true,
          "name": "from",
          "type": "address"
        },
        {
          "indexed": true,
          "name": "to",
          "type": "address"
        },
        {
          "indexed": false,
          "name": "tokens",
          "type": "uint256"
        }
      ],
      "name": "Transfer",
      "type": "event"
    },
    {
      "anonymous": false,
      "inputs": [
        {
          "indexed": true,
          "name": "tokenOwner",
          "type": "address"
        },
        {
          "indexed": true,
          "name": "spender",
          "type": "address"
        },
        {
          "indexed": false,
          "name": "tokens",
          "type": "uint256"
        }
      ],
      "name": "Approval",
      "type": "event"
    }
  ],
  "bytecode": "0x6060604052341561000f57600080fd5b336000806101000a81548173ffffffffffffffffffffffffffffffffffffffff021916908373ffffffffffffffffffffffffffffffffffffffff1602179055506000600281905550336000806101000a81548173ffffffffffffffffffffffffffffffffffffffff021916908373ffffffffffffffffffffffffffffffffffffffff160217905550611e77806100a66000396000f300606060405260043610610128576000357c0100000000000000000000000000000000000000000000000000000000900463ffffffff168063095ea7b31461012d57806318160ddd1461018757806323b872dd146101b0578063272b5e821461022957806330ceb3bd146102645780633eaaf86b146102f85780636ab55fd91461032157806370a082311461035057806376a2efcb1461039d578063784ce934146103d85780637e1f2bb8146104755780638da5cb5b146104b0578063a293d1e814610505578063a3f4df7e14610545578063a9059cbb146105d3578063aa4eb9a71461062d578063dc39d06d1461087c578063dd62ed3e146108d6578063e0e18ae014610942578063e6cb9013146109d6578063f2fde38b14610a16578063f76f8d7814610a4f575b600080fd5b341561013857600080fd5b61016d600480803573ffffffffffffffffffffffffffffffffffffffff16906020019091908035906020019091905050610add565b604051808215151515815260200191505060405180910390f35b341561019257600080fd5b61019a610bcf565b6040518082815260200191505060405180910390f35b34156101bb57600080fd5b61020f600480803573ffffffffffffffffffffffffffffffffffffffff1690602001909190803573ffffffffffffffffffffffffffffffffffffffff16906020019091908035906020019091905050610bd9565b604051808215151515815260200191505060405180910390f35b341561023457600080fd5b61024e600480803560001916906020019091905050610e69565b6040518082815260200191505060405180910390f35b341561026f57600080fd5b6102de600480803590602001908201803590602001908080601f0160208091040260200160405190810160405280939291908181526020018383808284378201915050505050509190803573ffffffffffffffffffffffffffffffffffffffff16906020019091905050610e81565b604051808215151515815260200191505060405180910390f35b341561030357600080fd5b61030b611015565b6040518082815260200191505060405180910390f35b341561032c57600080fd5b61033461101b565b604051808260ff1660ff16815260200191505060405180910390f35b341561035b57600080fd5b610387600480803573ffffffffffffffffffffffffffffffffffffffff16906020019091905050611020565b6040518082815260200191505060405180910390f35b34156103a857600080fd5b6103c2600480803560001916906020019091905050611069565b6040518082815260200191505060405180910390f35b34156103e357600080fd5b610433600480803590602001908201803590602001908080601f01602080910402602001604051908101604052809392919081815260200183838082843782019150505050505091905050611081565b604051808273ffffffffffffffffffffffffffffffffffffffff1673ffffffffffffffffffffffffffffffffffffffff16815260200191505060405180910390f35b341561048057600080fd5b61049660048080359060200190919050506110d3565b604051808215151515815260200191505060405180910390f35b34156104bb57600080fd5b6104c3611227565b604051808273ffffffffffffffffffffffffffffffffffffffff1673ffffffffffffffffffffffffffffffffffffffff16815260200191505060405180910390f35b341561051057600080fd5b61052f600480803590602001909190803590602001909190505061124c565b6040518082815260200191505060405180910390f35b341561055057600080fd5b610558611268565b6040518080602001828103825283818151815260200191508051906020019080838360005b8381101561059857808201518184015260208101905061057d565b50505050905090810190601f1680156105c55780820380516001836020036101000a031916815260200191505b509250505060405180910390f35b34156105de57600080fd5b610613600480803573ffffffffffffffffffffffffffffffffffffffff169060200190919080359060200190919050506112a1565b604051808215151515815260200191505060405180910390f35b341561063857600080fd5b610866600480803590602001908201803590602001908080601f0160208091040260200160405190810160405280939291908181526020018383808284378201915050505050509190803590602001908201803590602001908080601f0160208091040260200160405190810160405280939291908181526020018383808284378201915050505050509190803590602001909190803590602001908201803590602001908080601f0160208091040260200160405190810160405280939291908181526020018383808284378201915050505050509190803590602001908201803590602001908080601f0160208091040260200160405190810160405280939291908181526020018383808284378201915050505050509190803590602001908201803590602001908080601f0160208091040260200160405190810160405280939291908181526020018383808284378201915050505050509190803590602001908201803590602001908080601f0160208091040260200160405190810160405280939291908181526020018383808284378201915050505050509190803590602001908201803590602001908080601f0160208091040260200160405190810160405280939291908181526020018383808284378201915050505050509190803590602001908201803590602001908080601f0160208091040260200160405190810160405280939291908181526020018383808284378201915050505050509190505061142a565b6040518082815260200191505060405180910390f35b341561088757600080fd5b6108bc600480803573ffffffffffffffffffffffffffffffffffffffff16906020019091908035906020019091905050611705565b604051808215151515815260200191505060405180910390f35b34156108e157600080fd5b61092c600480803573ffffffffffffffffffffffffffffffffffffffff1690602001909190803573ffffffffffffffffffffffffffffffffffffffff16906020019091905050611851565b6040518082815260200191505060405180910390f35b341561094d57600080fd5b6109bc600480803590602001908201803590602001908080601f0160208091040260200160405190810160405280939291908181526020018383808284378201915050505050509190803573ffffffffffffffffffffffffffffffffffffffff169060200190919050506118d8565b604051808215151515815260200191505060405180910390f35b34156109e157600080fd5b610a006004808035906020019091908035906020019091905050611a68565b6040518082815260200191505060405180910390f35b3415610a2157600080fd5b610a4d600480803573ffffffffffffffffffffffffffffffffffffffff16906020019091905050611a84565b005b3415610a5a57600080fd5b610a62611b5e565b6040518080602001828103825283818151815260200191508051906020019080838360005b83811015610aa2578082015181840152602081019050610a87565b50505050905090810190601f168015610acf5780820380516001836020036101000a031916815260200191505b509250505060405180910390f35b600081600460003373ffffffffffffffffffffffffffffffffffffffff1673ffffffffffffffffffffffffffffffffffffffff16815260200190815260200160002060008573ffffffffffffffffffffffffffffffffffffffff1673ffffffffffffffffffffffffffffffffffffffff168152602001908152602001600020819055508273ffffffffffffffffffffffffffffffffffffffff163373ffffffffffffffffffffffffffffffffffffffff167f8c5be1e5ebec7d5bd14f71427d1e84f3dd0314c0f7b2291e5b200ac8c7c3b925846040518082815260200191505060405180910390a36001905092915050565b6000600254905090565b6000610c24600360008673ffffffffffffffffffffffffffffffffffffffff1673ffffffffffffffffffffffffffffffffffffffff168152602001908152602001600020548361124c565b600360008673ffffffffffffffffffffffffffffffffffffffff1673ffffffffffffffffffffffffffffffffffffffff16815260200190815260200160002081905550610ced600460008673ffffffffffffffffffffffffffffffffffffffff1673ffffffffffffffffffffffffffffffffffffffff16815260200190815260200160002060003373ffffffffffffffffffffffffffffffffffffffff1673ffffffffffffffffffffffffffffffffffffffff168152602001908152602001600020548361124c565b600460008673ffffffffffffffffffffffffffffffffffffffff1673ffffffffffffffffffffffffffffffffffffffff16815260200190815260200160002060003373ffffffffffffffffffffffffffffffffffffffff1673ffffffffffffffffffffffffffffffffffffffff16815260200190815260200160002081905550610db6600360008573ffffffffffffffffffffffffffffffffffffffff1673ffffffffffffffffffffffffffffffffffffffff1681526020019081526020016000205483611a68565b600360008573ffffffffffffffffffffffffffffffffffffffff1673ffffffffffffffffffffffffffffffffffffffff168152602001908152602001600020819055508273ffffffffffffffffffffffffffffffffffffffff168473ffffffffffffffffffffffffffffffffffffffff167fddf252ad1be2c89b69c2b068fc378daa952ba7f163c4a11628f55a4df523b3ef846040518082815260200191505060405180910390a3600190509392505050565b60066020528060005260406000206000915090505481565b6000806000809054906101000a900473ffffffffffffffffffffffffffffffffffffffff1673ffffffffffffffffffffffffffffffffffffffff163373ffffffffffffffffffffffffffffffffffffffff16141515610edf57600080fd5b610ee884611b97565b9050600073ffffffffffffffffffffffffffffffffffffffff168373ffffffffffffffffffffffffffffffffffffffff1614151515610f2657600080fd5b610f2f83611bbb565b1515610f3a57600080fd5b600073ffffffffffffffffffffffffffffffffffffffff1660016000836000191660001916815260200190815260200160002060009054906101000a900473ffffffffffffffffffffffffffffffffffffffff1673ffffffffffffffffffffffffffffffffffffffff16141515610fb057600080fd5b8260016000836000191660001916815260200190815260200160002060006101000a81548173ffffffffffffffffffffffffffffffffffffffff021916908373ffffffffffffffffffffffffffffffffffffffff160217905550600191505092915050565b60025481565b601281565b6000600360008373ffffffffffffffffffffffffffffffffffffffff1673ffffffffffffffffffffffffffffffffffffffff168152602001908152602001600020549050919050565b60076020528060005260406000206000915090505481565b60008061108d83611b97565b905060016000826000191660001916815260200190815260200160002060009054906101000a900473ffffffffffffffffffffffffffffffffffffffff16915050919050565b60008060009054906101000a900473ffffffffffffffffffffffffffffffffffffffff1673ffffffffffffffffffffffffffffffffffffffff163373ffffffffffffffffffffffffffffffffffffffff1614151561113057600080fd5b611179600360003373ffffffffffffffffffffffffffffffffffffffff1673ffffffffffffffffffffffffffffffffffffffff1681526020019081526020016000205483611a68565b600360003373ffffffffffffffffffffffffffffffffffffffff1673ffffffffffffffffffffffffffffffffffffffff168152602001908152602001600020819055503373ffffffffffffffffffffffffffffffffffffffff16600073ffffffffffffffffffffffffffffffffffffffff167fddf252ad1be2c89b69c2b068fc378daa952ba7f163c4a11628f55a4df523b3ef846040518082815260200191505060405180910390a3919050565b6000809054906101000a900473ffffffffffffffffffffffffffffffffffffffff1681565b600082821115151561125d57600080fd5b818303905092915050565b6040805190810160405280600b81526020017f496e6469666920436f696e00000000000000000000000000000000000000000081525081565b60006112ec600360003373ffffffffffffffffffffffffffffffffffffffff1673ffffffffffffffffffffffffffffffffffffffff168152602001908152602001600020548361124c565b600360003373ffffffffffffffffffffffffffffffffffffffff1673ffffffffffffffffffffffffffffffffffffffff16815260200190815260200160002081905550611378600360008573ffffffffffffffffffffffffffffffffffffffff1673ffffffffffffffffffffffffffffffffffffffff1681526020019081526020016000205483611a68565b600360008573ffffffffffffffffffffffffffffffffffffffff1673ffffffffffffffffffffffffffffffffffffffff168152602001908152602001600020819055508273ffffffffffffffffffffffffffffffffffffffff163373ffffffffffffffffffffffffffffffffffffffff167fddf252ad1be2c89b69c2b068fc378daa952ba7f163c4a11628f55a4df523b3ef846040518082815260200191505060405180910390a36001905092915050565b6000806000611437611bc8565b60008060009054906101000a900473ffffffffffffffffffffffffffffffffffffffff1673ffffffffffffffffffffffffffffffffffffffff163373ffffffffffffffffffffffffffffffffffffffff1614151561149457600080fd5b61149d8e611b97565b93506114a889611b97565b9250600060066000866000191660001916815260200190815260200160002054111515156114d557600080fd5b6000600760008560001916600019168152602001908152602001600020541115151561150057600080fd5b610140604051908101604052808f81526020018e81526020018d81526020018c81526020018b81526020018a81526020018981526020018881526020018781526020014267ffffffffffffffff1681525091506001600580548060010182816115699190611c56565b91600052602060002090600a02016000859091909150600082015181600001908051906020019061159b929190611c88565b5060208201518160010190805190602001906115b8929190611c88565b506040820151816002015560608201518160030190805190602001906115df929190611c88565b5060808201518160040190805190602001906115fc929190611c88565b5060a0820151816005019080519060200190611619929190611c88565b5060c0820151816006019080519060200190611636929190611c88565b5060e0820151816007019080519060200190611653929190611c88565b50610100820151816008019080519060200190611671929190611c88565b506101208201518160090160006101000a81548167ffffffffffffffff021916908367ffffffffffffffff1602179055505050039050806006600086600019166000191681526020019081526020016000208190555080600760008560001916600019168152602001908152602001600020819055506116f08c6110d3565b50809450505050509998505050505050505050565b60008060009054906101000a900473ffffffffffffffffffffffffffffffffffffffff1673ffffffffffffffffffffffffffffffffffffffff163373ffffffffffffffffffffffffffffffffffffffff1614151561176257600080fd5b8273ffffffffffffffffffffffffffffffffffffffff1663a9059cbb6000809054906101000a900473ffffffffffffffffffffffffffffffffffffffff16846000604051602001526040518363ffffffff167c0100000000000000000000000000000000000000000000000000000000028152600401808373ffffffffffffffffffffffffffffffffffffffff1673ffffffffffffffffffffffffffffffffffffffff16815260200182815260200192505050602060405180830381600087803b151561182e57600080fd5b6102c65a03f1151561183f57600080fd5b50505060405180519050905092915050565b6000600460008473ffffffffffffffffffffffffffffffffffffffff1673ffffffffffffffffffffffffffffffffffffffff16815260200190815260200160002060008373ffffffffffffffffffffffffffffffffffffffff1673ffffffffffffffffffffffffffffffffffffffff16815260200190815260200160002054905092915050565b6000806000809054906101000a900473ffffffffffffffffffffffffffffffffffffffff1673ffffffffffffffffffffffffffffffffffffffff163373ffffffffffffffffffffffffffffffffffffffff1614151561193657600080fd5b61193f84611b97565b9050600073ffffffffffffffffffffffffffffffffffffffff168373ffffffffffffffffffffffffffffffffffffffff161415151561197d57600080fd5b61198683611bbb565b151561199157600080fd5b8273ffffffffffffffffffffffffffffffffffffffff1660016000836000191660001916815260200190815260200160002060009054906101000a900473ffffffffffffffffffffffffffffffffffffffff1673ffffffffffffffffffffffffffffffffffffffff1614151515611a0757600080fd5b8260016000836000191660001916815260200190815260200160002060006101000a81548173ffffffffffffffffffffffffffffffffffffffff021916908373ffffffffffffffffffffffffffffffffffffffff1602179055505092915050565b60008183019050828110151515611a7e57600080fd5b92915050565b6000809054906101000a900473ffffffffffffffffffffffffffffffffffffffff1673ffffffffffffffffffffffffffffffffffffffff163373ffffffffffffffffffffffffffffffffffffffff16141515611adf57600080fd5b600073ffffffffffffffffffffffffffffffffffffffff168173ffffffffffffffffffffffffffffffffffffffff1614151515611b1b57600080fd5b806000806101000a81548173ffffffffffffffffffffffffffffffffffffffff021916908373ffffffffffffffffffffffffffffffffffffffff16021790555050565b6040805190810160405280600681526020017f494e44494649000000000000000000000000000000000000000000000000000081525081565b60008082511415611bae5760006001029050611bb6565b602082015190505b919050565b600080823b119050919050565b61014060405190810160405280611bdd611d08565b8152602001611bea611d08565b815260200160008152602001611bfe611d08565b8152602001611c0b611d08565b8152602001611c18611d08565b8152602001611c25611d08565b8152602001611c32611d08565b8152602001611c3f611d08565b8152602001600067ffffffffffffffff1681525090565b815481835581811511611c8357600a0281600a028360005260206000209182019101611c829190611d1c565b5b505050565b828054600181600116156101000203166002900490600052602060002090601f016020900481019282601f10611cc957805160ff1916838001178555611cf7565b82800160010185558215611cf7579182015b82811115611cf6578251825591602001919060010190611cdb565b5b509050611d049190611dde565b5090565b602060405190810160405280600081525090565b611ddb91905b80821115611dd75760008082016000611d3b9190611e03565b600182016000611d4b9190611e03565b6002820160009055600382016000611d639190611e03565b600482016000611d739190611e03565b600582016000611d839190611e03565b600682016000611d939190611e03565b600782016000611da39190611e03565b600882016000611db39190611e03565b6009820160006101000a81549067ffffffffffffffff021916905550600a01611d22565b5090565b90565b611e0091905b80821115611dfc576000816000905550600101611de4565b5090565b90565b50805460018160011615610100020316600290046000825580601f10611e295750611e48565b601f016020900490600052602060002090810190611e479190611dde565b5b505600a165627a7a72305820527ac82f4ce15fa3ce68bd452937f1abee5802caf296a88698e7334511d0941b0029",
  "source": "pragma solidity ^0.4.18;\n\n\nimport \"./IndifiCoin.sol\";\n\n\ncontract IncomingTransaction is IndifiCoin {\n\n    struct Transaction {\n        string transaction_id;\n        string recipient_account_number;\n        uint256 amount;\n        string remitter_name;\n        string remitter_account;\n        string transaction_reference_number;\n        string virtual_account_number;\n        string mode;\n        string transaction_date;\n        uint64 timestamp;\n    }\n\n    Transaction[] internal transactions;\n\n    mapping(bytes32 => uint256) public TransactionIDToIndex;\n\n    mapping(bytes32 => uint256) public TransactionReferenceNumberToIndex;\n\n    function IncomingTransaction() public {\n        owner = msg.sender;\n    }\n\n    function newIncomingTransaction(\n        string transaction_id,\n        string recipient_account_number,\n        uint256 amount,\n        string remitter_name,\n        string remitter_account,\n        string transaction_reference_number,\n        string virtual_account_number,\n        string mode,\n        string transaction_date\n    ) public onlyOwner returns (uint256) {\n        bytes32 transaction_id_bytes = _stringToBytes32(transaction_id);\n        bytes32 transaction_reference_number_bytes = _stringToBytes32(transaction_reference_number);\n\n        require(TransactionIDToIndex[transaction_id_bytes] <= 0);\n        require(TransactionReferenceNumberToIndex[transaction_reference_number_bytes] <= 0);\n\n        Transaction memory txn = Transaction({\n            transaction_id : transaction_id,\n            recipient_account_number : recipient_account_number,\n            amount : amount,\n            remitter_name : remitter_name,\n            remitter_account : remitter_account,\n            transaction_reference_number : transaction_reference_number,\n            virtual_account_number : virtual_account_number,\n            mode : mode,\n            transaction_date : transaction_date,\n            timestamp : uint64(now)\n            });\n\n        uint256 txnId = transactions.push(txn) - 1;\n\n        TransactionIDToIndex[transaction_id_bytes] = txnId;\n        TransactionReferenceNumberToIndex[transaction_reference_number_bytes] = txnId;\n\n        // generate amount equivalent to sent amount in borrowers account\n        createTokens(amount);\n\n        return txnId;\n    }\n}",
  "sourcePath": "/Users/aditya/Documents/indifi/blockchain/escrow-ethereum/contracts/IncomingTransaction.sol",
  "compiler": {
    "name": "solc",
    "version": "0.4.18+commit.9cf6e910.Emscripten.clang"
  },
  "schemaVersion": "1.0.1",
  "updatedAt": "2018-03-12T10:30:24.748Z"
}