{
  "contractName": "SplitContract",
  "abi": [
    {
      "constant": true,
      "inputs": [
        {
          "name": "amount",
          "type": "uint256"
        },
        {
          "name": "params",
          "type": "uint256[]"
        }
      ],
      "name": "split",
      "outputs": [
        {
          "name": "",
          "type": "int256"
        }
      ],
      "payable": false,
      "stateMutability": "pure",
      "type": "function"
    },
    {
      "constant": true,
      "inputs": [
        {
          "name": "amount",
          "type": "uint256"
        },
        {
          "name": "fixAmount",
          "type": "uint256"
        }
      ],
      "name": "fixSplit",
      "outputs": [
        {
          "name": "",
          "type": "uint256"
        }
      ],
      "payable": false,
      "stateMutability": "pure",
      "type": "function"
    },
    {
      "constant": true,
      "inputs": [
        {
          "name": "amount",
          "type": "uint256"
        },
        {
          "name": "percentage",
          "type": "uint256"
        }
      ],
      "name": "fixPercentageSplit",
      "outputs": [
        {
          "name": "",
          "type": "uint256"
        }
      ],
      "payable": false,
      "stateMutability": "pure",
      "type": "function"
    }
  ],
  "bytecode": "0x6060604052341561000f57600080fd5b6102758061001e6000396000f300606060405260043610610057576000357c0100000000000000000000000000000000000000000000000000000000900463ffffffff16806369c672471461005c5780638a78b382146100d3578063edd1f82b14610113575b600080fd5b341561006757600080fd5b6100bd600480803590602001909190803590602001908201803590602001908080602002602001604051908101604052809392919081815260200183836020028082843782019150505050505091905050610153565b6040518082815260200191505060405180910390f35b34156100de57600080fd5b6100fd6004808035906020019091908035906020019091905050610213565b6040518082815260200191505060405180910390f35b341561011e57600080fd5b61013d6004808035906020019091908035906020019091905050610230565b6040518082815260200191505060405180910390f35b6000600182600081518110151561016657fe5b90602001906020020151141561019f576101988383600181518110151561018957fe5b90602001906020020151610213565b905061020d565b60028260008151811015156101b057fe5b9060200190602002015114156101e9576101e2838360018151811015156101d357fe5b90602001906020020151610230565b905061020d565b7fffffffffffffffffffffffffffffffffffffffffffffffffffffffffffffffff90505b92915050565b600081831015156102265781905061022a565b8290505b92915050565b6000606482840281151561024057fe5b049050929150505600a165627a7a72305820f24ce9c4802bf14364495086fb08693c77b732bb4f6e9a5d3b3fa6035bf592be0029",
  "source": "pragma solidity ^0.4.18;\n\n\ncontract SplitContract {\n    \n    function fixSplit(uint256 amount, uint256 fixAmount) public pure returns (uint256) {\n        if (amount >= fixAmount) {\n            return fixAmount;\n        } else {\n            return amount;\n        }\n        \n        return 0;    \n    }\n    \n    function fixPercentageSplit(uint256 amount, uint256 percentage) public pure returns (uint256) {\n        return (amount * percentage) / 100;\n    }\n    \n    function split(uint256 amount, uint256[] params) public pure returns (int256) {\n        if (params[0] == 1) {\n            return int(fixSplit(amount, params[1]));\n        } else if (params[0] == 2) {\n            return int(fixPercentageSplit(amount, params[1]));\n        } else {\n            return -1;   \n        }\n    }\n}",
  "sourcePath": "/Users/Sahil/Documents/projects/blockchain/escrow-ethereum/contracts/SplitContract.sol",
  "compiler": {
    "name": "solc",
    "version": "0.4.18+commit.9cf6e910.Emscripten.clang"
  },
  "schemaVersion": "1.0.1",
  "updatedAt": "2018-03-20T19:56:07.042Z"
}