{
  "contractName": "VirtualAccountSplitPolicy",
  "abi": [
    {
      "constant": false,
      "inputs": [
        {
          "name": "virtual_account_number",
          "type": "string"
        },
        {
          "name": "split_contract_address",
          "type": "address"
        }
      ],
      "name": "addNewSplitPolicy",
      "outputs": [
        {
          "name": "",
          "type": "bool"
        }
      ],
      "payable": false,
      "stateMutability": "nonpayable",
      "type": "function"
    },
    {
      "constant": true,
      "inputs": [
        {
          "name": "virtual_account_number",
          "type": "string"
        }
      ],
      "name": "getSplitPolicyAddress",
      "outputs": [
        {
          "name": "",
          "type": "address"
        }
      ],
      "payable": false,
      "stateMutability": "view",
      "type": "function"
    },
    {
      "constant": true,
      "inputs": [],
      "name": "owner",
      "outputs": [
        {
          "name": "",
          "type": "address"
        }
      ],
      "payable": false,
      "stateMutability": "view",
      "type": "function"
    },
    {
      "constant": true,
      "inputs": [
        {
          "name": "a",
          "type": "uint256"
        },
        {
          "name": "b",
          "type": "uint256"
        }
      ],
      "name": "safeSub",
      "outputs": [
        {
          "name": "c",
          "type": "uint256"
        }
      ],
      "payable": false,
      "stateMutability": "pure",
      "type": "function"
    },
    {
      "constant": true,
      "inputs": [
        {
          "name": "a",
          "type": "uint256"
        },
        {
          "name": "b",
          "type": "uint256"
        }
      ],
      "name": "safeDiv",
      "outputs": [
        {
          "name": "c",
          "type": "uint256"
        }
      ],
      "payable": false,
      "stateMutability": "pure",
      "type": "function"
    },
    {
      "constant": true,
      "inputs": [
        {
          "name": "a",
          "type": "uint256"
        },
        {
          "name": "b",
          "type": "uint256"
        }
      ],
      "name": "safeMul",
      "outputs": [
        {
          "name": "c",
          "type": "uint256"
        }
      ],
      "payable": false,
      "stateMutability": "pure",
      "type": "function"
    },
    {
      "constant": false,
      "inputs": [
        {
          "name": "virtual_account_number",
          "type": "string"
        },
        {
          "name": "split_contract_address",
          "type": "address"
        }
      ],
      "name": "updateSplitPolicy",
      "outputs": [
        {
          "name": "",
          "type": "bool"
        }
      ],
      "payable": false,
      "stateMutability": "nonpayable",
      "type": "function"
    },
    {
      "constant": true,
      "inputs": [
        {
          "name": "a",
          "type": "uint256"
        },
        {
          "name": "b",
          "type": "uint256"
        }
      ],
      "name": "safeAdd",
      "outputs": [
        {
          "name": "c",
          "type": "uint256"
        }
      ],
      "payable": false,
      "stateMutability": "pure",
      "type": "function"
    }
  ],
  "bytecode": "0x6060604052336000806101000a81548173ffffffffffffffffffffffffffffffffffffffff021916908373ffffffffffffffffffffffffffffffffffffffff160217905550610832806100536000396000f30060606040526004361061008e576000357c0100000000000000000000000000000000000000000000000000000000900463ffffffff16806330ceb3bd14610093578063784ce934146101275780638da5cb5b146101c4578063a293d1e814610219578063b5931f7c14610259578063d05c78da14610299578063e0e18ae0146102d9578063e6cb90131461036d575b600080fd5b341561009e57600080fd5b61010d600480803590602001908201803590602001908080601f0160208091040260200160405190810160405280939291908181526020018383808284378201915050505050509190803573ffffffffffffffffffffffffffffffffffffffff169060200190919050506103ad565b604051808215151515815260200191505060405180910390f35b341561013257600080fd5b610182600480803590602001908201803590602001908080601f01602080910402602001604051908101604052809392919081815260200183838082843782019150505050505091905050610541565b604051808273ffffffffffffffffffffffffffffffffffffffff1673ffffffffffffffffffffffffffffffffffffffff16815260200191505060405180910390f35b34156101cf57600080fd5b6101d7610593565b604051808273ffffffffffffffffffffffffffffffffffffffff1673ffffffffffffffffffffffffffffffffffffffff16815260200191505060405180910390f35b341561022457600080fd5b61024360048080359060200190919080359060200190919050506105b8565b6040518082815260200191505060405180910390f35b341561026457600080fd5b61028360048080359060200190919080359060200190919050506105d4565b6040518082815260200191505060405180910390f35b34156102a457600080fd5b6102c360048080359060200190919080359060200190919050506105f8565b6040518082815260200191505060405180910390f35b34156102e457600080fd5b610353600480803590602001908201803590602001908080601f0160208091040260200160405190810160405280939291908181526020018383808284378201915050505050509190803573ffffffffffffffffffffffffffffffffffffffff16906020019091905050610629565b604051808215151515815260200191505060405180910390f35b341561037857600080fd5b61039760048080359060200190919080359060200190919050506107b9565b6040518082815260200191505060405180910390f35b6000806000809054906101000a900473ffffffffffffffffffffffffffffffffffffffff1673ffffffffffffffffffffffffffffffffffffffff163373ffffffffffffffffffffffffffffffffffffffff1614151561040b57600080fd5b610414846107d5565b9050600073ffffffffffffffffffffffffffffffffffffffff168373ffffffffffffffffffffffffffffffffffffffff161415151561045257600080fd5b61045b836107f9565b151561046657600080fd5b600073ffffffffffffffffffffffffffffffffffffffff1660016000836000191660001916815260200190815260200160002060009054906101000a900473ffffffffffffffffffffffffffffffffffffffff1673ffffffffffffffffffffffffffffffffffffffff161415156104dc57600080fd5b8260016000836000191660001916815260200190815260200160002060006101000a81548173ffffffffffffffffffffffffffffffffffffffff021916908373ffffffffffffffffffffffffffffffffffffffff160217905550600191505092915050565b60008061054d836107d5565b905060016000826000191660001916815260200190815260200160002060009054906101000a900473ffffffffffffffffffffffffffffffffffffffff16915050919050565b6000809054906101000a900473ffffffffffffffffffffffffffffffffffffffff1681565b60008282111515156105c957600080fd5b818303905092915050565b600080821115156105e457600080fd5b81838115156105ef57fe5b04905092915050565b600081830290506000831480610618575081838281151561061557fe5b04145b151561062357600080fd5b92915050565b6000806000809054906101000a900473ffffffffffffffffffffffffffffffffffffffff1673ffffffffffffffffffffffffffffffffffffffff163373ffffffffffffffffffffffffffffffffffffffff1614151561068757600080fd5b610690846107d5565b9050600073ffffffffffffffffffffffffffffffffffffffff168373ffffffffffffffffffffffffffffffffffffffff16141515156106ce57600080fd5b6106d7836107f9565b15156106e257600080fd5b8273ffffffffffffffffffffffffffffffffffffffff1660016000836000191660001916815260200190815260200160002060009054906101000a900473ffffffffffffffffffffffffffffffffffffffff1673ffffffffffffffffffffffffffffffffffffffff161415151561075857600080fd5b8260016000836000191660001916815260200190815260200160002060006101000a81548173ffffffffffffffffffffffffffffffffffffffff021916908373ffffffffffffffffffffffffffffffffffffffff1602179055505092915050565b600081830190508281101515156107cf57600080fd5b92915050565b600080825114156107ec57600060010290506107f4565b602082015190505b919050565b600080823b1190509190505600a165627a7a7230582080671b7d91e8dc7f8229ddbcb8047fa9749b6e94269d8d32075d75245e61cca50029",
  "source": "pragma solidity ^0.4.18;\n\nimport \"./AccessControl.sol\";\n\ncontract VirtualAccountSplitPolicy is AccessControl {\n\n    mapping(bytes32 => address) VirtualAccountSplitPolicyContractMapping;\n\n    function addNewSplitPolicy(string virtual_account_number, address split_contract_address) public onlyOwner returns (bool) {\n        // check that no address has been set previously\n\n        bytes32 virtual_account_number_bytes = _stringToBytes32(virtual_account_number);\n\n        require(split_contract_address != address(0));\n        require(isContract(split_contract_address));\n\n        require(VirtualAccountSplitPolicyContractMapping[virtual_account_number_bytes] == address(0));\n\n        VirtualAccountSplitPolicyContractMapping[virtual_account_number_bytes] = split_contract_address;\n\n        return true;\n    }\n\n    function updateSplitPolicy(string virtual_account_number, address split_contract_address) public onlyOwner returns (bool) {\n        bytes32 virtual_account_number_bytes = _stringToBytes32(virtual_account_number);\n\n        require(split_contract_address != address(0));\n        require(isContract(split_contract_address));\n        require(VirtualAccountSplitPolicyContractMapping[virtual_account_number_bytes] != split_contract_address);\n\n        VirtualAccountSplitPolicyContractMapping[virtual_account_number_bytes] = split_contract_address;\n    }\n\n    function getSplitPolicyAddress(string virtual_account_number) public view returns (address) {\n        bytes32 virtual_account_number_bytes = _stringToBytes32(virtual_account_number);\n        return VirtualAccountSplitPolicyContractMapping[virtual_account_number_bytes];\n    }\n}",
  "sourcePath": "/Users/aditya/Documents/indifi/blockchain/escrow-ethereum/contracts/VirtualAccountSplitPolicy.sol",
  "compiler": {
    "name": "solc",
    "version": "0.4.18+commit.9cf6e910.Emscripten.clang"
  },
  "schemaVersion": "1.0.1",
  "updatedAt": "2018-03-12T06:51:11.761Z"
}