{
  "contractName": "VirtualAccounts",
  "abi": [
    {
      "constant": true,
      "inputs": [
        {
          "name": "",
          "type": "uint256"
        }
      ],
      "name": "virtualAccounts",
      "outputs": [
        {
          "name": "virtualAccountNumber",
          "type": "bytes32"
        },
        {
          "name": "borrowerAddress",
          "type": "address"
        },
        {
          "name": "lenderAddress",
          "type": "address"
        },
        {
          "name": "bankAccountNumber",
          "type": "bytes32"
        },
        {
          "name": "ifscCode",
          "type": "bytes32"
        }
      ],
      "payable": false,
      "stateMutability": "view",
      "type": "function"
    },
    {
      "constant": true,
      "inputs": [
        {
          "name": "",
          "type": "bytes32"
        }
      ],
      "name": "virtualAccountsToIndex",
      "outputs": [
        {
          "name": "",
          "type": "uint32"
        }
      ],
      "payable": false,
      "stateMutability": "view",
      "type": "function"
    },
    {
      "constant": true,
      "inputs": [],
      "name": "owner",
      "outputs": [
        {
          "name": "",
          "type": "address"
        }
      ],
      "payable": false,
      "stateMutability": "view",
      "type": "function"
    },
    {
      "constant": false,
      "inputs": [
        {
          "name": "_virtualAccountNumber",
          "type": "string"
        },
        {
          "name": "_policyDetails",
          "type": "uint256[]"
        },
        {
          "name": "_borrower",
          "type": "address"
        },
        {
          "name": "_lender",
          "type": "address"
        },
        {
          "name": "_bankAccountNumber",
          "type": "string"
        },
        {
          "name": "_ifscCode",
          "type": "string"
        }
      ],
      "name": "updateVirtualAccountConfiguration",
      "outputs": [
        {
          "name": "",
          "type": "uint32"
        }
      ],
      "payable": false,
      "stateMutability": "nonpayable",
      "type": "function"
    },
    {
      "constant": true,
      "inputs": [
        {
          "name": "x",
          "type": "bytes32"
        }
      ],
      "name": "_bytes32ToString",
      "outputs": [
        {
          "name": "",
          "type": "string"
        }
      ],
      "payable": false,
      "stateMutability": "pure",
      "type": "function"
    },
    {
      "constant": true,
      "inputs": [
        {
          "name": "s",
          "type": "string"
        }
      ],
      "name": "_stringToBytes32",
      "outputs": [
        {
          "name": "result",
          "type": "bytes32"
        }
      ],
      "payable": false,
      "stateMutability": "pure",
      "type": "function"
    },
    {
      "constant": true,
      "inputs": [],
      "name": "getTotalVirtualAccounts",
      "outputs": [
        {
          "name": "",
          "type": "uint256"
        }
      ],
      "payable": false,
      "stateMutability": "view",
      "type": "function"
    },
    {
      "constant": false,
      "inputs": [
        {
          "name": "_newOwner",
          "type": "address"
        }
      ],
      "name": "transferOwnership",
      "outputs": [],
      "payable": false,
      "stateMutability": "nonpayable",
      "type": "function"
    },
    {
      "constant": true,
      "inputs": [
        {
          "name": "id",
          "type": "uint32"
        }
      ],
      "name": "getVirtualAccount",
      "outputs": [
        {
          "name": "virtualAccountNumber",
          "type": "string"
        },
        {
          "name": "borrowerAddress",
          "type": "address"
        },
        {
          "name": "lenderAddress",
          "type": "address"
        },
        {
          "name": "policyDetails",
          "type": "uint256[]"
        },
        {
          "name": "bankAccountNumber",
          "type": "string"
        },
        {
          "name": "ifscCode",
          "type": "string"
        }
      ],
      "payable": false,
      "stateMutability": "view",
      "type": "function"
    },
    {
      "anonymous": false,
      "inputs": [
        {
          "indexed": true,
          "name": "_from",
          "type": "address"
        },
        {
          "indexed": true,
          "name": "_to",
          "type": "address"
        }
      ],
      "name": "OwnershipTransferred",
      "type": "event"
    }
  ],
  "bytecode": "0x6060604052336000806101000a81548173ffffffffffffffffffffffffffffffffffffffff021916908373ffffffffffffffffffffffffffffffffffffffff160217905550611152806100536000396000f300606060405260043610610099576000357c0100000000000000000000000000000000000000000000000000000000900463ffffffff1680635aa828641461009e57806377d60bcb146101615780638da5cb5b146101a857806394816511146101fd578063ad966a031461037e578063bf6a8f9c1461041e578063e7a30f9714610497578063f2fde38b146104c0578063f422c1cd146104f9575b600080fd5b34156100a957600080fd5b6100bf6004808035906020019091905050610721565b6040518086600019166000191681526020018573ffffffffffffffffffffffffffffffffffffffff1673ffffffffffffffffffffffffffffffffffffffff1681526020018473ffffffffffffffffffffffffffffffffffffffff1673ffffffffffffffffffffffffffffffffffffffff168152602001836000191660001916815260200182600019166000191681526020019550505050505060405180910390f35b341561016c57600080fd5b6101866004808035600019169060200190919050506107a6565b604051808263ffffffff1663ffffffff16815260200191505060405180910390f35b34156101b357600080fd5b6101bb6107c9565b604051808273ffffffffffffffffffffffffffffffffffffffff1673ffffffffffffffffffffffffffffffffffffffff16815260200191505060405180910390f35b341561020857600080fd5b61035c600480803590602001908201803590602001908080601f016020809104026020016040519081016040528093929190818152602001838380828437820191505050505050919080359060200190820180359060200190808060200260200160405190810160405280939291908181526020018383602002808284378201915050505050509190803573ffffffffffffffffffffffffffffffffffffffff1690602001909190803573ffffffffffffffffffffffffffffffffffffffff1690602001909190803590602001908201803590602001908080601f0160208091040260200160405190810160405280939291908181526020018383808284378201915050505050509190803590602001908201803590602001908080601f016020809104026020016040519081016040528093929190818152602001838380828437820191505050505050919050506107ee565b604051808263ffffffff1663ffffffff16815260200191505060405180910390f35b341561038957600080fd5b6103a3600480803560001916906020019091905050610a2e565b6040518080602001828103825283818151815260200191508051906020019080838360005b838110156103e35780820151818401526020810190506103c8565b50505050905090810190601f1680156104105780820380516001836020036101000a031916815260200191505b509250505060405180910390f35b341561042957600080fd5b610479600480803590602001908201803590602001908080601f01602080910402602001604051908101604052809392919081815260200183838082843782019150505050505091905050610c1b565b60405180826000191660001916815260200191505060405180910390f35b34156104a257600080fd5b6104aa610c3f565b6040518082815260200191505060405180910390f35b34156104cb57600080fd5b6104f7600480803573ffffffffffffffffffffffffffffffffffffffff16906020019091905050610c4e565b005b341561050457600080fd5b610520600480803563ffffffff16906020019091905050610d28565b60405180806020018773ffffffffffffffffffffffffffffffffffffffff1673ffffffffffffffffffffffffffffffffffffffff1681526020018673ffffffffffffffffffffffffffffffffffffffff1673ffffffffffffffffffffffffffffffffffffffff16815260200180602001806020018060200185810385528b818151815260200191508051906020019080838360005b838110156105d05780820151818401526020810190506105b5565b50505050905090810190601f1680156105fd5780820380516001836020036101000a031916815260200191505b50858103845288818151815260200191508051906020019060200280838360005b8381101561063957808201518184015260208101905061061e565b50505050905001858103835287818151815260200191508051906020019080838360005b8381101561067857808201518184015260208101905061065d565b50505050905090810190601f1680156106a55780820380516001836020036101000a031916815260200191505b50858103825286818151815260200191508051906020019080838360005b838110156106de5780820151818401526020810190506106c3565b50505050905090810190601f16801561070b5780820380516001836020036101000a031916815260200191505b509a505050505050505050505060405180910390f35b60018181548110151561073057fe5b90600052602060002090600602016000915090508060000154908060010160009054906101000a900473ffffffffffffffffffffffffffffffffffffffff16908060020160009054906101000a900473ffffffffffffffffffffffffffffffffffffffff16908060040154908060050154905085565b60026020528060005260406000206000915054906101000a900463ffffffff1681565b6000809054906101000a900473ffffffffffffffffffffffffffffffffffffffff1681565b6000806107f9610f0a565b60008060009054906101000a900473ffffffffffffffffffffffffffffffffffffffff1673ffffffffffffffffffffffffffffffffffffffff163373ffffffffffffffffffffffffffffffffffffffff1614151561085657600080fd5b61085f8a610c1b565b925060c060405190810160405280846000191681526020018973ffffffffffffffffffffffffffffffffffffffff1681526020018873ffffffffffffffffffffffffffffffffffffffff1681526020018a81526020016108be88610c1b565b6000191681526020016108d087610c1b565b60001916815250915060018080548060010182816108ee9190610f7c565b916000526020600020906006020160008590919091506000820151816000019060001916905560208201518160010160006101000a81548173ffffffffffffffffffffffffffffffffffffffff021916908373ffffffffffffffffffffffffffffffffffffffff16021790555060408201518160020160006101000a81548173ffffffffffffffffffffffffffffffffffffffff021916908373ffffffffffffffffffffffffffffffffffffffff16021790555060608201518160030190805190602001906109be929190610fae565b506080820151816004019060001916905560a0820151816005019060001916905550500390508060026000856000191660001916815260200190815260200160002060006101000a81548163ffffffff021916908363ffffffff1602179055508093505050509695505050505050565b610a36610ffb565b610a3e61100f565b6000806000610a4b61100f565b6020604051805910610a5a5750595b9080825280601f01601f1916602001820160405250945060009350600092505b6020831015610b38578260080260020a876001900402600102915060007f010000000000000000000000000000000000000000000000000000000000000002827effffffffffffffffffffffffffffffffffffffffffffffffffffffffffffff1916141515610b2b57818585815181101515610af257fe5b9060200101907effffffffffffffffffffffffffffffffffffffffffffffffffffffffffffff1916908160001a90535083806001019450505b8280600101935050610a7a565b83604051805910610b465750595b9080825280601f01601f19166020018201604052509050600092505b83831015610c0e578483815181101515610b7857fe5b9060200101517f010000000000000000000000000000000000000000000000000000000000000090047f0100000000000000000000000000000000000000000000000000000000000000028184815181101515610bd157fe5b9060200101907effffffffffffffffffffffffffffffffffffffffffffffffffffffffffffff1916908160001a9053508280600101935050610b62565b8095505050505050919050565b60008082511415610c325760006001029050610c3a565b602082015190505b919050565b60006001808054905003905090565b6000809054906101000a900473ffffffffffffffffffffffffffffffffffffffff1673ffffffffffffffffffffffffffffffffffffffff163373ffffffffffffffffffffffffffffffffffffffff16141515610ca957600080fd5b600073ffffffffffffffffffffffffffffffffffffffff168173ffffffffffffffffffffffffffffffffffffffff1614151515610ce557600080fd5b806000806101000a81548173ffffffffffffffffffffffffffffffffffffffff021916908373ffffffffffffffffffffffffffffffffffffffff16021790555050565b610d30610ffb565b600080610d3b611023565b610d43610ffb565b610d4b610ffb565b610d53610f0a565b60018863ffffffff16815481101515610d6857fe5b906000526020600020906006020160c060405190810160405290816000820154600019166000191681526020016001820160009054906101000a900473ffffffffffffffffffffffffffffffffffffffff1673ffffffffffffffffffffffffffffffffffffffff1673ffffffffffffffffffffffffffffffffffffffff1681526020016002820160009054906101000a900473ffffffffffffffffffffffffffffffffffffffff1673ffffffffffffffffffffffffffffffffffffffff1673ffffffffffffffffffffffffffffffffffffffff16815260200160038201805480602002602001604051908101604052809291908181526020018280548015610e8f57602002820191906000526020600020905b815481526020019060010190808311610e7b575b5050505050815260200160048201546000191660001916815260200160058201546000191660001916815250509050610ecb8160000151610a2e565b9650806020015195508060400151945080606001519350610eef8160800151610a2e565b9250610efe8160a00151610a2e565b91505091939550919395565b60c06040519081016040528060008019168152602001600073ffffffffffffffffffffffffffffffffffffffff168152602001600073ffffffffffffffffffffffffffffffffffffffff168152602001610f62611037565b815260200160008019168152602001600080191681525090565b815481835581811511610fa957600602816006028360005260206000209182019101610fa8919061104b565b5b505050565b828054828255906000526020600020908101928215610fea579160200282015b82811115610fe9578251825591602001919060010190610fce565b5b509050610ff791906110e0565b5090565b602060405190810160405280600081525090565b602060405190810160405280600081525090565b602060405190810160405280600081525090565b602060405190810160405280600081525090565b6110dd91905b808211156110d9576000808201600090556001820160006101000a81549073ffffffffffffffffffffffffffffffffffffffff02191690556002820160006101000a81549073ffffffffffffffffffffffffffffffffffffffff02191690556003820160006110c09190611105565b6004820160009055600582016000905550600601611051565b5090565b90565b61110291905b808211156110fe5760008160009055506001016110e6565b5090565b90565b508054600082559060005260206000209081019061112391906110e0565b505600a165627a7a7230582000253d9102732f38133fa11923380bdb271c9487259279787d6f759b9eb967b80029",
  "source": "pragma solidity ^0.4.18;\n\nimport \"./AccessControl.sol\";\n\n\ncontract VirtualAccounts is AccessControl {\n\n\n    struct VirtualAccount {\n        bytes32 virtualAccountNumber;\n        address borrowerAddress;\n        address lenderAddress;\n        uint[] policyDetails;\n        bytes32 bankAccountNumber;\n        bytes32 ifscCode;\n    }\n\n    // -------------------------------------------------------------------------\n    // To keep track of all virtual accounts created\n    // -------------------------------------------------------------------------\n    VirtualAccount[] public virtualAccounts;\n\n    // -------------------------------------------------------------------------\n    // To keep the position of any virtual account in the virtualaccounts array\n    // key: bytes32 - bytes32 representation of the virtual account\n    // value: uint32 - index of the VirtualAccount struct in virtualaccounts array\n    // -------------------------------------------------------------------------\n    mapping(bytes32 => uint32) public virtualAccountsToIndex;\n\n    function updateVirtualAccountConfiguration(\n        string _virtualAccountNumber,\n        uint256[] _policyDetails,\n        address _borrower,\n        address _lender,\n        string _bankAccountNumber,\n        string _ifscCode\n    ) public onlyOwner returns (uint32) {\n        bytes32 virtualAccountNumberBytes = _stringToBytes32(_virtualAccountNumber);\n        VirtualAccount memory va = VirtualAccount({\n            virtualAccountNumber: virtualAccountNumberBytes,\n            borrowerAddress: _borrower,\n            lenderAddress: _lender,\n            policyDetails: _policyDetails,\n            bankAccountNumber: _stringToBytes32(_bankAccountNumber),\n            ifscCode: _stringToBytes32(_ifscCode)\n            });\n        uint32 index = uint32(virtualAccounts.push(va) - 1);\n        virtualAccountsToIndex[virtualAccountNumberBytes] = index;\n        return index;\n    }\n\n    function getTotalVirtualAccounts() public view returns (uint) {\n        return virtualAccounts.length - 1;\n    }\n\n    function getVirtualAccount(uint32 id) public view returns(\n        string virtualAccountNumber,\n        address borrowerAddress,\n        address lenderAddress,\n        uint[] policyDetails,\n        string bankAccountNumber,\n        string ifscCode\n    ) {\n        VirtualAccount memory va = virtualAccounts[id];\n        virtualAccountNumber = _bytes32ToString(va.virtualAccountNumber);\n        borrowerAddress = va.borrowerAddress;\n        lenderAddress = va.lenderAddress;\n        policyDetails = va.policyDetails;\n        bankAccountNumber = _bytes32ToString(va.bankAccountNumber);\n        ifscCode = _bytes32ToString(va.ifscCode);\n    }\n}\n",
  "sourcePath": "/Users/aditya/Documents/indifi/blockchain/escrow-ethereum/contracts/VirtualAccounts.sol",
  "compiler": {
    "name": "solc",
    "version": "0.4.18+commit.9cf6e910.Emscripten.clang"
  },
  "schemaVersion": "1.0.1",
  "updatedAt": "2018-03-27T06:22:05.022Z"
}