{
  "contractName": "VirtualAccountSplitPolicy",
  "abi": [
    {
      "constant": false,
      "inputs": [
        {
          "name": "virtual_account_number",
          "type": "string"
        },
        {
          "name": "split_contract_address",
          "type": "address"
        }
      ],
      "name": "addNewSplitPolicy",
      "outputs": [
        {
          "name": "",
          "type": "bool"
        }
      ],
      "payable": false,
      "stateMutability": "nonpayable",
      "type": "function"
    },
    {
      "constant": true,
      "inputs": [
        {
          "name": "virtual_account_number",
          "type": "string"
        }
      ],
      "name": "getSplitPolicyAddress",
      "outputs": [
        {
          "name": "",
          "type": "address"
        }
      ],
      "payable": false,
      "stateMutability": "view",
      "type": "function"
    },
    {
      "constant": true,
      "inputs": [],
      "name": "owner",
      "outputs": [
        {
          "name": "",
          "type": "address"
        }
      ],
      "payable": false,
      "stateMutability": "view",
      "type": "function"
    },
    {
      "constant": true,
      "inputs": [
        {
          "name": "a",
          "type": "uint256"
        },
        {
          "name": "b",
          "type": "uint256"
        }
      ],
      "name": "safeSub",
      "outputs": [
        {
          "name": "c",
          "type": "uint256"
        }
      ],
      "payable": false,
      "stateMutability": "pure",
      "type": "function"
    },
    {
      "constant": false,
      "inputs": [
        {
          "name": "virtual_account_number",
          "type": "string"
        },
        {
          "name": "split_contract_address",
          "type": "address"
        }
      ],
      "name": "updateSplitPolicy",
      "outputs": [
        {
          "name": "",
          "type": "bool"
        }
      ],
      "payable": false,
      "stateMutability": "nonpayable",
      "type": "function"
    },
    {
      "constant": true,
      "inputs": [
        {
          "name": "a",
          "type": "uint256"
        },
        {
          "name": "b",
          "type": "uint256"
        }
      ],
      "name": "safeAdd",
      "outputs": [
        {
          "name": "c",
          "type": "uint256"
        }
      ],
      "payable": false,
      "stateMutability": "pure",
      "type": "function"
    },
    {
      "constant": false,
      "inputs": [
        {
          "name": "_newOwner",
          "type": "address"
        }
      ],
      "name": "transferOwnership",
      "outputs": [],
      "payable": false,
      "stateMutability": "nonpayable",
      "type": "function"
    },
    {
      "anonymous": false,
      "inputs": [
        {
          "indexed": true,
          "name": "_from",
          "type": "address"
        },
        {
          "indexed": true,
          "name": "_to",
          "type": "address"
        }
      ],
      "name": "OwnershipTransferred",
      "type": "event"
    }
  ],
  "bytecode": "0x6060604052336000806101000a81548173ffffffffffffffffffffffffffffffffffffffff021916908373ffffffffffffffffffffffffffffffffffffffff160217905550610865806100536000396000f300606060405260043610610083576000357c0100000000000000000000000000000000000000000000000000000000900463ffffffff16806330ceb3bd14610088578063784ce9341461011c5780638da5cb5b146101b9578063a293d1e81461020e578063e0e18ae01461024e578063e6cb9013146102e2578063f2fde38b14610322575b600080fd5b341561009357600080fd5b610102600480803590602001908201803590602001908080601f0160208091040260200160405190810160405280939291908181526020018383808284378201915050505050509190803573ffffffffffffffffffffffffffffffffffffffff1690602001909190505061035b565b604051808215151515815260200191505060405180910390f35b341561012757600080fd5b610177600480803590602001908201803590602001908080601f016020809104026020016040519081016040528093929190818152602001838380828437820191505050505050919050506104ef565b604051808273ffffffffffffffffffffffffffffffffffffffff1673ffffffffffffffffffffffffffffffffffffffff16815260200191505060405180910390f35b34156101c457600080fd5b6101cc610541565b604051808273ffffffffffffffffffffffffffffffffffffffff1673ffffffffffffffffffffffffffffffffffffffff16815260200191505060405180910390f35b341561021957600080fd5b6102386004808035906020019091908035906020019091905050610566565b6040518082815260200191505060405180910390f35b341561025957600080fd5b6102c8600480803590602001908201803590602001908080601f0160208091040260200160405190810160405280939291908181526020018383808284378201915050505050509190803573ffffffffffffffffffffffffffffffffffffffff16906020019091905050610582565b604051808215151515815260200191505060405180910390f35b34156102ed57600080fd5b61030c6004808035906020019091908035906020019091905050610712565b6040518082815260200191505060405180910390f35b341561032d57600080fd5b610359600480803573ffffffffffffffffffffffffffffffffffffffff1690602001909190505061072e565b005b6000806000809054906101000a900473ffffffffffffffffffffffffffffffffffffffff1673ffffffffffffffffffffffffffffffffffffffff163373ffffffffffffffffffffffffffffffffffffffff161415156103b957600080fd5b6103c284610808565b9050600073ffffffffffffffffffffffffffffffffffffffff168373ffffffffffffffffffffffffffffffffffffffff161415151561040057600080fd5b6104098361082c565b151561041457600080fd5b600073ffffffffffffffffffffffffffffffffffffffff1660016000836000191660001916815260200190815260200160002060009054906101000a900473ffffffffffffffffffffffffffffffffffffffff1673ffffffffffffffffffffffffffffffffffffffff1614151561048a57600080fd5b8260016000836000191660001916815260200190815260200160002060006101000a81548173ffffffffffffffffffffffffffffffffffffffff021916908373ffffffffffffffffffffffffffffffffffffffff160217905550600191505092915050565b6000806104fb83610808565b905060016000826000191660001916815260200190815260200160002060009054906101000a900473ffffffffffffffffffffffffffffffffffffffff16915050919050565b6000809054906101000a900473ffffffffffffffffffffffffffffffffffffffff1681565b600082821115151561057757600080fd5b818303905092915050565b6000806000809054906101000a900473ffffffffffffffffffffffffffffffffffffffff1673ffffffffffffffffffffffffffffffffffffffff163373ffffffffffffffffffffffffffffffffffffffff161415156105e057600080fd5b6105e984610808565b9050600073ffffffffffffffffffffffffffffffffffffffff168373ffffffffffffffffffffffffffffffffffffffff161415151561062757600080fd5b6106308361082c565b151561063b57600080fd5b8273ffffffffffffffffffffffffffffffffffffffff1660016000836000191660001916815260200190815260200160002060009054906101000a900473ffffffffffffffffffffffffffffffffffffffff1673ffffffffffffffffffffffffffffffffffffffff16141515156106b157600080fd5b8260016000836000191660001916815260200190815260200160002060006101000a81548173ffffffffffffffffffffffffffffffffffffffff021916908373ffffffffffffffffffffffffffffffffffffffff1602179055505092915050565b6000818301905082811015151561072857600080fd5b92915050565b6000809054906101000a900473ffffffffffffffffffffffffffffffffffffffff1673ffffffffffffffffffffffffffffffffffffffff163373ffffffffffffffffffffffffffffffffffffffff1614151561078957600080fd5b600073ffffffffffffffffffffffffffffffffffffffff168173ffffffffffffffffffffffffffffffffffffffff16141515156107c557600080fd5b806000806101000a81548173ffffffffffffffffffffffffffffffffffffffff021916908373ffffffffffffffffffffffffffffffffffffffff16021790555050565b6000808251141561081f5760006001029050610827565b602082015190505b919050565b600080823b1190509190505600a165627a7a72305820fe60f225c08884eff0fd13b36d8119ba2b9ae727528e599ebda1a5da1bf671890029",
  "source": "pragma solidity ^0.4.18;\n\nimport \"./AccessControl.sol\";\n\ncontract VirtualAccountSplitPolicy is AccessControl {\n\n    mapping(bytes32 => address) VirtualAccountSplitPolicyContractMapping;\n\n    function addNewSplitPolicy(string virtual_account_number, address split_contract_address) public onlyOwner returns (bool) {\n        // check that no address has been set previously\n\n        bytes32 virtual_account_number_bytes = _stringToBytes32(virtual_account_number);\n\n        require(split_contract_address != address(0));\n        require(isContract(split_contract_address));\n\n        require(VirtualAccountSplitPolicyContractMapping[virtual_account_number_bytes] == address(0));\n\n        VirtualAccountSplitPolicyContractMapping[virtual_account_number_bytes] = split_contract_address;\n\n        return true;\n    }\n\n    function updateSplitPolicy(string virtual_account_number, address split_contract_address) public onlyOwner returns (bool) {\n        bytes32 virtual_account_number_bytes = _stringToBytes32(virtual_account_number);\n\n        require(split_contract_address != address(0));\n        require(isContract(split_contract_address));\n        require(VirtualAccountSplitPolicyContractMapping[virtual_account_number_bytes] != split_contract_address);\n\n        VirtualAccountSplitPolicyContractMapping[virtual_account_number_bytes] = split_contract_address;\n    }\n\n    function getSplitPolicyAddress(string virtual_account_number) public view returns (address) {\n        bytes32 virtual_account_number_bytes = _stringToBytes32(virtual_account_number);\n        return VirtualAccountSplitPolicyContractMapping[virtual_account_number_bytes];\n    }\n}",
  "sourcePath": "/Users/aditya/Documents/indifi/blockchain/escrow-ethereum/contracts/VirtualAccountSplitPolicy.sol",
  "compiler": {
    "name": "solc",
    "version": "0.4.18+commit.9cf6e910.Emscripten.clang"
  },
  "schemaVersion": "1.0.1",
  "updatedAt": "2018-03-12T07:57:25.218Z"
}