{
  "contractName": "VirtualAccounts",
  "abi": [
    {
      "constant": true,
      "inputs": [],
      "name": "getAllVirtualAccounts",
      "outputs": [
        {
          "components": [
            {
              "name": "virtualAccountNumber",
              "type": "bytes32"
            },
            {
              "name": "borrowerAddress",
              "type": "address"
            },
            {
              "name": "lenderAddress",
              "type": "address"
            },
            {
              "name": "policyDetails",
              "type": "uint256[]"
            },
            {
              "name": "bankAccountNumber",
              "type": "string"
            },
            {
              "name": "ifscCode",
              "type": "string"
            }
          ],
          "name": "",
          "type": "tuple[]"
        }
      ],
      "payable": false,
      "stateMutability": "view",
      "type": "function"
    },
    {
      "constant": true,
      "inputs": [
        {
          "name": "",
          "type": "uint256"
        }
      ],
      "name": "virtualAccounts",
      "outputs": [
        {
          "name": "virtualAccountNumber",
          "type": "bytes32"
        },
        {
          "name": "borrowerAddress",
          "type": "address"
        },
        {
          "name": "lenderAddress",
          "type": "address"
        },
        {
          "name": "bankAccountNumber",
          "type": "string"
        },
        {
          "name": "ifscCode",
          "type": "string"
        }
      ],
      "payable": false,
      "stateMutability": "view",
      "type": "function"
    },
    {
      "constant": true,
      "inputs": [
        {
          "name": "",
          "type": "bytes32"
        }
      ],
      "name": "virtualAccountsToIndex",
      "outputs": [
        {
          "name": "",
          "type": "uint32"
        }
      ],
      "payable": false,
      "stateMutability": "view",
      "type": "function"
    },
    {
      "constant": true,
      "inputs": [],
      "name": "owner",
      "outputs": [
        {
          "name": "",
          "type": "address"
        }
      ],
      "payable": false,
      "stateMutability": "view",
      "type": "function"
    },
    {
      "constant": false,
      "inputs": [
        {
          "name": "_virtualAccountNumber",
          "type": "string"
        },
        {
          "name": "_policyDetails",
          "type": "uint256[]"
        },
        {
          "name": "_borrower",
          "type": "address"
        },
        {
          "name": "_lender",
          "type": "address"
        },
        {
          "name": "_bankAccountNumber",
          "type": "string"
        },
        {
          "name": "_ifscCode",
          "type": "string"
        }
      ],
      "name": "updateVirtualAccountConfiguration",
      "outputs": [
        {
          "name": "",
          "type": "bool"
        }
      ],
      "payable": false,
      "stateMutability": "nonpayable",
      "type": "function"
    },
    {
      "constant": true,
      "inputs": [
        {
          "name": "x",
          "type": "bytes32"
        }
      ],
      "name": "_bytes32ToString",
      "outputs": [
        {
          "name": "",
          "type": "string"
        }
      ],
      "payable": false,
      "stateMutability": "pure",
      "type": "function"
    },
    {
      "constant": true,
      "inputs": [
        {
          "name": "s",
          "type": "string"
        }
      ],
      "name": "_stringToBytes32",
      "outputs": [
        {
          "name": "result",
          "type": "bytes32"
        }
      ],
      "payable": false,
      "stateMutability": "pure",
      "type": "function"
    },
    {
      "constant": false,
      "inputs": [
        {
          "name": "_newOwner",
          "type": "address"
        }
      ],
      "name": "transferOwnership",
      "outputs": [],
      "payable": false,
      "stateMutability": "nonpayable",
      "type": "function"
    },
    {
      "anonymous": false,
      "inputs": [
        {
          "indexed": true,
          "name": "_from",
          "type": "address"
        },
        {
          "indexed": true,
          "name": "_to",
          "type": "address"
        }
      ],
      "name": "OwnershipTransferred",
      "type": "event"
    }
  ],
  "bytecode": "0x6060604052336000806101000a81548173ffffffffffffffffffffffffffffffffffffffff021916908373ffffffffffffffffffffffffffffffffffffffff16021790555061146f806100536000396000f30060606040526004361061008e576000357c0100000000000000000000000000000000000000000000000000000000900463ffffffff168063017bfbff146100935780635aa82864146100bc57806377d60bcb146100f75780638da5cb5b14610132578063948165111461015b578063ad966a03146102d0578063bf6a8f9c1461030b578063f2fde38b1461037c575b600080fd5b341561009e57600080fd5b6100a66103b5565b6040516100b39190611230565b60405180910390f35b34156100c757600080fd5b6100dd6004808035906020019091905050610675565b6040516100ee959493929190611288565b60405180910390f35b341561010257600080fd5b61011c6004808035600019169060200190919050506106f8565b604051610129919061130b565b60405180910390f35b341561013d57600080fd5b61014561071b565b6040516101529190611215565b60405180910390f35b341561016657600080fd5b6102ba600480803590602001908201803590602001908080601f016020809104026020016040519081016040528093929190818152602001838380828437820191505050505050919080359060200190820180359060200190808060200260200160405190810160405280939291908181526020018383602002808284378201915050505050509190803573ffffffffffffffffffffffffffffffffffffffff1690602001909190803573ffffffffffffffffffffffffffffffffffffffff1690602001909190803590602001908201803590602001908080601f0160208091040260200160405190810160405280939291908181526020018383808284378201915050505050509190803590602001908201803590602001908080601f01602080910402602001604051908101604052809392919081815260200183838082843782019150505050505091905050610740565b6040516102c79190611252565b60405180910390f35b34156102db57600080fd5b6102f560048080356000191690602001909190505061097f565b60405161030291906112e9565b60405180910390f35b341561031657600080fd5b610366600480803590602001908201803590602001908080601f01602080910402602001604051908101604052809392919081815260200183838082843782019150505050505091905050610b6c565b604051610373919061126d565b60405180910390f35b341561038757600080fd5b6103b3600480803573ffffffffffffffffffffffffffffffffffffffff16906020019091905050610b90565b005b6103bd610c6a565b6001805480602002602001604051908101604052809291908181526020016000905b8282101561066c578382906000526020600020906006020160c060405190810160405290816000820154600019166000191681526020016001820160009054906101000a900473ffffffffffffffffffffffffffffffffffffffff1673ffffffffffffffffffffffffffffffffffffffff1673ffffffffffffffffffffffffffffffffffffffff1681526020016002820160009054906101000a900473ffffffffffffffffffffffffffffffffffffffff1673ffffffffffffffffffffffffffffffffffffffff1673ffffffffffffffffffffffffffffffffffffffff1681526020016003820180548060200260200160405190810160405280929190818152602001828054801561051057602002820191906000526020600020905b8154815260200190600101908083116104fc575b50505050508152602001600482018054600181600116156101000203166002900480601f0160208091040260200160405190810160405280929190818152602001828054600181600116156101000203166002900480156105b25780601f10610587576101008083540402835291602001916105b2565b820191906000526020600020905b81548152906001019060200180831161059557829003601f168201915b50505050508152602001600582018054600181600116156101000203166002900480601f0160208091040260200160405190810160405280929190818152602001828054600181600116156101000203166002900480156106545780601f1061062957610100808354040283529160200191610654565b820191906000526020600020905b81548152906001019060200180831161063757829003601f168201915b505050505081525050815260200190600101906103df565b50505050905090565b60018181548110151561068457fe5b90600052602060002090600602016000915090508060000154908060010160009054906101000a900473ffffffffffffffffffffffffffffffffffffffff16908060020160009054906101000a900473ffffffffffffffffffffffffffffffffffffffff1690806004019080600501905085565b60026020528060005260406000206000915054906101000a900463ffffffff1681565b6000809054906101000a900473ffffffffffffffffffffffffffffffffffffffff1681565b60008061074b610c7e565b60008060009054906101000a900473ffffffffffffffffffffffffffffffffffffffff1673ffffffffffffffffffffffffffffffffffffffff163373ffffffffffffffffffffffffffffffffffffffff161415156107a857600080fd5b6107b18a610b6c565b925060c060405190810160405280846000191681526020018973ffffffffffffffffffffffffffffffffffffffff1681526020018873ffffffffffffffffffffffffffffffffffffffff1681526020018a815260200187815260200186815250915060018080548060010182816108289190610cf6565b916000526020600020906006020160008590919091506000820151816000019060001916905560208201518160010160006101000a81548173ffffffffffffffffffffffffffffffffffffffff021916908373ffffffffffffffffffffffffffffffffffffffff16021790555060408201518160020160006101000a81548173ffffffffffffffffffffffffffffffffffffffff021916908373ffffffffffffffffffffffffffffffffffffffff16021790555060608201518160030190805190602001906108f8929190610d28565b506080820151816004019080519060200190610915929190610d75565b5060a0820151816005019080519060200190610932929190610d75565b5050500390508060026000856000191660001916815260200190815260200160002060006101000a81548163ffffffff021916908363ffffffff1602179055505050509695505050505050565b610987610df5565b61098f610e09565b600080600061099c610e09565b60206040518059106109ab5750595b9080825280601f01601f1916602001820160405250945060009350600092505b6020831015610a89578260080260020a876001900402600102915060007f010000000000000000000000000000000000000000000000000000000000000002827effffffffffffffffffffffffffffffffffffffffffffffffffffffffffffff1916141515610a7c57818585815181101515610a4357fe5b9060200101907effffffffffffffffffffffffffffffffffffffffffffffffffffffffffffff1916908160001a90535083806001019450505b82806001019350506109cb565b83604051805910610a975750595b9080825280601f01601f19166020018201604052509050600092505b83831015610b5f578483815181101515610ac957fe5b9060200101517f010000000000000000000000000000000000000000000000000000000000000090047f0100000000000000000000000000000000000000000000000000000000000000028184815181101515610b2257fe5b9060200101907effffffffffffffffffffffffffffffffffffffffffffffffffffffffffffff1916908160001a9053508280600101935050610ab3565b8095505050505050919050565b60008082511415610b835760006001029050610b8b565b602082015190505b919050565b6000809054906101000a900473ffffffffffffffffffffffffffffffffffffffff1673ffffffffffffffffffffffffffffffffffffffff163373ffffffffffffffffffffffffffffffffffffffff16141515610beb57600080fd5b600073ffffffffffffffffffffffffffffffffffffffff168173ffffffffffffffffffffffffffffffffffffffff1614151515610c2757600080fd5b806000806101000a81548173ffffffffffffffffffffffffffffffffffffffff021916908373ffffffffffffffffffffffffffffffffffffffff16021790555050565b602060405190810160405280600081525090565b60c06040519081016040528060008019168152602001600073ffffffffffffffffffffffffffffffffffffffff168152602001600073ffffffffffffffffffffffffffffffffffffffff168152602001610cd6610e1d565b8152602001610ce3610e31565b8152602001610cf0610e31565b81525090565b815481835581811511610d2357600602816006028360005260206000209182019101610d229190610e45565b5b505050565b828054828255906000526020600020908101928215610d64579160200282015b82811115610d63578251825591602001919060010190610d48565b5b509050610d719190610eea565b5090565b828054600181600116156101000203166002900490600052602060002090601f016020900481019282601f10610db657805160ff1916838001178555610de4565b82800160010185558215610de4579182015b82811115610de3578251825591602001919060010190610dc8565b5b509050610df19190610eea565b5090565b602060405190810160405280600081525090565b602060405190810160405280600081525090565b602060405190810160405280600081525090565b602060405190810160405280600081525090565b610ee791905b80821115610ee3576000808201600090556001820160006101000a81549073ffffffffffffffffffffffffffffffffffffffff02191690556002820160006101000a81549073ffffffffffffffffffffffffffffffffffffffff0219169055600382016000610eba9190610f0f565b600482016000610eca9190610f30565b600582016000610eda9190610f30565b50600601610e4b565b5090565b90565b610f0c91905b80821115610f08576000816000905550600101610ef0565b5090565b90565b5080546000825590600052602060002090810190610f2d9190610eea565b50565b50805460018160011615610100020316600290046000825580601f10610f565750610f75565b601f016020900490600052602060002090810190610f749190610eea565b5b50565b610f8181611398565b82525050565b6000610f9282611352565b80845260208401935083602082028501610fab85611326565b60005b84811015610fe4578383038852610fc6838351611160565b9250610fd18261137e565b9150602088019750600181019050610fae565b508196508694505050505092915050565b60006110008261135d565b80845260208401935061101283611333565b60005b82811015611044576110288683516111f7565b6110318261138b565b9150602086019550600181019050611015565b50849250505092915050565b611059816113b8565b82525050565b611068816113c4565b82525050565b600061107982611373565b80845261108d8160208601602086016113e8565b61109681611424565b602085010191505092915050565b60006110af82611368565b8084526110c38160208601602086016113e8565b6110cc81611424565b602085010191505092915050565b6000815460018116600081146110f7576001811461111757611158565b607f600283041680865260ff198316602087015260408601935050611158565b6002820480865260208601955061112d85611340565b60005b8281101561114f57815481890152600182019150602081019050611130565b80880195505050505b505092915050565b600060c083016000830151611178600086018261105f565b50602083015161118b6020860182610f78565b50604083015161119e6040860182610f78565b50606083015184820360608601526111b68282610ff5565b915050608083015184820360808601526111d082826110a4565b91505060a083015184820360a08601526111ea82826110a4565b9150508091505092915050565b611200816113ce565b82525050565b61120f816113d8565b82525050565b600060208201905061122a6000830184610f78565b92915050565b6000602082019050818103600083015261124a8184610f87565b905092915050565b60006020820190506112676000830184611050565b92915050565b6000602082019050611282600083018461105f565b92915050565b600060a08201905061129d600083018861105f565b6112aa6020830187610f78565b6112b76040830186610f78565b81810360608301526112c981856110da565b905081810360808301526112dd81846110da565b90509695505050505050565b60006020820190508181036000830152611303818461106e565b905092915050565b60006020820190506113206000830184611206565b92915050565b6000602082019050919050565b6000602082019050919050565b60008160005260206000209050919050565b600081519050919050565b600081519050919050565b600081519050919050565b600081519050919050565b6000602082019050919050565b6000602082019050919050565b600073ffffffffffffffffffffffffffffffffffffffff82169050919050565b60008115159050919050565b6000819050919050565b6000819050919050565b600063ffffffff82169050919050565b60005b838110156114065780820151818401526020810190506113eb565b838114600081146114165761141d565b6000858501525b5050505050565b6000601f19601f83011690509190505600a265627a7a723058205d16acb18215546598b4b080e56319326929f240c4b4a31ef8727c9d474d551b6c6578706572696d656e74616cf50037",
  "source": "pragma solidity ^0.4.18;\nimport \"./AccessControl.sol\";\n\npragma experimental ABIEncoderV2;\n\ncontract VirtualAccounts is AccessControl {\n\n    struct VirtualAccount {\n        bytes32 virtualAccountNumber;\n        address borrowerAddress;\n        address lenderAddress;\n        uint[] policyDetails;\n        string bankAccountNumber;\n        string ifscCode;\n    }\n\n    VirtualAccount[] public virtualAccounts;\n    \n    // -------------------------------------------------------------------------\n    // To keep the position of any virtual account in the virtualaccounts array\n    // key: bytes32 - bytes32 representation of the virtual account\n    // value: uint256 - index of the VirtualAccount struct in virtualaccounts array\n    // -------------------------------------------------------------------------\n    mapping(bytes32 => uint32) public virtualAccountsToIndex;\n    \n    \n    function updateVirtualAccountConfiguration(\n        string _virtualAccountNumber, \n        uint256[] _policyDetails,\n        address _borrower,\n        address _lender,\n        string _bankAccountNumber,\n        string _ifscCode\n    ) public onlyOwner returns (bool) {\n        bytes32 virtualAccountNumberBytes = _stringToBytes32(_virtualAccountNumber);\n        VirtualAccount memory va = VirtualAccount({\n            virtualAccountNumber: virtualAccountNumberBytes,\n            borrowerAddress: _borrower,\n            lenderAddress: _lender,\n            policyDetails: _policyDetails,\n            bankAccountNumber: _bankAccountNumber,\n            ifscCode: _ifscCode\n        });\n        uint32 index = uint32(virtualAccounts.push(va) - 1);\n        virtualAccountsToIndex[virtualAccountNumberBytes] = index;\n    }\n    \n    function getAllVirtualAccounts() public view returns(VirtualAccount[]) {\n        return virtualAccounts;\n    }\n   \n}\n",
  "sourcePath": "/Users/Sahil/Documents/projects/blockchain/escrow-ethereum/contracts/VirtualAccounts.sol",
  "compiler": {
    "name": "solc",
    "version": "0.4.18+commit.9cf6e910.Emscripten.clang"
  },
  "schemaVersion": "1.0.1",
  "updatedAt": "2018-03-20T19:56:07.056Z"
}